{
  "_format": "hh-sol-artifact-1",
  "contractName": "DynamicMultiHop2rep",
  "sourceName": "contracts/uni/DynamicMultiHop2rep.sol",
  "abi": [
    {
      "inputs": [],
      "name": "HDT",
      "outputs": [
        {
          "internalType": "address",
          "name": "",
          "type": "address"
        }
      ],
      "stateMutability": "view",
      "type": "function"
    },
    {
      "inputs": [],
      "name": "WETH",
      "outputs": [
        {
          "internalType": "address",
          "name": "",
          "type": "address"
        }
      ],
      "stateMutability": "view",
      "type": "function"
    },
    {
      "inputs": [],
      "name": "poolFee",
      "outputs": [
        {
          "internalType": "uint24",
          "name": "",
          "type": "uint24"
        }
      ],
      "stateMutability": "view",
      "type": "function"
    },
    {
      "inputs": [],
      "name": "recipient1",
      "outputs": [
        {
          "internalType": "address",
          "name": "",
          "type": "address"
        }
      ],
      "stateMutability": "view",
      "type": "function"
    },
    {
      "inputs": [],
      "name": "recipient2",
      "outputs": [
        {
          "internalType": "address",
          "name": "",
          "type": "address"
        }
      ],
      "stateMutability": "view",
      "type": "function"
    },
    {
      "inputs": [
        {
          "internalType": "address",
          "name": "tokenIn",
          "type": "address"
        },
        {
          "internalType": "uint256",
          "name": "amountIn",
          "type": "uint256"
        }
      ],
      "name": "swapExactInputMultihop",
      "outputs": [
        {
          "internalType": "uint256",
          "name": "amountOut",
          "type": "uint256"
        },
        {
          "internalType": "uint256",
          "name": "halfAmount",
          "type": "uint256"
        }
      ],
      "stateMutability": "nonpayable",
      "type": "function"
    },
    {
      "inputs": [
        {
          "internalType": "address",
          "name": "tokenIn",
          "type": "address"
        },
        {
          "internalType": "uint256",
          "name": "amountOut",
          "type": "uint256"
        },
        {
          "internalType": "uint256",
          "name": "amountInMaximum",
          "type": "uint256"
        }
      ],
      "name": "swapExactOutputMultihop",
      "outputs": [
        {
          "internalType": "uint256",
          "name": "amountIn",
          "type": "uint256"
        }
      ],
      "stateMutability": "nonpayable",
      "type": "function"
    },
    {
      "inputs": [],
      "name": "swapRouter",
      "outputs": [
        {
          "internalType": "contract ISwapRouter",
          "name": "",
          "type": "address"
        }
      ],
      "stateMutability": "view",
      "type": "function"
    }
  ],
  "bytecode": "0x60a060405273e592427a0aece92de3edee1f18e0157c0586156460805234801561002857600080fd5b50608051610a5961006760003960008181610181015281816101b80152818161025f0152818161037d0152818161042301526104c00152610a596000f3fe608060405234801561001057600080fd5b50600436106100885760003560e01c8063895c40bf1161005b578063895c40bf14610125578063aa3744bd14610146578063ad5c464814610161578063c31c9c071461017c57600080fd5b80630688b1351461008d578063089fe6aa146100c55780634857a8c7146100e257806356b1ddbb1461010a575b600080fd5b6100a87388b944e7e3d495b88caa62fb0158f697c9a1561d81565b6040516001600160a01b0390911681526020015b60405180910390f35b6100ce610bb881565b60405162ffffff90911681526020016100bc565b6100f56100f0366004610827565b6101a3565b604080519283526020830191909152016100bc565b6100a87359964556ee1673479c973d8b04e7ffd0eccb154481565b610138610133366004610851565b610369565b6040519081526020016100bc565b6100a8739c461f7a96c4aa3b83b67049de69155274b4d6ec81565b6100a873b4fbf271143f4fbf7b91a5ded31805e42b2208d681565b6100a87f000000000000000000000000000000000000000000000000000000000000000081565b6000806101b284333086610503565b6101dd847f000000000000000000000000000000000000000000000000000000000000000085610612565b6040805160a081019091526000908061022787610bb873b4fbf271143f4fbf7b91a5ded31805e42b2208d6817359964556ee1673479c973d8b04e7ffd0eccb154460c08701610884565b6040516020818303038152906040528152602001306001600160a01b03168152602001428152602001858152602001600081525090507f00000000000000000000000000000000000000000000000000000000000000006001600160a01b031663c04b8d59826040518263ffffffff1660e01b81526004016102a9919061096b565b6020604051808303816000875af11580156102c8573d6000803e3d6000fd5b505050506040513d601f19601f820116820180604052508101906102ec9190610985565b92506102f960028461099e565b915061032e7359964556ee1673479c973d8b04e7ffd0eccb1544739c461f7a96c4aa3b83b67049de69155274b4d6ec84610712565b6103617359964556ee1673479c973d8b04e7ffd0eccb15447388b944e7e3d495b88caa62fb0158f697c9a1561d84610712565b509250929050565b600061037784333085610503565b6103a2847f000000000000000000000000000000000000000000000000000000000000000084610612565b6040805160a08101909152600090806103ec7359964556ee1673479c973d8b04e7ffd0eccb1544610bb873b4fbf271143f4fbf7b91a5ded31805e42b2208d6818b60c08701610884565b6040516020818303038152906040528152602001336001600160a01b031681526020014281526020018581526020018481525090507f00000000000000000000000000000000000000000000000000000000000000006001600160a01b031663f28c0498826040518263ffffffff1660e01b815260040161046d919061096b565b6020604051808303816000875af115801561048c573d6000803e3d6000fd5b505050506040513d601f19601f820116820180604052508101906104b09190610985565b9150828210156104fb576104e6857f00000000000000000000000000000000000000000000000000000000000000006000610612565b6104fb8530336104f686886109c0565b610503565b509392505050565b604080516001600160a01b0385811660248301528481166044830152606480830185905283518084039091018152608490920183526020820180516001600160e01b03166323b872dd60e01b179052915160009283929088169161056791906109e5565b6000604051808303816000865af19150503d80600081146105a4576040519150601f19603f3d011682016040523d82523d6000602084013e6105a9565b606091505b50915091508180156105d35750805115806105d35750808060200190518101906105d39190610a01565b61060a5760405162461bcd60e51b815260206004820152600360248201526229aa2360e91b60448201526064015b60405180910390fd5b505050505050565b604080516001600160a01b038481166024830152604480830185905283518084039091018152606490920183526020820180516001600160e01b031663095ea7b360e01b179052915160009283929087169161066e91906109e5565b6000604051808303816000865af19150503d80600081146106ab576040519150601f19603f3d011682016040523d82523d6000602084013e6106b0565b606091505b50915091508180156106da5750805115806106da5750808060200190518101906106da9190610a01565b61070b5760405162461bcd60e51b8152602060048201526002602482015261534160f01b6044820152606401610601565b5050505050565b604080516001600160a01b038481166024830152604480830185905283518084039091018152606490920183526020820180516001600160e01b031663a9059cbb60e01b179052915160009283929087169161076e91906109e5565b6000604051808303816000865af19150503d80600081146107ab576040519150601f19603f3d011682016040523d82523d6000602084013e6107b0565b606091505b50915091508180156107da5750805115806107da5750808060200190518101906107da9190610a01565b61070b5760405162461bcd60e51b815260206004820152600260248201526114d560f21b6044820152606401610601565b80356001600160a01b038116811461082257600080fd5b919050565b6000806040838503121561083a57600080fd5b6108438361080b565b946020939093013593505050565b60008060006060848603121561086657600080fd5b61086f8461080b565b95602085013595506040909401359392505050565b6bffffffffffffffffffffffff19606096871b811682526001600160e81b031960e896871b8116601484015294871b811660178301529290941b909216602b840152921b909116602e82015260420190565b60005b838110156108f15781810151838201526020016108d9565b83811115610900576000848401525b50505050565b6000815160a0845280518060a08601526109278160c08701602085016108d6565b6020848101516001600160a01b0316908601526040808501519086015260608085015190860152608093840151938501939093525050601f01601f19160160c00190565b60208152600061097e6020830184610906565b9392505050565b60006020828403121561099757600080fd5b5051919050565b6000826109bb57634e487b7160e01b600052601260045260246000fd5b500490565b6000828210156109e057634e487b7160e01b600052601160045260246000fd5b500390565b600082516109f78184602087016108d6565b9190910192915050565b600060208284031215610a1357600080fd5b8151801515811461097e57600080fdfea26469706673582212200e337634e97e21c4539af45fba76f297f35a412675f00e8bcaafe6061ab239ad64736f6c634300080d0033",
  "linkReferences": {},
  "deployedLinkReferences": {}
}