{
  "_format": "hh-sol-artifact-1",
  "contractName": "DynamicMultiHop",
  "sourceName": "contracts/uni/DynamicMultiHop.sol",
  "abi": [
    {
      "inputs": [],
      "name": "HDT",
      "outputs": [
        {
          "internalType": "address",
          "name": "",
          "type": "address"
        }
      ],
      "stateMutability": "view",
      "type": "function"
    },
    {
      "inputs": [],
      "name": "WETH",
      "outputs": [
        {
          "internalType": "address",
          "name": "",
          "type": "address"
        }
      ],
      "stateMutability": "view",
      "type": "function"
    },
    {
      "inputs": [],
      "name": "poolFee",
      "outputs": [
        {
          "internalType": "uint24",
          "name": "",
          "type": "uint24"
        }
      ],
      "stateMutability": "view",
      "type": "function"
    },
    {
      "inputs": [
        {
          "internalType": "address",
          "name": "tokenIn",
          "type": "address"
        },
        {
          "internalType": "uint256",
          "name": "amountIn",
          "type": "uint256"
        }
      ],
      "name": "swapExactInputMultihop",
      "outputs": [
        {
          "internalType": "uint256",
          "name": "amountOut",
          "type": "uint256"
        }
      ],
      "stateMutability": "nonpayable",
      "type": "function"
    },
    {
      "inputs": [
        {
          "internalType": "address",
          "name": "tokenIn",
          "type": "address"
        },
        {
          "internalType": "uint256",
          "name": "amountOut",
          "type": "uint256"
        },
        {
          "internalType": "uint256",
          "name": "amountInMaximum",
          "type": "uint256"
        }
      ],
      "name": "swapExactOutputMultihop",
      "outputs": [
        {
          "internalType": "uint256",
          "name": "amountIn",
          "type": "uint256"
        }
      ],
      "stateMutability": "nonpayable",
      "type": "function"
    },
    {
      "inputs": [],
      "name": "swapRouter",
      "outputs": [
        {
          "internalType": "contract ISwapRouter",
          "name": "",
          "type": "address"
        }
      ],
      "stateMutability": "view",
      "type": "function"
    }
  ],
  "bytecode": "0x60a060405273e592427a0aece92de3edee1f18e0157c0586156460805234801561002857600080fd5b506080516108576100676000396000818161011001528181610146015281816101ed015281816102960152818161033c01526103d901526108576000f3fe608060405234801561001057600080fd5b50600436106100625760003560e01c8063089fe6aa146100675780634857a8c71461008957806356b1ddbb146100aa578063895c40bf146100dd578063ad5c4648146100f0578063c31c9c071461010b575b600080fd5b610070610bb881565b60405162ffffff90911681526020015b60405180910390f35b61009c610097366004610647565b610132565b604051908152602001610080565b6100c57359964556ee1673479c973d8b04e7ffd0eccb154481565b6040516001600160a01b039091168152602001610080565b61009c6100eb366004610671565b610282565b6100c573b4fbf271143f4fbf7b91a5ded31805e42b2208d681565b6100c57f000000000000000000000000000000000000000000000000000000000000000081565b60006101408333308561041c565b61016b837f00000000000000000000000000000000000000000000000000000000000000008461052b565b6040805160a08101909152600090806101b586610bb873b4fbf271143f4fbf7b91a5ded31805e42b2208d6817359964556ee1673479c973d8b04e7ffd0eccb154460c087016106a4565b6040516020818303038152906040528152602001336001600160a01b03168152602001428152602001848152602001600081525090507f00000000000000000000000000000000000000000000000000000000000000006001600160a01b031663c04b8d59826040518263ffffffff1660e01b8152600401610237919061078b565b6020604051808303816000875af1158015610256573d6000803e3d6000fd5b505050506040513d601f19601f8201168201806040525081019061027a91906107a5565b949350505050565b60006102908433308561041c565b6102bb847f00000000000000000000000000000000000000000000000000000000000000008461052b565b6040805160a08101909152600090806103057359964556ee1673479c973d8b04e7ffd0eccb1544610bb873b4fbf271143f4fbf7b91a5ded31805e42b2208d6818b60c087016106a4565b6040516020818303038152906040528152602001336001600160a01b031681526020014281526020018581526020018481525090507f00000000000000000000000000000000000000000000000000000000000000006001600160a01b031663f28c0498826040518263ffffffff1660e01b8152600401610386919061078b565b6020604051808303816000875af11580156103a5573d6000803e3d6000fd5b505050506040513d601f19601f820116820180604052508101906103c991906107a5565b915082821015610414576103ff857f0000000000000000000000000000000000000000000000000000000000000000600061052b565b61041485303361040f86886107be565b61041c565b509392505050565b604080516001600160a01b0385811660248301528481166044830152606480830185905283518084039091018152608490920183526020820180516001600160e01b03166323b872dd60e01b179052915160009283929088169161048091906107e3565b6000604051808303816000865af19150503d80600081146104bd576040519150601f19603f3d011682016040523d82523d6000602084013e6104c2565b606091505b50915091508180156104ec5750805115806104ec5750808060200190518101906104ec91906107ff565b6105235760405162461bcd60e51b815260206004820152600360248201526229aa2360e91b60448201526064015b60405180910390fd5b505050505050565b604080516001600160a01b038481166024830152604480830185905283518084039091018152606490920183526020820180516001600160e01b031663095ea7b360e01b179052915160009283929087169161058791906107e3565b6000604051808303816000865af19150503d80600081146105c4576040519150601f19603f3d011682016040523d82523d6000602084013e6105c9565b606091505b50915091508180156105f35750805115806105f35750808060200190518101906105f391906107ff565b6106245760405162461bcd60e51b8152602060048201526002602482015261534160f01b604482015260640161051a565b5050505050565b80356001600160a01b038116811461064257600080fd5b919050565b6000806040838503121561065a57600080fd5b6106638361062b565b946020939093013593505050565b60008060006060848603121561068657600080fd5b61068f8461062b565b95602085013595506040909401359392505050565b6bffffffffffffffffffffffff19606096871b811682526001600160e81b031960e896871b8116601484015294871b811660178301529290941b909216602b840152921b909116602e82015260420190565b60005b838110156107115781810151838201526020016106f9565b83811115610720576000848401525b50505050565b6000815160a0845280518060a08601526107478160c08701602085016106f6565b6020848101516001600160a01b0316908601526040808501519086015260608085015190860152608093840151938501939093525050601f01601f19160160c00190565b60208152600061079e6020830184610726565b9392505050565b6000602082840312156107b757600080fd5b5051919050565b6000828210156107de57634e487b7160e01b600052601160045260246000fd5b500390565b600082516107f58184602087016106f6565b9190910192915050565b60006020828403121561081157600080fd5b8151801515811461079e57600080fdfea264697066735822122035fb048350aa5e711fe40fd8b5863080cfe48e4e0a109d3a28e75187854be99664736f6c634300080d0033",
  "linkReferences": {},
  "deployedLinkReferences": {}
}