{
  "_format": "hh-sol-artifact-1",
  "contractName": "ReferralProjectBatchPausable",
  "sourceName": "contracts/referral/ReferralProjectBatchPausable.sol",
  "abi": [
    {
      "inputs": [
        {
          "internalType": "address",
          "name": "_hdtToken",
          "type": "address"
        },
        {
          "internalType": "address",
          "name": "_developerSafe",
          "type": "address"
        },
        {
          "internalType": "address",
          "name": "_trustedSigner",
          "type": "address"
        }
      ],
      "stateMutability": "nonpayable",
      "type": "constructor"
    },
    {
      "inputs": [],
      "name": "ECDSAInvalidSignature",
      "type": "error"
    },
    {
      "inputs": [
        {
          "internalType": "uint256",
          "name": "length",
          "type": "uint256"
        }
      ],
      "name": "ECDSAInvalidSignatureLength",
      "type": "error"
    },
    {
      "inputs": [
        {
          "internalType": "bytes32",
          "name": "s",
          "type": "bytes32"
        }
      ],
      "name": "ECDSAInvalidSignatureS",
      "type": "error"
    },
    {
      "anonymous": false,
      "inputs": [
        {
          "indexed": false,
          "internalType": "uint256",
          "name": "totalClaims",
          "type": "uint256"
        },
        {
          "indexed": false,
          "internalType": "string[]",
          "name": "referralCodes",
          "type": "string[]"
        },
        {
          "indexed": true,
          "internalType": "string",
          "name": "enteredReferralCode",
          "type": "string"
        },
        {
          "indexed": false,
          "internalType": "address[]",
          "name": "owners",
          "type": "address[]"
        },
        {
          "indexed": true,
          "internalType": "address",
          "name": "referralOwner",
          "type": "address"
        }
      ],
      "name": "BatchClaimProcessed",
      "type": "event"
    },
    {
      "anonymous": false,
      "inputs": [
        {
          "indexed": true,
          "internalType": "address",
          "name": "account",
          "type": "address"
        }
      ],
      "name": "Paused",
      "type": "event"
    },
    {
      "anonymous": false,
      "inputs": [
        {
          "indexed": true,
          "internalType": "bytes32",
          "name": "ethSignedMessageHash",
          "type": "bytes32"
        }
      ],
      "name": "Signature",
      "type": "event"
    },
    {
      "anonymous": false,
      "inputs": [
        {
          "indexed": true,
          "internalType": "address",
          "name": "account",
          "type": "address"
        }
      ],
      "name": "Unpaused",
      "type": "event"
    },
    {
      "stateMutability": "payable",
      "type": "fallback"
    },
    {
      "inputs": [],
      "name": "REWARD_AMOUNT",
      "outputs": [
        {
          "internalType": "uint256",
          "name": "",
          "type": "uint256"
        }
      ],
      "stateMutability": "view",
      "type": "function"
    },
    {
      "inputs": [
        {
          "internalType": "string[]",
          "name": "referralCodes",
          "type": "string[]"
        },
        {
          "internalType": "string",
          "name": "enteredReferralCode",
          "type": "string"
        },
        {
          "internalType": "address[]",
          "name": "recipients",
          "type": "address[]"
        },
        {
          "internalType": "address",
          "name": "referralOwner",
          "type": "address"
        },
        {
          "internalType": "bytes[]",
          "name": "signatures",
          "type": "bytes[]"
        }
      ],
      "name": "batchClaimReward",
      "outputs": [],
      "stateMutability": "nonpayable",
      "type": "function"
    },
    {
      "inputs": [],
      "name": "contractOwner",
      "outputs": [
        {
          "internalType": "address",
          "name": "",
          "type": "address"
        }
      ],
      "stateMutability": "view",
      "type": "function"
    },
    {
      "inputs": [],
      "name": "developerSafe",
      "outputs": [
        {
          "internalType": "address",
          "name": "",
          "type": "address"
        }
      ],
      "stateMutability": "view",
      "type": "function"
    },
    {
      "inputs": [],
      "name": "hdtToken",
      "outputs": [
        {
          "internalType": "contract IERC20",
          "name": "",
          "type": "address"
        }
      ],
      "stateMutability": "view",
      "type": "function"
    },
    {
      "inputs": [
        {
          "internalType": "string",
          "name": "referralCode",
          "type": "string"
        }
      ],
      "name": "isReferralProcessed",
      "outputs": [
        {
          "internalType": "bool",
          "name": "",
          "type": "bool"
        }
      ],
      "stateMutability": "view",
      "type": "function"
    },
    {
      "inputs": [],
      "name": "pause",
      "outputs": [],
      "stateMutability": "nonpayable",
      "type": "function"
    },
    {
      "inputs": [],
      "name": "paused",
      "outputs": [
        {
          "internalType": "bool",
          "name": "",
          "type": "bool"
        }
      ],
      "stateMutability": "view",
      "type": "function"
    },
    {
      "inputs": [
        {
          "internalType": "string",
          "name": "",
          "type": "string"
        }
      ],
      "name": "processedReferralCodes",
      "outputs": [
        {
          "internalType": "bool",
          "name": "",
          "type": "bool"
        }
      ],
      "stateMutability": "view",
      "type": "function"
    },
    {
      "inputs": [],
      "name": "trustedSigner",
      "outputs": [
        {
          "internalType": "address",
          "name": "",
          "type": "address"
        }
      ],
      "stateMutability": "view",
      "type": "function"
    },
    {
      "inputs": [],
      "name": "unpause",
      "outputs": [],
      "stateMutability": "nonpayable",
      "type": "function"
    },
    {
      "stateMutability": "payable",
      "type": "receive"
    }
  ],
  "bytecode": "0x608060405234801561001057600080fd5b5060405161133338038061133383398101604081905261002f9161009a565b600080546001600160a01b039485166001600160a01b031991821617909155600180549385169382169390931790925560028054919093169082161790915560038054909116331790556100dd565b80516001600160a01b038116811461009557600080fd5b919050565b6000806000606084860312156100af57600080fd5b6100b88461007e565b92506100c66020850161007e565b91506100d46040850161007e565b90509250925092565b611247806100ec6000396000f3fe6080604052600436106100a05760003560e01c80633f4ba83a116100645780633f4ba83a146102245780635c975abb146102395780638456cb5914610253578063ce606ee014610268578063cf84944214610288578063f74d5480146102b2576100f2565b80630bc5f7111461013a57806310fac7fc1461017757806317f864dd1461019957806339833fc5146101e45780633d8f65d214610204576100f2565b366100f25760405162461bcd60e51b815260206004820152601e60248201527f436f6e747261637420646f6573206e6f7420616363657074204574686572000060448201526064015b60405180910390fd5b60405162461bcd60e51b815260206004820152601e60248201527f436f6e747261637420646f6573206e6f7420616363657074204574686572000060448201526064016100e9565b34801561014657600080fd5b5060005461015a906001600160a01b031681565b6040516001600160a01b0390911681526020015b60405180910390f35b34801561018357600080fd5b50610197610192366004610e8b565b6102d2565b005b3480156101a557600080fd5b506101d46101b4366004610fb9565b805160208183018101805160048252928201919093012091525460ff1681565b604051901515815260200161016e565b3480156101f057600080fd5b506101d46101ff366004610fb9565b6108a2565b34801561021057600080fd5b5060015461015a906001600160a01b031681565b34801561023057600080fd5b506101976108cd565b34801561024557600080fd5b506005546101d49060ff1681565b34801561025f57600080fd5b506101976109a3565b34801561027457600080fd5b5060035461015a906001600160a01b031681565b34801561029457600080fd5b506102a4678ac7230489e8000081565b60405190815260200161016e565b3480156102be57600080fd5b5060025461015a906001600160a01b031681565b60055460ff161561031a5760405162461bcd60e51b815260206004820152601260248201527110dbdb9d1c9858dd081a5cc81c185d5cd95960721b60448201526064016100e9565b336001600160a01b038316146103875760405162461bcd60e51b815260206004820152602c60248201527f43616c6c6572206973206e6f7420746865206f776e6572206f6620746865207260448201526b6566657272616c20636f646560a01b60648201526084016100e9565b8451806103d65760405162461bcd60e51b815260206004820152601a60248201527f4e6f20726566657272616c20636f6465732070726f766964656400000000000060448201526064016100e9565b60648111156104275760405162461bcd60e51b815260206004820152601a60248201527f45786365656473206d6178696d756d2062617463682073697a6500000000000060448201526064016100e9565b8151811480156104375750835181145b6104835760405162461bcd60e51b815260206004820152601e60248201527f496e707574206172726179206c656e67746873206d757374206d61746368000060448201526064016100e9565b6000805b828110156106a95760008882815181106104a3576104a3610ff6565b6020026020010151905060008783815181106104c1576104c1610ff6565b6020026020010151905060008684815181106104df576104df610ff6565b602002602001015190506000838b848b6040516020016105029493929190611030565b6040516020818303038152906040528051906020012090506000610573826040517f19457468657265756d205369676e6564204d6573736167653a0a3332000000006020820152603c8101829052600090605c01604051602081830303815290604052805190602001209050919050565b6002549091506001600160a01b031661058c8285610a79565b6001600160a01b0316146105e25760405162461bcd60e51b815260206004820152601b60248201527f496e76616c6964207369676e617475726520666f7220636c61696d000000000060448201526064016100e9565b6004856040516105f29190611089565b9081526040519081900360200190205460ff161561064b5760405162461bcd60e51b815260206004820152601660248201527514995dd85c9908185b1c9958591e4818db185a5b595960521b60448201526064016100e9565b600160048660405161065d9190611089565b908152604051908190036020019020805491151560ff1990921691909117905561068f678ac7230489e80000886110bb565b9650505050505080806106a1906110ce565b915050610487565b506000546001546040516370a0823160e01b81526001600160a01b039182166004820152839291909116906370a0823190602401602060405180830381865afa1580156106fa573d6000803e3d6000fd5b505050506040513d601f19601f8201168201806040525081019061071e91906110e7565b10156107785760405162461bcd60e51b815260206004820152602360248201527f496e73756666696369656e742066756e647320696e20646576656c6f7065725360448201526261666560e81b60648201526084016100e9565b6000546001546040516323b872dd60e01b81526001600160a01b0391821660048201528682166024820152604481018490529116906323b872dd906064016020604051808303816000875af11580156107d5573d6000803e3d6000fd5b505050506040513d601f19601f820116820180604052508101906107f99190611100565b61083e5760405162461bcd60e51b815260206004820152601660248201527514995dd85c99081d1c985b9cd9995c8819985a5b195960521b60448201526064016100e9565b836001600160a01b0316866040516108569190611089565b60405180910390207ff3dcaa8fd79b5d60677aafc0e6a85bc9a34ba3780653eb09c0dda2f87f0d4ad1848a8960405161089193929190611166565b60405180910390a350505050505050565b60006004826040516108b49190611089565b9081526040519081900360200190205460ff1692915050565b6003546001600160a01b031633146109215760405162461bcd60e51b815260206004820152601760248201527621b0b63632b91034b9903737ba103a34329037bbb732b960491b60448201526064016100e9565b60055460ff1661096c5760405162461bcd60e51b815260206004820152601660248201527510dbdb9d1c9858dd081a5cc81b9bdd081c185d5cd95960521b60448201526064016100e9565b6005805460ff1916905560405133907f5db9ee0a495bf2e6ff9c91a7834c1ba4fdd244a5e8aa4e537bd38aeae4b073aa90600090a2565b6003546001600160a01b031633146109f75760405162461bcd60e51b815260206004820152601760248201527621b0b63632b91034b9903737ba103a34329037bbb732b960491b60448201526064016100e9565b60055460ff1615610a3f5760405162461bcd60e51b815260206004820152601260248201527110dbdb9d1c9858dd081a5cc81c185d5cd95960721b60448201526064016100e9565b6005805460ff1916600117905560405133907f62e78cea01bee320cd4e420270b5ea74000d11b0c9f74754ebdbfc544b05a25890600090a2565b600080600080610a898686610aa5565b925092509250610a998282610af2565b50909150505b92915050565b60008060008351604103610adf5760208401516040850151606086015160001a610ad188828585610baf565b955095509550505050610aeb565b50508151600091506002905b9250925092565b6000826003811115610b0657610b066111fb565b03610b0f575050565b6001826003811115610b2357610b236111fb565b03610b415760405163f645eedf60e01b815260040160405180910390fd5b6002826003811115610b5557610b556111fb565b03610b765760405163fce698f760e01b8152600481018290526024016100e9565b6003826003811115610b8a57610b8a6111fb565b03610bab576040516335e2f38360e21b8152600481018290526024016100e9565b5050565b600080807f7fffffffffffffffffffffffffffffff5d576e7357a4501ddfe92f46681b20a0841115610bea5750600091506003905082610c74565b604080516000808252602082018084528a905260ff891692820192909252606081018790526080810186905260019060a0016020604051602081039080840390855afa158015610c3e573d6000803e3d6000fd5b5050604051601f1901519150506001600160a01b038116610c6a57506000925060019150829050610c74565b9250600091508190505b9450945094915050565b634e487b7160e01b600052604160045260246000fd5b604051601f8201601f1916810167ffffffffffffffff81118282101715610cbd57610cbd610c7e565b604052919050565b600067ffffffffffffffff821115610cdf57610cdf610c7e565b5060051b60200190565b600067ffffffffffffffff831115610d0357610d03610c7e565b610d16601f8401601f1916602001610c94565b9050828152838383011115610d2a57600080fd5b828260208301376000602084830101529392505050565b600082601f830112610d5257600080fd5b610d6183833560208501610ce9565b9392505050565b80356001600160a01b0381168114610d7f57600080fd5b919050565b600082601f830112610d9557600080fd5b81356020610daa610da583610cc5565b610c94565b82815260059290921b84018101918181019086841115610dc957600080fd5b8286015b84811015610deb57610dde81610d68565b8352918301918301610dcd565b509695505050505050565b600082601f830112610e0757600080fd5b81356020610e17610da583610cc5565b82815260059290921b84018101918181019086841115610e3657600080fd5b8286015b84811015610deb57803567ffffffffffffffff811115610e5a5760008081fd5b8701603f81018913610e6c5760008081fd5b610e7d898683013560408401610ce9565b845250918301918301610e3a565b600080600080600060a08688031215610ea357600080fd5b853567ffffffffffffffff80821115610ebb57600080fd5b818801915088601f830112610ecf57600080fd5b81356020610edf610da583610cc5565b82815260059290921b8401810191818101908c841115610efe57600080fd5b8286015b84811015610f3657803586811115610f1a5760008081fd5b610f288f86838b0101610d41565b845250918301918301610f02565b5099505089013592505080821115610f4d57600080fd5b610f5989838a01610d41565b95506040880135915080821115610f6f57600080fd5b610f7b89838a01610d84565b9450610f8960608901610d68565b93506080880135915080821115610f9f57600080fd5b50610fac88828901610df6565b9150509295509295909350565b600060208284031215610fcb57600080fd5b813567ffffffffffffffff811115610fe257600080fd5b610fee84828501610d41565b949350505050565b634e487b7160e01b600052603260045260246000fd5b60005b8381101561102757818101518382015260200161100f565b50506000910152565b60008551611042818460208a0161100c565b855190830190611056818360208a0161100c565b6bffffffffffffffffffffffff19606096871b8116919092019081529390941b9093166014830152506028019392505050565b6000825161109b81846020870161100c565b9190910192915050565b634e487b7160e01b600052601160045260246000fd5b80820180821115610a9f57610a9f6110a5565b6000600182016110e0576110e06110a5565b5060010190565b6000602082840312156110f957600080fd5b5051919050565b60006020828403121561111257600080fd5b81518015158114610d6157600080fd5b600081518084526020808501945080840160005b8381101561115b5781516001600160a01b031687529582019590820190600101611136565b509495945050505050565b600060608201858352602060608185015281865180845260808601915060808160051b870101935082880160005b828110156111da57878603607f19018452815180518088526111bb81888a0189850161100c565b601f01601f191696909601850195509284019290840190600101611194565b505050505082810360408401526111f18185611122565b9695505050505050565b634e487b7160e01b600052602160045260246000fdfea2646970667358221220caa890a77e688f8079cd4e5f2f800b591ea78193831a76152ea58532183f2b6e64736f6c63430008140033",
  "linkReferences": {},
  "deployedLinkReferences": {}
}