{
  "_format": "hh-sol-artifact-1",
  "contractName": "ReferralProjectTwo",
  "sourceName": "contracts/referral/ReferralProjectTwo.sol",
  "abi": [
    {
      "inputs": [
        {
          "internalType": "address",
          "name": "_hdtToken",
          "type": "address"
        },
        {
          "internalType": "address",
          "name": "_developerSafe",
          "type": "address"
        },
        {
          "internalType": "address",
          "name": "_trustedSigner",
          "type": "address"
        }
      ],
      "stateMutability": "nonpayable",
      "type": "constructor"
    },
    {
      "inputs": [],
      "name": "ECDSAInvalidSignature",
      "type": "error"
    },
    {
      "inputs": [
        {
          "internalType": "uint256",
          "name": "length",
          "type": "uint256"
        }
      ],
      "name": "ECDSAInvalidSignatureLength",
      "type": "error"
    },
    {
      "inputs": [
        {
          "internalType": "bytes32",
          "name": "s",
          "type": "bytes32"
        }
      ],
      "name": "ECDSAInvalidSignatureS",
      "type": "error"
    },
    {
      "inputs": [],
      "name": "InvalidShortString",
      "type": "error"
    },
    {
      "inputs": [
        {
          "internalType": "string",
          "name": "str",
          "type": "string"
        }
      ],
      "name": "StringTooLong",
      "type": "error"
    },
    {
      "anonymous": false,
      "inputs": [],
      "name": "EIP712DomainChanged",
      "type": "event"
    },
    {
      "anonymous": false,
      "inputs": [
        {
          "indexed": true,
          "internalType": "string",
          "name": "referrerUID",
          "type": "string"
        },
        {
          "indexed": true,
          "internalType": "string",
          "name": "referredUID",
          "type": "string"
        },
        {
          "indexed": true,
          "internalType": "address",
          "name": "owner",
          "type": "address"
        },
        {
          "indexed": false,
          "internalType": "uint256",
          "name": "rewardAmount",
          "type": "uint256"
        }
      ],
      "name": "RewardClaimed",
      "type": "event"
    },
    {
      "inputs": [],
      "name": "REWARD_AMOUNT",
      "outputs": [
        {
          "internalType": "uint256",
          "name": "",
          "type": "uint256"
        }
      ],
      "stateMutability": "view",
      "type": "function"
    },
    {
      "inputs": [
        {
          "internalType": "string",
          "name": "referrerUID",
          "type": "string"
        },
        {
          "internalType": "string",
          "name": "referredUID",
          "type": "string"
        },
        {
          "internalType": "address",
          "name": "owner",
          "type": "address"
        },
        {
          "internalType": "bytes",
          "name": "signature",
          "type": "bytes"
        }
      ],
      "name": "claimReward",
      "outputs": [],
      "stateMutability": "nonpayable",
      "type": "function"
    },
    {
      "inputs": [],
      "name": "developerSafe",
      "outputs": [
        {
          "internalType": "address",
          "name": "",
          "type": "address"
        }
      ],
      "stateMutability": "view",
      "type": "function"
    },
    {
      "inputs": [],
      "name": "eip712Domain",
      "outputs": [
        {
          "internalType": "bytes1",
          "name": "fields",
          "type": "bytes1"
        },
        {
          "internalType": "string",
          "name": "name",
          "type": "string"
        },
        {
          "internalType": "string",
          "name": "version",
          "type": "string"
        },
        {
          "internalType": "uint256",
          "name": "chainId",
          "type": "uint256"
        },
        {
          "internalType": "address",
          "name": "verifyingContract",
          "type": "address"
        },
        {
          "internalType": "bytes32",
          "name": "salt",
          "type": "bytes32"
        },
        {
          "internalType": "uint256[]",
          "name": "extensions",
          "type": "uint256[]"
        }
      ],
      "stateMutability": "view",
      "type": "function"
    },
    {
      "inputs": [],
      "name": "hdtToken",
      "outputs": [
        {
          "internalType": "contract IERC20",
          "name": "",
          "type": "address"
        }
      ],
      "stateMutability": "view",
      "type": "function"
    },
    {
      "inputs": [
        {
          "internalType": "string",
          "name": "",
          "type": "string"
        }
      ],
      "name": "processedReferredUIDs",
      "outputs": [
        {
          "internalType": "bool",
          "name": "",
          "type": "bool"
        }
      ],
      "stateMutability": "view",
      "type": "function"
    },
    {
      "inputs": [],
      "name": "trustedSigner",
      "outputs": [
        {
          "internalType": "address",
          "name": "",
          "type": "address"
        }
      ],
      "stateMutability": "view",
      "type": "function"
    }
  ],
  "bytecode": "0x6101606040523480156200001257600080fd5b50604051620011293803806200112983398101604081905262000035916200020e565b604080518082018252600f81526e149959995c9c985b141c9bda9958dd608a1b602080830191909152825180840190935260018352603160f81b9083015290620000818260006200016c565b61012052620000928160016200016c565b61014052815160208084019190912060e052815190820120610100524660a0526200012060e05161010051604080517f8b73c3c69bb8fe3d512ecc4cf759cc79239f7b179b0ffacaa9a75d522b39400f60208201529081019290925260608201524660808201523060a082015260009060c00160405160208183030381529060405280519060200120905090565b60805250503060c052600280546001600160a01b039485166001600160a01b0319918216179091556003805493851693821693909317909255600480549190931691161790556200043e565b60006020835110156200018c576200018483620001a5565b90506200019f565b81620001998482620002fd565b5060ff90505b92915050565b600080829050601f81511115620001dc578260405163305a27a960e01b8152600401620001d39190620003c9565b60405180910390fd5b8051620001e98262000419565b179392505050565b80516001600160a01b03811681146200020957600080fd5b919050565b6000806000606084860312156200022457600080fd5b6200022f84620001f1565b92506200023f60208501620001f1565b91506200024f60408501620001f1565b90509250925092565b634e487b7160e01b600052604160045260246000fd5b600181811c908216806200028357607f821691505b602082108103620002a457634e487b7160e01b600052602260045260246000fd5b50919050565b601f821115620002f857600081815260208120601f850160051c81016020861015620002d35750805b601f850160051c820191505b81811015620002f457828155600101620002df565b5050505b505050565b81516001600160401b0381111562000319576200031962000258565b62000331816200032a84546200026e565b84620002aa565b602080601f831160018114620003695760008415620003505750858301515b600019600386901b1c1916600185901b178555620002f4565b600085815260208120601f198616915b828110156200039a5788860151825594840194600190910190840162000379565b5085821015620003b95787850151600019600388901b60f8161c191681555b5050505050600190811b01905550565b600060208083528351808285015260005b81811015620003f857858101830151858201604001528201620003da565b506000604082860101526040601f19601f8301168501019250505092915050565b80516020808301519190811015620002a45760001960209190910360031b1b16919050565b60805160a05160c05160e051610100516101205161014051610c906200049960003960006104a00152600061046e015260006106a801526000610680015260006105db015260006106050152600061062f0152610c906000f3fe608060405234801561001057600080fd5b506004361061007d5760003560e01c806384b0196e1161005b57806384b0196e14610103578063cf8494421461011e578063e6032a6e1461013b578063f74d54801461015057600080fd5b806303ee3b3a146100825780630bc5f711146100c55780633d8f65d2146100f0575b600080fd5b6100b06100903660046109ec565b805160208183018101805160058252928201919093012091525460ff1681565b60405190151581526020015b60405180910390f35b6002546100d8906001600160a01b031681565b6040516001600160a01b0390911681526020016100bc565b6003546100d8906001600160a01b031681565b61010b610163565b6040516100bc9796959493929190610a79565b61012d678ac7230489e8000081565b6040519081526020016100bc565b61014e610149366004610b0f565b6101a9565b005b6004546100d8906001600160a01b031681565b600060608060008060006060610177610467565b61017f610499565b60408051600080825260208201909252600f60f81b9b939a50919850469750309650945092509050565b6005836040516101b99190610bcc565b9081526040519081900360200190205460ff16156102175760405162461bcd60e51b815260206004820152601660248201527514995dd85c9908185b1c9958591e4818db185a5b595960521b60448201526064015b60405180910390fd5b8351602080860191909120845185830120604080517fefdb9ef1199eac99b04cdf5dd088380cd3227a5fb88b9b355360caec0b69d2d59481019490945283019190915260608201526001600160a01b038316608082015260009060a0016040516020818303038152906040528051906020012090506000610297826104c6565b905060006102a582856104f9565b6004549091506001600160a01b038083169116146102f95760405162461bcd60e51b8152602060048201526011602482015270496e76616c6964207369676e617475726560781b604482015260640161020e565b600160058760405161030b9190610bcc565b908152604051908190036020018120805492151560ff19909316929092179091556002546003546323b872dd60e01b83526001600160a01b0390811660048401528781166024840152678ac7230489e80000604484015216906323b872dd906064016020604051808303816000875af115801561038c573d6000803e3d6000fd5b505050506040513d601f19601f820116820180604052508101906103b09190610be8565b6103ee5760405162461bcd60e51b815260206004820152600f60248201526e151c985b9cd9995c8819985a5b1959608a1b604482015260640161020e565b846001600160a01b0316866040516104069190610bcc565b60405180910390208860405161041c9190610bcc565b604051908190038120678ac7230489e800008252907f73dee5d3e91c9d7161d5c9b2761f7e6e3057a199cc85db6c8b21f7878d1cc3129060200160405180910390a450505050505050565b60606104947f00000000000000000000000000000000000000000000000000000000000000006000610523565b905090565b60606104947f00000000000000000000000000000000000000000000000000000000000000006001610523565b60006104f36104d36105ce565b8360405161190160f01b8152600281019290925260228201526042902090565b92915050565b60008060008061050986866106f9565b9250925092506105198282610746565b5090949350505050565b606060ff831461053d5761053683610803565b90506104f3565b81805461054990610c0a565b80601f016020809104026020016040519081016040528092919081815260200182805461057590610c0a565b80156105c25780601f10610597576101008083540402835291602001916105c2565b820191906000526020600020905b8154815290600101906020018083116105a557829003601f168201915b505050505090506104f3565b6000306001600160a01b037f00000000000000000000000000000000000000000000000000000000000000001614801561062757507f000000000000000000000000000000000000000000000000000000000000000046145b1561065157507f000000000000000000000000000000000000000000000000000000000000000090565b610494604080517f8b73c3c69bb8fe3d512ecc4cf759cc79239f7b179b0ffacaa9a75d522b39400f60208201527f0000000000000000000000000000000000000000000000000000000000000000918101919091527f000000000000000000000000000000000000000000000000000000000000000060608201524660808201523060a082015260009060c00160405160208183030381529060405280519060200120905090565b600080600083516041036107335760208401516040850151606086015160001a61072588828585610842565b95509550955050505061073f565b50508151600091506002905b9250925092565b600082600381111561075a5761075a610c44565b03610763575050565b600182600381111561077757610777610c44565b036107955760405163f645eedf60e01b815260040160405180910390fd5b60028260038111156107a9576107a9610c44565b036107ca5760405163fce698f760e01b81526004810182905260240161020e565b60038260038111156107de576107de610c44565b036107ff576040516335e2f38360e21b81526004810182905260240161020e565b5050565b6060600061081083610911565b604080516020808252818301909252919250600091906020820181803683375050509182525060208101929092525090565b600080807f7fffffffffffffffffffffffffffffff5d576e7357a4501ddfe92f46681b20a084111561087d5750600091506003905082610907565b604080516000808252602082018084528a905260ff891692820192909252606081018790526080810186905260019060a0016020604051602081039080840390855afa1580156108d1573d6000803e3d6000fd5b5050604051601f1901519150506001600160a01b0381166108fd57506000925060019150829050610907565b9250600091508190505b9450945094915050565b600060ff8216601f8111156104f357604051632cd44ac360e21b815260040160405180910390fd5b634e487b7160e01b600052604160045260246000fd5b600067ffffffffffffffff8084111561096a5761096a610939565b604051601f8501601f19908116603f0116810190828211818310171561099257610992610939565b816040528093508581528686860111156109ab57600080fd5b858560208301376000602087830101525050509392505050565b600082601f8301126109d657600080fd5b6109e58383356020850161094f565b9392505050565b6000602082840312156109fe57600080fd5b813567ffffffffffffffff811115610a1557600080fd5b610a21848285016109c5565b949350505050565b60005b83811015610a44578181015183820152602001610a2c565b50506000910152565b60008151808452610a65816020860160208601610a29565b601f01601f19169290920160200192915050565b60ff60f81b881681526000602060e081840152610a9960e084018a610a4d565b8381036040850152610aab818a610a4d565b606085018990526001600160a01b038816608086015260a0850187905284810360c0860152855180825283870192509083019060005b81811015610afd57835183529284019291840191600101610ae1565b50909c9b505050505050505050505050565b60008060008060808587031215610b2557600080fd5b843567ffffffffffffffff80821115610b3d57600080fd5b610b49888389016109c5565b95506020870135915080821115610b5f57600080fd5b610b6b888389016109c5565b9450604087013591506001600160a01b0382168214610b8957600080fd5b90925060608601359080821115610b9f57600080fd5b508501601f81018713610bb157600080fd5b610bc08782356020840161094f565b91505092959194509250565b60008251610bde818460208701610a29565b9190910192915050565b600060208284031215610bfa57600080fd5b815180151581146109e557600080fd5b600181811c90821680610c1e57607f821691505b602082108103610c3e57634e487b7160e01b600052602260045260246000fd5b50919050565b634e487b7160e01b600052602160045260246000fdfea26469706673582212202c2237b86455a7f5660337bb6dadbcc7d24e285203fcab1617cf5eb25350abad64736f6c63430008140033",
  "linkReferences": {},
  "deployedLinkReferences": {}
}