{
  "_format": "hh-sol-artifact-1",
  "contractName": "ReferralRewards",
  "sourceName": "contracts/referral/ReferralLock.sol",
  "abi": [
    {
      "inputs": [
        {
          "internalType": "address",
          "name": "_hdt",
          "type": "address"
        }
      ],
      "stateMutability": "nonpayable",
      "type": "constructor"
    },
    {
      "anonymous": false,
      "inputs": [
        {
          "indexed": false,
          "internalType": "address",
          "name": "referrer",
          "type": "address"
        },
        {
          "indexed": false,
          "internalType": "uint256",
          "name": "amount",
          "type": "uint256"
        }
      ],
      "name": "ReferralRewarded",
      "type": "event"
    },
    {
      "inputs": [],
      "name": "HDT",
      "outputs": [
        {
          "internalType": "contract IERC20",
          "name": "",
          "type": "address"
        }
      ],
      "stateMutability": "view",
      "type": "function"
    },
    {
      "inputs": [],
      "name": "LOCK_DURATION",
      "outputs": [
        {
          "internalType": "uint256",
          "name": "",
          "type": "uint256"
        }
      ],
      "stateMutability": "view",
      "type": "function"
    },
    {
      "inputs": [],
      "name": "claimReward",
      "outputs": [],
      "stateMutability": "nonpayable",
      "type": "function"
    },
    {
      "inputs": [
        {
          "internalType": "address",
          "name": "",
          "type": "address"
        }
      ],
      "name": "rewards",
      "outputs": [
        {
          "internalType": "uint256",
          "name": "amount",
          "type": "uint256"
        },
        {
          "internalType": "uint256",
          "name": "unlockTime",
          "type": "uint256"
        }
      ],
      "stateMutability": "view",
      "type": "function"
    }
  ],
  "bytecode": "0x608060405234801561001057600080fd5b5060405161034838038061034883398101604081905261002f91610054565b600080546001600160a01b0319166001600160a01b0392909216919091179055610084565b60006020828403121561006657600080fd5b81516001600160a01b038116811461007d57600080fd5b9392505050565b6102b5806100936000396000f3fe608060405234801561001057600080fd5b506004361061004c5760003560e01c80630700037d14610051578063485d38341461009257806356b1ddbb146100aa578063b88a802f146100d5575b600080fd5b61007861005f36600461022d565b6001602081905260009182526040909120805491015482565b604080519283526020830191909152015b60405180910390f35b61009c62093a8081565b604051908152602001610089565b6000546100bd906001600160a01b031681565b6040516001600160a01b039091168152602001610089565b6100dd6100df565b005b336000908152600160208181526040928390208351808501909452805484529091015490820181905242101561015c5760405162461bcd60e51b815260206004820152601860248201527f5265776172647320617265207374696c6c206c6f636b6564000000000000000060448201526064015b60405180910390fd5b80516101a05760405162461bcd60e51b81526020600482015260136024820152724e6f207265776172647320746f20636c61696d60681b6044820152606401610153565b3360008181526001602052604080822082905590548351915163a9059cbb60e01b8152600481019390935260248301919091526001600160a01b03169063a9059cbb906044016020604051808303816000875af1158015610205573d6000803e3d6000fd5b505050506040513d601f19601f82011682018060405250810190610229919061025d565b5050565b60006020828403121561023f57600080fd5b81356001600160a01b038116811461025657600080fd5b9392505050565b60006020828403121561026f57600080fd5b8151801515811461025657600080fdfea2646970667358221220b0e1272bca3c60f97c34191984d90dd1bfe733ec0c050d426747052bb064f5cd64736f6c63430008140033",
  "linkReferences": {},
  "deployedLinkReferences": {}
}