{
  "_format": "hh-sol-artifact-1",
  "contractName": "HumbleDonations",
  "sourceName": "contracts/HumbleDonations.sol",
  "abi": [
    {
      "inputs": [],
      "stateMutability": "nonpayable",
      "type": "constructor"
    },
    {
      "inputs": [
        {
          "internalType": "address",
          "name": "target",
          "type": "address"
        }
      ],
      "name": "AddressEmptyCode",
      "type": "error"
    },
    {
      "inputs": [
        {
          "internalType": "address",
          "name": "account",
          "type": "address"
        }
      ],
      "name": "AddressInsufficientBalance",
      "type": "error"
    },
    {
      "inputs": [
        {
          "internalType": "address",
          "name": "implementation",
          "type": "address"
        }
      ],
      "name": "ERC1967InvalidImplementation",
      "type": "error"
    },
    {
      "inputs": [],
      "name": "ERC1967NonPayable",
      "type": "error"
    },
    {
      "inputs": [
        {
          "internalType": "address",
          "name": "sender",
          "type": "address"
        },
        {
          "internalType": "uint256",
          "name": "tokenId",
          "type": "uint256"
        },
        {
          "internalType": "address",
          "name": "owner",
          "type": "address"
        }
      ],
      "name": "ERC721IncorrectOwner",
      "type": "error"
    },
    {
      "inputs": [
        {
          "internalType": "address",
          "name": "operator",
          "type": "address"
        },
        {
          "internalType": "uint256",
          "name": "tokenId",
          "type": "uint256"
        }
      ],
      "name": "ERC721InsufficientApproval",
      "type": "error"
    },
    {
      "inputs": [
        {
          "internalType": "address",
          "name": "approver",
          "type": "address"
        }
      ],
      "name": "ERC721InvalidApprover",
      "type": "error"
    },
    {
      "inputs": [
        {
          "internalType": "address",
          "name": "operator",
          "type": "address"
        }
      ],
      "name": "ERC721InvalidOperator",
      "type": "error"
    },
    {
      "inputs": [
        {
          "internalType": "address",
          "name": "owner",
          "type": "address"
        }
      ],
      "name": "ERC721InvalidOwner",
      "type": "error"
    },
    {
      "inputs": [
        {
          "internalType": "address",
          "name": "receiver",
          "type": "address"
        }
      ],
      "name": "ERC721InvalidReceiver",
      "type": "error"
    },
    {
      "inputs": [
        {
          "internalType": "address",
          "name": "sender",
          "type": "address"
        }
      ],
      "name": "ERC721InvalidSender",
      "type": "error"
    },
    {
      "inputs": [
        {
          "internalType": "uint256",
          "name": "tokenId",
          "type": "uint256"
        }
      ],
      "name": "ERC721NonexistentToken",
      "type": "error"
    },
    {
      "inputs": [],
      "name": "FailedInnerCall",
      "type": "error"
    },
    {
      "inputs": [],
      "name": "InvalidInitialization",
      "type": "error"
    },
    {
      "inputs": [],
      "name": "NotInitializing",
      "type": "error"
    },
    {
      "inputs": [
        {
          "internalType": "address",
          "name": "owner",
          "type": "address"
        }
      ],
      "name": "OwnableInvalidOwner",
      "type": "error"
    },
    {
      "inputs": [
        {
          "internalType": "address",
          "name": "account",
          "type": "address"
        }
      ],
      "name": "OwnableUnauthorizedAccount",
      "type": "error"
    },
    {
      "inputs": [],
      "name": "ReentrancyGuardReentrantCall",
      "type": "error"
    },
    {
      "inputs": [
        {
          "internalType": "address",
          "name": "token",
          "type": "address"
        }
      ],
      "name": "SafeERC20FailedOperation",
      "type": "error"
    },
    {
      "inputs": [],
      "name": "UUPSUnauthorizedCallContext",
      "type": "error"
    },
    {
      "inputs": [
        {
          "internalType": "bytes32",
          "name": "slot",
          "type": "bytes32"
        }
      ],
      "name": "UUPSUnsupportedProxiableUUID",
      "type": "error"
    },
    {
      "anonymous": false,
      "inputs": [
        {
          "indexed": true,
          "internalType": "address",
          "name": "owner",
          "type": "address"
        },
        {
          "indexed": true,
          "internalType": "address",
          "name": "approved",
          "type": "address"
        },
        {
          "indexed": true,
          "internalType": "uint256",
          "name": "tokenId",
          "type": "uint256"
        }
      ],
      "name": "Approval",
      "type": "event"
    },
    {
      "anonymous": false,
      "inputs": [
        {
          "indexed": true,
          "internalType": "address",
          "name": "owner",
          "type": "address"
        },
        {
          "indexed": true,
          "internalType": "address",
          "name": "operator",
          "type": "address"
        },
        {
          "indexed": false,
          "internalType": "bool",
          "name": "approved",
          "type": "bool"
        }
      ],
      "name": "ApprovalForAll",
      "type": "event"
    },
    {
      "anonymous": false,
      "inputs": [
        {
          "indexed": false,
          "internalType": "uint256",
          "name": "_fromTokenId",
          "type": "uint256"
        },
        {
          "indexed": false,
          "internalType": "uint256",
          "name": "_toTokenId",
          "type": "uint256"
        }
      ],
      "name": "BatchMetadataUpdate",
      "type": "event"
    },
    {
      "anonymous": false,
      "inputs": [
        {
          "indexed": false,
          "internalType": "string",
          "name": "message",
          "type": "string"
        },
        {
          "indexed": false,
          "internalType": "uint256",
          "name": "value",
          "type": "uint256"
        }
      ],
      "name": "DebugLog",
      "type": "event"
    },
    {
      "anonymous": false,
      "inputs": [
        {
          "indexed": true,
          "internalType": "uint256",
          "name": "tokenId",
          "type": "uint256"
        },
        {
          "indexed": true,
          "internalType": "address",
          "name": "donor",
          "type": "address"
        },
        {
          "indexed": false,
          "internalType": "address",
          "name": "erc20Token",
          "type": "address"
        },
        {
          "indexed": false,
          "internalType": "uint256",
          "name": "amount",
          "type": "uint256"
        },
        {
          "indexed": false,
          "internalType": "uint256",
          "name": "timestamp",
          "type": "uint256"
        }
      ],
      "name": "DonationMade",
      "type": "event"
    },
    {
      "anonymous": false,
      "inputs": [
        {
          "indexed": false,
          "internalType": "uint64",
          "name": "version",
          "type": "uint64"
        }
      ],
      "name": "Initialized",
      "type": "event"
    },
    {
      "anonymous": false,
      "inputs": [
        {
          "indexed": false,
          "internalType": "uint256",
          "name": "_tokenId",
          "type": "uint256"
        }
      ],
      "name": "MetadataUpdate",
      "type": "event"
    },
    {
      "anonymous": false,
      "inputs": [
        {
          "indexed": true,
          "internalType": "address",
          "name": "previousOwner",
          "type": "address"
        },
        {
          "indexed": true,
          "internalType": "address",
          "name": "newOwner",
          "type": "address"
        }
      ],
      "name": "OwnershipTransferred",
      "type": "event"
    },
    {
      "anonymous": false,
      "inputs": [
        {
          "indexed": true,
          "internalType": "uint256",
          "name": "tokenId",
          "type": "uint256"
        },
        {
          "indexed": true,
          "internalType": "address",
          "name": "owner",
          "type": "address"
        },
        {
          "indexed": false,
          "internalType": "string",
          "name": "projectTitle",
          "type": "string"
        },
        {
          "indexed": false,
          "internalType": "string",
          "name": "uri",
          "type": "string"
        },
        {
          "indexed": false,
          "internalType": "uint256",
          "name": "timestamp",
          "type": "uint256"
        }
      ],
      "name": "ProjectCreated",
      "type": "event"
    },
    {
      "anonymous": false,
      "inputs": [
        {
          "indexed": true,
          "internalType": "uint256",
          "name": "tokenId",
          "type": "uint256"
        },
        {
          "indexed": true,
          "internalType": "address",
          "name": "previousOwner",
          "type": "address"
        },
        {
          "indexed": true,
          "internalType": "address",
          "name": "burnAddress",
          "type": "address"
        },
        {
          "indexed": false,
          "internalType": "uint256",
          "name": "timestamp",
          "type": "uint256"
        }
      ],
      "name": "ProjectDeleted",
      "type": "event"
    },
    {
      "anonymous": false,
      "inputs": [
        {
          "indexed": true,
          "internalType": "address",
          "name": "from",
          "type": "address"
        },
        {
          "indexed": true,
          "internalType": "address",
          "name": "to",
          "type": "address"
        },
        {
          "indexed": true,
          "internalType": "uint256",
          "name": "tokenId",
          "type": "uint256"
        }
      ],
      "name": "Transfer",
      "type": "event"
    },
    {
      "anonymous": false,
      "inputs": [
        {
          "indexed": true,
          "internalType": "address",
          "name": "implementation",
          "type": "address"
        }
      ],
      "name": "Upgraded",
      "type": "event"
    },
    {
      "inputs": [],
      "name": "HDT",
      "outputs": [
        {
          "internalType": "address",
          "name": "",
          "type": "address"
        }
      ],
      "stateMutability": "view",
      "type": "function"
    },
    {
      "inputs": [],
      "name": "UPGRADE_INTERFACE_VERSION",
      "outputs": [
        {
          "internalType": "string",
          "name": "",
          "type": "string"
        }
      ],
      "stateMutability": "view",
      "type": "function"
    },
    {
      "inputs": [],
      "name": "WETH",
      "outputs": [
        {
          "internalType": "address",
          "name": "",
          "type": "address"
        }
      ],
      "stateMutability": "view",
      "type": "function"
    },
    {
      "inputs": [
        {
          "internalType": "address",
          "name": "to",
          "type": "address"
        },
        {
          "internalType": "uint256",
          "name": "tokenId",
          "type": "uint256"
        }
      ],
      "name": "approve",
      "outputs": [],
      "stateMutability": "nonpayable",
      "type": "function"
    },
    {
      "inputs": [
        {
          "internalType": "address",
          "name": "owner",
          "type": "address"
        }
      ],
      "name": "balanceOf",
      "outputs": [
        {
          "internalType": "uint256",
          "name": "",
          "type": "uint256"
        }
      ],
      "stateMutability": "view",
      "type": "function"
    },
    {
      "inputs": [
        {
          "internalType": "uint256",
          "name": "tokenId",
          "type": "uint256"
        }
      ],
      "name": "burn",
      "outputs": [],
      "stateMutability": "nonpayable",
      "type": "function"
    },
    {
      "inputs": [
        {
          "internalType": "uint256",
          "name": "tokenId",
          "type": "uint256"
        }
      ],
      "name": "burnToken",
      "outputs": [],
      "stateMutability": "nonpayable",
      "type": "function"
    },
    {
      "inputs": [
        {
          "internalType": "uint256",
          "name": "tokenId",
          "type": "uint256"
        },
        {
          "internalType": "address",
          "name": "erc20Token",
          "type": "address"
        },
        {
          "internalType": "uint256",
          "name": "amount",
          "type": "uint256"
        },
        {
          "internalType": "uint256",
          "name": "slippageWETH",
          "type": "uint256"
        },
        {
          "internalType": "uint256",
          "name": "slippageHDT",
          "type": "uint256"
        },
        {
          "internalType": "bytes32[]",
          "name": "proof",
          "type": "bytes32[]"
        },
        {
          "internalType": "uint24",
          "name": "fee",
          "type": "uint24"
        }
      ],
      "name": "donate",
      "outputs": [],
      "stateMutability": "payable",
      "type": "function"
    },
    {
      "inputs": [
        {
          "internalType": "uint256",
          "name": "tokenId",
          "type": "uint256"
        }
      ],
      "name": "getApproved",
      "outputs": [
        {
          "internalType": "address",
          "name": "",
          "type": "address"
        }
      ],
      "stateMutability": "view",
      "type": "function"
    },
    {
      "inputs": [],
      "name": "getHDT",
      "outputs": [
        {
          "internalType": "address",
          "name": "",
          "type": "address"
        }
      ],
      "stateMutability": "view",
      "type": "function"
    },
    {
      "inputs": [
        {
          "internalType": "string",
          "name": "projectTitle",
          "type": "string"
        }
      ],
      "name": "getOwnerByProjectTitle",
      "outputs": [
        {
          "internalType": "address",
          "name": "",
          "type": "address"
        }
      ],
      "stateMutability": "view",
      "type": "function"
    },
    {
      "inputs": [],
      "name": "getPercentage",
      "outputs": [
        {
          "internalType": "uint256",
          "name": "",
          "type": "uint256"
        }
      ],
      "stateMutability": "view",
      "type": "function"
    },
    {
      "inputs": [
        {
          "internalType": "string",
          "name": "projectTitle",
          "type": "string"
        }
      ],
      "name": "getTokenId",
      "outputs": [
        {
          "internalType": "uint256",
          "name": "",
          "type": "uint256"
        }
      ],
      "stateMutability": "view",
      "type": "function"
    },
    {
      "inputs": [],
      "name": "getUpgradeCount",
      "outputs": [
        {
          "internalType": "uint256",
          "name": "",
          "type": "uint256"
        }
      ],
      "stateMutability": "view",
      "type": "function"
    },
    {
      "inputs": [],
      "name": "getWETH",
      "outputs": [
        {
          "internalType": "address",
          "name": "",
          "type": "address"
        }
      ],
      "stateMutability": "view",
      "type": "function"
    },
    {
      "inputs": [],
      "name": "get_mintRate",
      "outputs": [
        {
          "internalType": "uint256",
          "name": "",
          "type": "uint256"
        }
      ],
      "stateMutability": "view",
      "type": "function"
    },
    {
      "inputs": [
        {
          "internalType": "address",
          "name": "initialOwner",
          "type": "address"
        }
      ],
      "name": "initialize",
      "outputs": [],
      "stateMutability": "nonpayable",
      "type": "function"
    },
    {
      "inputs": [
        {
          "internalType": "address",
          "name": "owner",
          "type": "address"
        },
        {
          "internalType": "address",
          "name": "operator",
          "type": "address"
        }
      ],
      "name": "isApprovedForAll",
      "outputs": [
        {
          "internalType": "bool",
          "name": "",
          "type": "bool"
        }
      ],
      "stateMutability": "view",
      "type": "function"
    },
    {
      "inputs": [
        {
          "internalType": "address",
          "name": "erc20Token",
          "type": "address"
        },
        {
          "internalType": "bytes32[]",
          "name": "proof",
          "type": "bytes32[]"
        }
      ],
      "name": "isTokenWhitelisted",
      "outputs": [
        {
          "internalType": "bool",
          "name": "",
          "type": "bool"
        }
      ],
      "stateMutability": "view",
      "type": "function"
    },
    {
      "inputs": [],
      "name": "latestTokenId",
      "outputs": [
        {
          "internalType": "uint256",
          "name": "",
          "type": "uint256"
        }
      ],
      "stateMutability": "view",
      "type": "function"
    },
    {
      "inputs": [],
      "name": "merkleRoot",
      "outputs": [
        {
          "internalType": "bytes32",
          "name": "",
          "type": "bytes32"
        }
      ],
      "stateMutability": "view",
      "type": "function"
    },
    {
      "inputs": [],
      "name": "mintRate",
      "outputs": [
        {
          "internalType": "uint256",
          "name": "",
          "type": "uint256"
        }
      ],
      "stateMutability": "view",
      "type": "function"
    },
    {
      "inputs": [],
      "name": "name",
      "outputs": [
        {
          "internalType": "string",
          "name": "",
          "type": "string"
        }
      ],
      "stateMutability": "view",
      "type": "function"
    },
    {
      "inputs": [],
      "name": "owner",
      "outputs": [
        {
          "internalType": "address",
          "name": "",
          "type": "address"
        }
      ],
      "stateMutability": "view",
      "type": "function"
    },
    {
      "inputs": [
        {
          "internalType": "uint256",
          "name": "tokenId",
          "type": "uint256"
        }
      ],
      "name": "ownerOf",
      "outputs": [
        {
          "internalType": "address",
          "name": "",
          "type": "address"
        }
      ],
      "stateMutability": "view",
      "type": "function"
    },
    {
      "inputs": [],
      "name": "poolFee",
      "outputs": [
        {
          "internalType": "uint24",
          "name": "",
          "type": "uint24"
        }
      ],
      "stateMutability": "view",
      "type": "function"
    },
    {
      "inputs": [
        {
          "internalType": "string",
          "name": "",
          "type": "string"
        }
      ],
      "name": "projectTitleToTokenId",
      "outputs": [
        {
          "internalType": "uint256",
          "name": "",
          "type": "uint256"
        }
      ],
      "stateMutability": "view",
      "type": "function"
    },
    {
      "inputs": [],
      "name": "proxiableUUID",
      "outputs": [
        {
          "internalType": "bytes32",
          "name": "",
          "type": "bytes32"
        }
      ],
      "stateMutability": "view",
      "type": "function"
    },
    {
      "inputs": [],
      "name": "renounceOwnership",
      "outputs": [],
      "stateMutability": "nonpayable",
      "type": "function"
    },
    {
      "inputs": [
        {
          "internalType": "address",
          "name": "to",
          "type": "address"
        },
        {
          "internalType": "string",
          "name": "uri",
          "type": "string"
        },
        {
          "internalType": "string",
          "name": "projectTitle",
          "type": "string"
        }
      ],
      "name": "safeMint",
      "outputs": [],
      "stateMutability": "payable",
      "type": "function"
    },
    {
      "inputs": [
        {
          "internalType": "address",
          "name": "from",
          "type": "address"
        },
        {
          "internalType": "address",
          "name": "to",
          "type": "address"
        },
        {
          "internalType": "uint256",
          "name": "tokenId",
          "type": "uint256"
        }
      ],
      "name": "safeTransferFrom",
      "outputs": [],
      "stateMutability": "nonpayable",
      "type": "function"
    },
    {
      "inputs": [
        {
          "internalType": "address",
          "name": "from",
          "type": "address"
        },
        {
          "internalType": "address",
          "name": "to",
          "type": "address"
        },
        {
          "internalType": "uint256",
          "name": "tokenId",
          "type": "uint256"
        },
        {
          "internalType": "bytes",
          "name": "data",
          "type": "bytes"
        }
      ],
      "name": "safeTransferFrom",
      "outputs": [],
      "stateMutability": "nonpayable",
      "type": "function"
    },
    {
      "inputs": [
        {
          "internalType": "address",
          "name": "operator",
          "type": "address"
        },
        {
          "internalType": "bool",
          "name": "approved",
          "type": "bool"
        }
      ],
      "name": "setApprovalForAll",
      "outputs": [],
      "stateMutability": "nonpayable",
      "type": "function"
    },
    {
      "inputs": [
        {
          "internalType": "address",
          "name": "_HDT",
          "type": "address"
        }
      ],
      "name": "setHDT",
      "outputs": [],
      "stateMutability": "nonpayable",
      "type": "function"
    },
    {
      "inputs": [
        {
          "internalType": "bytes32",
          "name": "_merkleRoot",
          "type": "bytes32"
        }
      ],
      "name": "setMerkleRoot",
      "outputs": [],
      "stateMutability": "nonpayable",
      "type": "function"
    },
    {
      "inputs": [
        {
          "internalType": "uint256",
          "name": "tax",
          "type": "uint256"
        }
      ],
      "name": "setTaxPercentage",
      "outputs": [],
      "stateMutability": "nonpayable",
      "type": "function"
    },
    {
      "inputs": [
        {
          "internalType": "address",
          "name": "_WETH",
          "type": "address"
        }
      ],
      "name": "setWETH",
      "outputs": [],
      "stateMutability": "nonpayable",
      "type": "function"
    },
    {
      "inputs": [
        {
          "internalType": "uint256",
          "name": "_mintRate",
          "type": "uint256"
        }
      ],
      "name": "set_mintRate",
      "outputs": [],
      "stateMutability": "nonpayable",
      "type": "function"
    },
    {
      "inputs": [
        {
          "internalType": "bytes4",
          "name": "interfaceId",
          "type": "bytes4"
        }
      ],
      "name": "supportsInterface",
      "outputs": [
        {
          "internalType": "bool",
          "name": "",
          "type": "bool"
        }
      ],
      "stateMutability": "view",
      "type": "function"
    },
    {
      "inputs": [],
      "name": "swapRouter",
      "outputs": [
        {
          "internalType": "contract IV3SwapRouter",
          "name": "",
          "type": "address"
        }
      ],
      "stateMutability": "view",
      "type": "function"
    },
    {
      "inputs": [],
      "name": "symbol",
      "outputs": [
        {
          "internalType": "string",
          "name": "",
          "type": "string"
        }
      ],
      "stateMutability": "view",
      "type": "function"
    },
    {
      "inputs": [],
      "name": "taxPercentage",
      "outputs": [
        {
          "internalType": "uint256",
          "name": "",
          "type": "uint256"
        }
      ],
      "stateMutability": "view",
      "type": "function"
    },
    {
      "inputs": [
        {
          "internalType": "uint256",
          "name": "",
          "type": "uint256"
        }
      ],
      "name": "tokenIdToProjectTitle",
      "outputs": [
        {
          "internalType": "string",
          "name": "",
          "type": "string"
        }
      ],
      "stateMutability": "view",
      "type": "function"
    },
    {
      "inputs": [
        {
          "internalType": "uint256",
          "name": "tokenId",
          "type": "uint256"
        }
      ],
      "name": "tokenURI",
      "outputs": [
        {
          "internalType": "string",
          "name": "",
          "type": "string"
        }
      ],
      "stateMutability": "view",
      "type": "function"
    },
    {
      "inputs": [
        {
          "internalType": "address",
          "name": "from",
          "type": "address"
        },
        {
          "internalType": "address",
          "name": "to",
          "type": "address"
        },
        {
          "internalType": "uint256",
          "name": "tokenId",
          "type": "uint256"
        }
      ],
      "name": "transferFrom",
      "outputs": [],
      "stateMutability": "nonpayable",
      "type": "function"
    },
    {
      "inputs": [
        {
          "internalType": "address",
          "name": "newOwner",
          "type": "address"
        }
      ],
      "name": "transferOwnership",
      "outputs": [],
      "stateMutability": "nonpayable",
      "type": "function"
    },
    {
      "inputs": [],
      "name": "upgradeCount",
      "outputs": [
        {
          "internalType": "uint256",
          "name": "",
          "type": "uint256"
        }
      ],
      "stateMutability": "view",
      "type": "function"
    },
    {
      "inputs": [
        {
          "internalType": "address",
          "name": "newImplementation",
          "type": "address"
        },
        {
          "internalType": "bytes",
          "name": "data",
          "type": "bytes"
        }
      ],
      "name": "upgradeToAndCall",
      "outputs": [],
      "stateMutability": "payable",
      "type": "function"
    },
    {
      "inputs": [],
      "name": "withdraw",
      "outputs": [],
      "stateMutability": "nonpayable",
      "type": "function"
    },
    {
      "inputs": [
        {
          "internalType": "address",
          "name": "erc20Token",
          "type": "address"
        },
        {
          "internalType": "uint256",
          "name": "amount",
          "type": "uint256"
        }
      ],
      "name": "withdrawToken",
      "outputs": [],
      "stateMutability": "nonpayable",
      "type": "function"
    }
  ],
  "bytecode": "0x60c06040523060805273e67701aac6d40d34c43367d90fdeae0095dc28ba60a0523480156200002d57600080fd5b50620000386200003e565b620000f2565b7ff0c57e16840df040f15088dc2f81fe391c3923bec73e23a9662efc9c229c6a00805468010000000000000000900460ff16156200008f5760405163f92ee8a960e01b815260040160405180910390fd5b80546001600160401b0390811614620000ef5780546001600160401b0319166001600160401b0390811782556040519081527fc7f505b2f371ae2175ee4913f4499e1f2633a7b5936321eed1cdaeb6115181d29060200160405180910390a15b50565b60805160a051613e0d62000150600039600081816107b6015281816121c5015281816122bb0152818161238901528181612496015281816125950152612617015260008181611ddb01528181611e040152611f5d0152613e0d6000f3fe6080604052600436106102c95760003560e01c80638c0e834911610175578063ae7b6d16116100dc578063ca0dcf1611610095578063e8ba1dff1161006f578063e8ba1dff1461089a578063e985e9c5146108af578063eca81d42146108cf578063f2fde38b146108e257600080fd5b8063ca0dcf161461082e578063cae5f11e14610844578063cd99b0101461086257600080fd5b8063ae7b6d161461076e578063b88d4fde14610784578063c31c9c07146107a4578063c4128b6d146107d8578063c4d66de8146107ee578063c87b56dd1461080e57600080fd5b80639e281a981161012e5780639e281a981461069d5780639f4a7c10146106bd578063a01d3712146106dd578063a22cb465146106fd578063ad3cb1cc1461071d578063ad5c46481461074e57600080fd5b80638c0e8349146105e35780638da5cb5b146105f857806391f7e39714610635578063930baae81461065557806395a93a661461067557806395d89b411461068857600080fd5b80634744f619116102345780636352211e116101ed57806370a08231116101c757806370a082311461056e578063715018a61461058e5780637b47ec1a146105a35780637cb64759146105c357600080fd5b80636352211e14610519578063699abb3c146105395780636fa2fd591461055957600080fd5b80634744f619146104735780634f1ef2861461049357806352d1902d146104a657806356b1ddbb146104bb5780635b769f3c146104db5780635fea0294146104fb57600080fd5b80631e7663bc116102865780631e7663bc146103c857806323b872dd146103e85780632eb4a7ab146104085780633ccfd60b1461041e57806342842e0e1461043357806342966c681461045357600080fd5b806301ffc9a7146102ce57806306fdde0314610303578063081812fc14610325578063089fe6aa1461035d578063095ea7b3146103875780630b2accb2146103a9575b600080fd5b3480156102da57600080fd5b506102ee6102e936600461355c565b610902565b60405190151581526020015b60405180910390f35b34801561030f57600080fd5b50610318610913565b6040516102fa91906135c9565b34801561033157600080fd5b506103456103403660046135dc565b6109b7565b6040516001600160a01b0390911681526020016102fa565b34801561036957600080fd5b5061037361271081565b60405162ffffff90911681526020016102fa565b34801561039357600080fd5b506103a76103a2366004613611565b6109cc565b005b3480156103b557600080fd5b506005545b6040519081526020016102fa565b3480156103d457600080fd5b506103ba6103e33660046136de565b6109db565b3480156103f457600080fd5b506103a7610403366004613713565b610a03565b34801561041457600080fd5b506103ba60085481565b34801561042a57600080fd5b506103a7610a7a565b34801561043f57600080fd5b506103a761044e366004613713565b610b0f565b34801561045f57600080fd5b506103a761046e3660046135dc565b610b2a565b34801561047f57600080fd5b506103a761048e3660046135dc565b610b36565b6103a76104a136600461374f565b610b43565b3480156104b257600080fd5b506103ba610b5e565b3480156104c757600080fd5b50600354610345906001600160a01b031681565b3480156104e757600080fd5b506103a76104f636600461379d565b610b7b565b34801561050757600080fd5b506003546001600160a01b0316610345565b34801561052557600080fd5b506103456105343660046135dc565b610ba5565b34801561054557600080fd5b506103a76105543660046135dc565b610bb0565b34801561056557600080fd5b506002546103ba565b34801561057a57600080fd5b506103ba61058936600461379d565b610c0f565b34801561059a57600080fd5b506103a7610c6b565b3480156105af57600080fd5b506103a76105be3660046135dc565b610c7f565b3480156105cf57600080fd5b506103a76105de3660046135dc565b610e1b565b3480156105ef57600080fd5b506007546103ba565b34801561060457600080fd5b507f9016d09d72d40fdae2fd8ceac6b6234c7706214fd39c1cd1e609a0528c199300546001600160a01b0316610345565b34801561064157600080fd5b506103456106503660046136de565b610e28565b34801561066157600080fd5b506103a761067036600461379d565b610e6d565b6103a7610683366004613804565b610e97565b34801561069457600080fd5b50610318611446565b3480156106a957600080fd5b506103a76106b8366004613611565b611485565b3480156106c957600080fd5b506103186106d83660046135dc565b6115b1565b3480156106e957600080fd5b506102ee6106f836600461389a565b61164b565b34801561070957600080fd5b506103a76107183660046138fb565b6116d1565b34801561072957600080fd5b50610318604051806040016040528060058152602001640352e302e360dc1b81525081565b34801561075a57600080fd5b50600454610345906001600160a01b031681565b34801561077a57600080fd5b506103ba60055481565b34801561079057600080fd5b506103a761079f366004613932565b6116dc565b3480156107b057600080fd5b506103457f000000000000000000000000000000000000000000000000000000000000000081565b3480156107e457600080fd5b506103ba60025481565b3480156107fa57600080fd5b506103a761080936600461379d565b6116f9565b34801561081a57600080fd5b506103186108293660046135dc565b611894565b34801561083a57600080fd5b506103ba60065481565b34801561085057600080fd5b506004546001600160a01b0316610345565b34801561086e57600080fd5b506103ba61087d3660046136de565b805160208183018101805160018252928201919093012091525481565b3480156108a657600080fd5b506006546103ba565b3480156108bb57600080fd5b506102ee6108ca36600461399a565b61189f565b6103a76108dd3660046139cd565b6118ec565b3480156108ee57600080fd5b506103a76108fd36600461379d565b611b07565b600061090d82611b42565b92915050565b600080516020613d78833981519152805460609190819061093390613a41565b80601f016020809104026020016040519081016040528092919081815260200182805461095f90613a41565b80156109ac5780601f10610981576101008083540402835291602001916109ac565b820191906000526020600020905b81548152906001019060200180831161098f57829003601f168201915b505050505091505090565b60006109c282611b67565b5061090d82611b9f565b6109d7828233611bd9565b5050565b60006001826040516109ed9190613a7b565b9081526020016040518091039020549050919050565b610a0c82610c0f565b15610a6a5760405162461bcd60e51b8152602060048201526024808201527f526563697069656e7420616c7265616479206f776e7320612070726f6a6563746044820152630813919560e21b60648201526084015b60405180910390fd5b610a75838383611be6565b505050565b610a82611c6b565b604051600090339047908381818185875af1925050503d8060008114610ac4576040519150601f19603f3d011682016040523d82523d6000602084013e610ac9565b606091505b5050905080610b0c5760405162461bcd60e51b815260206004820152600f60248201526e151c985b9cd9995c8811985a5b1959608a1b6044820152606401610a61565b50565b610a75838383604051806020016040528060008152506116dc565b6109d760008233611cc6565b610b3e611c6b565b600655565b610b4b611dd0565b610b5482611e75565b6109d78282611e95565b6000610b68611f52565b50600080516020613d9883398151915290565b610b83611c6b565b600480546001600160a01b0319166001600160a01b0392909216919091179055565b600061090d82611b67565b610bb8611c6b565b61012c811115610c0a5760405162461bcd60e51b815260206004820152601d60248201527f7461782063616e6e6f7420626520686967686572207468616e203330250000006044820152606401610a61565b600555565b6000600080516020613d788339815191526001600160a01b038316610c4a576040516322718ad960e21b815260006004820152602401610a61565b6001600160a01b039092166000908152600390920160205250604090205490565b610c73611c6b565b610c7d6000611f9b565b565b6000610c8a82610ba5565b905033610c9683610ba5565b6001600160a01b031614610cec5760405162461bcd60e51b815260206004820152601760248201527f43616c6c6572206973206e6f7420746865206f776e65720000000000000000006044820152606401610a61565b60008281526020819052604081208054610d0590613a41565b80601f0160208091040260200160405190810160405280929190818152602001828054610d3190613a41565b8015610d7e5780601f10610d5357610100808354040283529160200191610d7e565b820191906000526020600020905b815481529060010190602001808311610d6157829003601f168201915b50505050509050610d8e8361200c565b6000838152602081905260408120610da5916134f8565b600181604051610db59190613a7b565b90815260200160405180910390206000905560006001600160a01b0316826001600160a01b0316847f4ef8c0478b7cb23d7c76bbb226f7898438ece317e83af2b79f9a015974efcc7f42604051610e0e91815260200190565b60405180910390a4505050565b610e23611c6b565b600855565b600080600183604051610e3b9190613a7b565b908152602001604051809103902054905080600014610e6457610e5d81610ba5565b9392505050565b50600092915050565b610e75611c6b565b600380546001600160a01b0319166001600160a01b0392909216919091179055565b610e9f612047565b6000610eaa89610ba5565b90506001600160a01b0381163303610efa5760405162461bcd60e51b815260206004820152601360248201527221b0b73737ba103830bc903cb7bab939b2b63360691b6044820152606401610a61565b60008981526020819052604081208054610f1390613a41565b905011610f5a5760405162461bcd60e51b8152602060048201526015602482015274141c9bda9958dd081d1a5d1b19481b9bdd081cd95d605a1b6044820152606401610a61565b6001610f6582610c0f565b1115610fce5760405162461bcd60e51b815260206004820152603260248201527f546f6b656e206f776e657220616c7265616479206f776e73206d6f7265207468604482015271185b881bdb99481c1c9bda9958dd0813919560721b6064820152608401610a61565b6000871161101e5760405162461bcd60e51b815260206004820152601860248201527f496e70757420616d6f756e742063616e6e6f74206265203000000000000000006044820152606401610a61565b6000806103e86005548a6110329190613aad565b61103c9190613ac4565b6003549091508a906001600160a01b0380831691161461130657611060828b613ae6565b92506001600160a01b038b166111d05760408051818152601e818301527f4554482f536f6e696320726563656976656420616e6420777261707065640000606082015234602082015290517ff6ff2ad7fc16bda2a7d32462729431bce3ebe9b75cc7c9b35a0adfbf7e7bb9e69181900360800190a1893410156111255760405162461bcd60e51b815260206004820152601c60248201527f496e636f727265637420616d6f756e74206f66204554482073656e74000000006044820152606401610a61565b61113082898761207f565b506000846001600160a01b03168460405160006040518083038185875af1925050503d806000811461117e576040519150601f19603f3d011682016040523d82523d6000602084013e611183565b606091505b50509050806111ca5760405162461bcd60e51b8152602060048201526013602482015272115512081d1c985b9cd9995c8819985a5b1959606a1b6044820152606401610a61565b506113d5565b6111db8b888861164b565b6112275760405162461bcd60e51b815260206004820152601860248201527f546f6b656e206973206e6f742077686974656c697374656400000000000000006044820152606401610a61565b604051636eb1769f60e11b81523360048201523060248201528a906001600160a01b0383169063dd62ed3e90604401602060405180830381865afa158015611273573d6000803e3d6000fd5b505050506040513d601f19601f820116820180604052508101906112979190613af9565b10156112de5760405162461bcd60e51b8152602060048201526016602482015275496e73756666696369656e7420616c6c6f77616e636560501b6044820152606401610a61565b6112eb8b838b8b8961236c565b506113016001600160a01b0382163386866126ca565b6113d5565b604051636eb1769f60e11b81523360048201523060248201528a935083906001600160a01b0383169063dd62ed3e90604401602060405180830381865afa158015611355573d6000803e3d6000fd5b505050506040513d601f19601f820116820180604052508101906113799190613af9565b10156113c05760405162461bcd60e51b8152602060048201526016602482015275496e73756666696369656e7420616c6c6f77616e636560501b6044820152606401610a61565b6113d56001600160a01b0382163386866126ca565b604080516001600160a01b038d168152602081018590524281830152905133918e917fda38851157f2984cc47615155e6daa02931c36f0ecaa4822d8b631b5b368eb6e9181900360600190a35050505061143c6001600080516020613db883398151915255565b5050505050505050565b7f80bb2b638cc20bc4d0a60d66940f3ab4a00c1d7b313497ca82fb0b4ab00793018054606091600080516020613d788339815191529161093390613a41565b61148d611c6b565b6001600160a01b0382166114e35760405162461bcd60e51b815260206004820152601c60248201527f496e76616c6964204552432d323020746f6b656e2061646472657373000000006044820152606401610a61565b6040516370a0823160e01b8152306004820152829082906001600160a01b038316906370a0823190602401602060405180830381865afa15801561152b573d6000803e3d6000fd5b505050506040513d601f19601f8201168201806040525081019061154f9190613af9565b101561159d5760405162461bcd60e51b815260206004820152601a60248201527f496e73756666696369656e7420746f6b656e2062616c616e63650000000000006044820152606401610a61565b610a756001600160a01b0382163384612745565b600060208190529081526040902080546115ca90613a41565b80601f01602080910402602001604051908101604052809291908181526020018280546115f690613a41565b80156116435780601f1061161857610100808354040283529160200191611643565b820191906000526020600020905b81548152906001019060200180831161162657829003601f168201915b505050505081565b6040516bffffffffffffffffffffffff19606085901b16602082015260009081906034016040516020818303038152906040528051906020012090506116c8848480806020026020016040519081016040528093929190818152602001838360200280828437600092019190915250506008549150849050612776565b95945050505050565b6109d733838361278c565b6116e7848484610a03565b6116f38484848461283d565b50505050565b7ff0c57e16840df040f15088dc2f81fe391c3923bec73e23a9662efc9c229c6a008054600160401b810460ff16159067ffffffffffffffff1660008115801561173f5750825b905060008267ffffffffffffffff16600114801561175c5750303b155b90508115801561176a575080155b156117885760405163f92ee8a960e01b815260040160405180910390fd5b845467ffffffffffffffff1916600117855583156117b257845460ff60401b1916600160401b1785555b6118046040518060400160405280600f81526020016e48756d626c65446f6e6174696f6e7360881b8152506040518060400160405280600981526020016812111c1c9bda9958dd60ba1b815250612966565b61180c612978565b611814612978565b61181d86612980565b611825612978565b61182d612991565b6001600755600f600555655af3107a40006006556000600255831561188c57845460ff60401b19168555604051600181527fc7f505b2f371ae2175ee4913f4499e1f2633a7b5936321eed1cdaeb6115181d29060200160405180910390a15b505050505050565b606061090d826129a1565b6001600160a01b0391821660009081527f80bb2b638cc20bc4d0a60d66940f3ab4a00c1d7b313497ca82fb0b4ab00793056020908152604080832093909416825291909152205460ff1690565b6118f4612047565b60065434101561193c5760405162461bcd60e51b8152602060048201526013602482015272139bdd08195b9bdd59da08115512081cd95b9d606a1b6044820152606401610a61565b61194583610c0f565b156119925760405162461bcd60e51b815260206004820152601c60248201527f4164647265737320616c7265616479206f776e73206120746f6b656e000000006044820152606401610a61565b6001816040516119a29190613a7b565b908152602001604051809103902054600014611a005760405162461bcd60e51b815260206004820152601c60248201527f50726f6a656374207469746c6520616c726561647920657869737473000000006044820152606401610a61565b600780549081906000611a1283613b12565b9190505550611a218482612acd565b611a2b8184612ae7565b6000818152602081905260409020611a438382613b71565b5080600183604051611a559190613a7b565b908152604051908190036020018120919091556006547388b944e7e3d495b88caa62fb0158f697c9a1561d9181156108fc0291906000818181858888f19350505050158015611aa8573d6000803e3d6000fd5b50836001600160a01b0316817f3c3fbb6a154e75fbef89d966d453c10b2ecc4dba66a0b8a755d720fae33a8fda848642604051611ae793929190613c31565b60405180910390a350610a756001600080516020613db883398151915255565b611b0f611c6b565b6001600160a01b038116611b3957604051631e4fbdf760e01b815260006004820152602401610a61565b610b0c81611f9b565b60006001600160e01b03198216632483248360e11b148061090d575061090d82612b5a565b600080611b7383612baa565b90506001600160a01b03811661090d57604051637e27328960e01b815260048101849052602401610a61565b60009081527f80bb2b638cc20bc4d0a60d66940f3ab4a00c1d7b313497ca82fb0b4ab007930460205260409020546001600160a01b031690565b610a758383836001612be4565b6001600160a01b038216611c1057604051633250574960e11b815260006004820152602401610a61565b6000611c1d838333611cc6565b9050836001600160a01b0316816001600160a01b0316146116f3576040516364283d7b60e01b81526001600160a01b0380861660048301526024820184905282166044820152606401610a61565b33611c9d7f9016d09d72d40fdae2fd8ceac6b6234c7706214fd39c1cd1e609a0528c199300546001600160a01b031690565b6001600160a01b031614610c7d5760405163118cdaa760e01b8152336004820152602401610a61565b6000600080516020613d7883398151915281611ce185612baa565b90506001600160a01b03841615611cfd57611cfd818587612cfa565b6001600160a01b03811615611d3d57611d1a600086600080612be4565b6001600160a01b0381166000908152600383016020526040902080546000190190555b6001600160a01b03861615611d6e576001600160a01b03861660009081526003830160205260409020805460010190555b600085815260028301602052604080822080546001600160a01b0319166001600160a01b038a811691821790925591518893918516917fddf252ad1be2c89b69c2b068fc378daa952ba7f163c4a11628f55a4df523b3ef91a495945050505050565b306001600160a01b037f0000000000000000000000000000000000000000000000000000000000000000161480611e5757507f00000000000000000000000000000000000000000000000000000000000000006001600160a01b0316611e4b600080516020613d98833981519152546001600160a01b031690565b6001600160a01b031614155b15610c7d5760405163703e46dd60e11b815260040160405180910390fd5b611e7d611c6b565b60028054906000611e8d83613b12565b919050555050565b816001600160a01b03166352d1902d6040518163ffffffff1660e01b8152600401602060405180830381865afa925050508015611eef575060408051601f3d908101601f19168201909252611eec91810190613af9565b60015b611f1757604051634c9c8ce360e01b81526001600160a01b0383166004820152602401610a61565b600080516020613d988339815191528114611f4857604051632a87526960e21b815260048101829052602401610a61565b610a758383612d5e565b306001600160a01b037f00000000000000000000000000000000000000000000000000000000000000001614610c7d5760405163703e46dd60e11b815260040160405180910390fd5b7f9016d09d72d40fdae2fd8ceac6b6234c7706214fd39c1cd1e609a0528c19930080546001600160a01b031981166001600160a01b03848116918217845560405192169182907f8be0079c531659141344cd1fd0a4f28419497f9722a3daafe3b4186f6b6457e090600090a3505050565b600061201b6000836000611cc6565b90506001600160a01b0381166109d757604051637e27328960e01b815260048101839052602401610a61565b600080516020613db883398151915280546001190161207957604051633ee5aeb560e01b815260040160405180910390fd5b60029055565b60008084116120d05760405162461bcd60e51b815260206004820181905260248201527f416d6f756e7420696e206d7573742062652067726561746572207468616e20306044820152606401610a61565b600060046120df866003613aad565b6120e99190613ac4565b9050600081116121555760405162461bcd60e51b815260206004820152603160248201527f5468726565207175617274657273206f6620616d6f756e74496e206d75737420604482015270062652067726561746572207468616e203607c1b6064820152608401610a61565b6004805460408051630d0e30db60e41b815290516001600160a01b039092169263d0e30db0928592808301926000929182900301818588803b15801561219a57600080fd5b505af11580156121ae573d6000803e3d6000fd5b50506004546121ec93506001600160a01b031691507f0000000000000000000000000000000000000000000000000000000000000000905087612db4565b60006121f9600287613ac4565b90506000612208600488613ac4565b600454909150612236906001600160a01b03167388b944e7e3d495b88caa62fb0158f697c9a1561d84612745565b600454612261906001600160a01b031673fda30f9d6a3864f092586cf755fc8fcdaf8bb5ae83612745565b6040805160e081018252600480546001600160a01b0390811683526003548116602084015262ffffff8916838501523060608401526080830185905260a083018a9052600060c084015292516304e45aaf60e01b815291927f000000000000000000000000000000000000000000000000000000000000000016916304e45aaf9185916122f091869101613c67565b60206040518083038185885af115801561230e573d6000803e3d6000fd5b50505050506040513d601f19601f820116820180604052508101906123339190613af9565b600354909550612361906001600160a01b031673fda30f9d6a3864f092586cf755fc8fcdaf8bb5ae87612745565b505050509392505050565b60006123836001600160a01b0387163330886126ca565b6123ae867f000000000000000000000000000000000000000000000000000000000000000087612db4565b60045460009081906001600160a01b039081169089160361243f576123d4600288613ac4565b91506123e1600488613ac4565b60045490915061240f906001600160a01b03167388b944e7e3d495b88caa62fb0158f697c9a1561d84612745565b60045461243a906001600160a01b031673fda30f9d6a3864f092586cf755fc8fcdaf8bb5ae83612745565b612583565b6040805160e0810182526001600160a01b03808b168252600480548216602084015262ffffff881683850152306060840152608083018b905260a083018a9052600060c084015292516304e45aaf60e01b815291927f0000000000000000000000000000000000000000000000000000000000000000909116916304e45aaf916124cb91859101613c67565b6020604051808303816000875af11580156124ea573d6000803e3d6000fd5b505050506040513d601f19601f8201168201806040525081019061250e9190613af9565b935061251b600285613ac4565b9250612528600485613ac4565b600454909250612556906001600160a01b03167388b944e7e3d495b88caa62fb0158f697c9a1561d85612745565b600454612581906001600160a01b031673fda30f9d6a3864f092586cf755fc8fcdaf8bb5ae84612745565b505b6004546125ba906001600160a01b03167f000000000000000000000000000000000000000000000000000000000000000083612db4565b6040805160e081018252600480546001600160a01b0390811683526003548116602084015262ffffff8816838501523060608401526080830185905260a08301899052600060c0840181905293516304e45aaf60e01b81529293927f0000000000000000000000000000000000000000000000000000000000000000909116916304e45aaf9161264c91869101613c67565b6020604051808303816000875af115801561266b573d6000803e3d6000fd5b505050506040513d601f19601f8201168201806040525081019061268f9190613af9565b6003549091506126bd906001600160a01b031673fda30f9d6a3864f092586cf755fc8fcdaf8bb5ae83612745565b5050505095945050505050565b6040516001600160a01b0384811660248301528381166044830152606482018390526116f39186918216906323b872dd906084015b604051602081830303815290604052915060e01b6020820180516001600160e01b038381831617835250505050612ead565b6001600080516020613db883398151915255565b6040516001600160a01b03838116602483015260448201839052610a7591859182169063a9059cbb906064016126ff565b6000826127838584612f10565b14949350505050565b600080516020613d788339815191526001600160a01b0383166127cd57604051630b61174360e31b81526001600160a01b0384166004820152602401610a61565b6001600160a01b038481166000818152600584016020908152604080832094881680845294825291829020805460ff191687151590811790915591519182527f17307eab39ab6107e8899845ad3d59bd9653f200f220920489ca2b5937696c31910160405180910390a350505050565b6001600160a01b0383163b156116f357604051630a85bd0160e11b81526001600160a01b0384169063150b7a029061287f903390889087908790600401613cc5565b6020604051808303816000875af19250505080156128ba575060408051601f3d908101601f191682019092526128b791810190613cf8565b60015b612923573d8080156128e8576040519150601f19603f3d011682016040523d82523d6000602084013e6128ed565b606091505b50805160000361291b57604051633250574960e11b81526001600160a01b0385166004820152602401610a61565b805181602001fd5b6001600160e01b03198116630a85bd0160e11b1461295f57604051633250574960e11b81526001600160a01b0385166004820152602401610a61565b5050505050565b61296e612f5d565b6109d78282612fa6565b610c7d612f5d565b612988612f5d565b610b0c81612fd7565b612999612f5d565b610c7d612fdf565b60607f0542a41881ee128a365a727b282c86fa859579490b9bb45aab8503648c8e79006129cd83611b67565b50600083815260208290526040812080546129e790613a41565b80601f0160208091040260200160405190810160405280929190818152602001828054612a1390613a41565b8015612a605780601f10612a3557610100808354040283529160200191612a60565b820191906000526020600020905b815481529060010190602001808311612a4357829003601f168201915b505050505090506000612a7e60408051602081019091526000815290565b90508051600003612a9157509392505050565b815115612ac4578082604051602001612aab929190613d15565b6040516020818303038152906040529350505050919050565b6116c885612fe7565b6109d782826040518060200160405280600081525061305b565b60008281527f0542a41881ee128a365a727b282c86fa859579490b9bb45aab8503648c8e790060208190526040909120612b218382613b71565b506040518381527ff8e1a15aba9398e019f0b49df1a4fde98ee17ae345cb5f6b5e2c27f5033e8ce79060200160405180910390a1505050565b60006001600160e01b031982166380ac58cd60e01b1480612b8b57506001600160e01b03198216635b5e139f60e01b145b8061090d57506301ffc9a760e01b6001600160e01b031983161461090d565b60009081527f80bb2b638cc20bc4d0a60d66940f3ab4a00c1d7b313497ca82fb0b4ab007930260205260409020546001600160a01b031690565b600080516020613d788339815191528180612c0757506001600160a01b03831615155b15612cc9576000612c1785611b67565b90506001600160a01b03841615801590612c435750836001600160a01b0316816001600160a01b031614155b8015612c565750612c54818561189f565b155b15612c7f5760405163a9fbf51f60e01b81526001600160a01b0385166004820152602401610a61565b8215612cc75784866001600160a01b0316826001600160a01b03167f8c5be1e5ebec7d5bd14f71427d1e84f3dd0314c0f7b2291e5b200ac8c7c3b92560405160405180910390a45b505b600093845260040160205250506040902080546001600160a01b0319166001600160a01b0392909216919091179055565b612d05838383613072565b610a75576001600160a01b038316612d3357604051637e27328960e01b815260048101829052602401610a61565b60405163177e802f60e01b81526001600160a01b038316600482015260248101829052604401610a61565b612d67826130d8565b6040516001600160a01b038316907fbc7cd75a20ee27fd9adebab32041f755214dbc6bffa90cc0225b39da2e5c2d3b90600090a2805115612dac57610a75828261313d565b6109d76131aa565b604080516001600160a01b038481166024830152604480830185905283518084039091018152606490920183526020820180516001600160e01b031663095ea7b360e01b1790529151600092839290871691612e109190613a7b565b6000604051808303816000865af19150503d8060008114612e4d576040519150601f19603f3d011682016040523d82523d6000602084013e612e52565b606091505b5091509150818015612e7c575080511580612e7c575080806020019051810190612e7c9190613d44565b61295f5760405162461bcd60e51b8152602060048201526002602482015261534160f01b6044820152606401610a61565b6000612ec26001600160a01b038416836131c9565b90508051600014158015612ee7575080806020019051810190612ee59190613d44565b155b15610a7557604051635274afe760e01b81526001600160a01b0384166004820152602401610a61565b600081815b8451811015612f5557612f4182868381518110612f3457612f34613d61565b60200260200101516131d7565b915080612f4d81613b12565b915050612f15565b509392505050565b7ff0c57e16840df040f15088dc2f81fe391c3923bec73e23a9662efc9c229c6a0054600160401b900460ff16610c7d57604051631afcd79f60e31b815260040160405180910390fd5b612fae612f5d565b600080516020613d7883398151915280612fc88482613b71565b50600181016116f38382613b71565b611b0f612f5d565b612731612f5d565b6060612ff282611b67565b50600061300a60408051602081019091526000815290565b9050600081511161302a5760405180602001604052806000815250610e5d565b8061303484613206565b604051602001613045929190613d15565b6040516020818303038152906040529392505050565b6130658383613299565b610a75600084848461283d565b60006001600160a01b038316158015906130d05750826001600160a01b0316846001600160a01b031614806130ac57506130ac848461189f565b806130d05750826001600160a01b03166130c583611b9f565b6001600160a01b0316145b949350505050565b806001600160a01b03163b60000361310e57604051634c9c8ce360e01b81526001600160a01b0382166004820152602401610a61565b600080516020613d9883398151915280546001600160a01b0319166001600160a01b0392909216919091179055565b6060600080846001600160a01b03168460405161315a9190613a7b565b600060405180830381855af49150503d8060008114613195576040519150601f19603f3d011682016040523d82523d6000602084013e61319a565b606091505b50915091506116c88583836132fe565b3415610c7d5760405163b398979f60e01b815260040160405180910390fd5b6060610e5d8383600061335a565b60008183106131f3576000828152602084905260409020610e5d565b6000838152602083905260409020610e5d565b60606000613213836133f7565b600101905060008167ffffffffffffffff8111156132335761323361363b565b6040519080825280601f01601f19166020018201604052801561325d576020820181803683370190505b5090508181016020015b600019016f181899199a1a9b1b9c1cb0b131b232b360811b600a86061a8153600a850494508461326757509392505050565b6001600160a01b0382166132c357604051633250574960e11b815260006004820152602401610a61565b60006132d183836000611cc6565b90506001600160a01b03811615610a75576040516339e3563760e11b815260006004820152602401610a61565b6060826133135761330e826134cf565b610e5d565b815115801561332a57506001600160a01b0384163b155b1561335357604051639996b31560e01b81526001600160a01b0385166004820152602401610a61565b5080610e5d565b60608147101561337f5760405163cd78605960e01b8152306004820152602401610a61565b600080856001600160a01b0316848660405161339b9190613a7b565b60006040518083038185875af1925050503d80600081146133d8576040519150601f19603f3d011682016040523d82523d6000602084013e6133dd565b606091505b50915091506133ed8683836132fe565b9695505050505050565b60008072184f03e93ff9f4daa797ed6e38ed64bf6a1f0160401b83106134365772184f03e93ff9f4daa797ed6e38ed64bf6a1f0160401b830492506040015b6d04ee2d6d415b85acef81000000008310613462576d04ee2d6d415b85acef8100000000830492506020015b662386f26fc10000831061348057662386f26fc10000830492506010015b6305f5e1008310613498576305f5e100830492506008015b61271083106134ac57612710830492506004015b606483106134be576064830492506002015b600a831061090d5760010192915050565b8051156134df5780518082602001fd5b604051630a12f52160e11b815260040160405180910390fd5b50805461350490613a41565b6000825580601f10613514575050565b601f016020900490600052602060002090810190610b0c91905b80821115613542576000815560010161352e565b5090565b6001600160e01b031981168114610b0c57600080fd5b60006020828403121561356e57600080fd5b8135610e5d81613546565b60005b8381101561359457818101518382015260200161357c565b50506000910152565b600081518084526135b5816020860160208601613579565b601f01601f19169290920160200192915050565b602081526000610e5d602083018461359d565b6000602082840312156135ee57600080fd5b5035919050565b80356001600160a01b038116811461360c57600080fd5b919050565b6000806040838503121561362457600080fd5b61362d836135f5565b946020939093013593505050565b634e487b7160e01b600052604160045260246000fd5b600082601f83011261366257600080fd5b813567ffffffffffffffff8082111561367d5761367d61363b565b604051601f8301601f19908116603f011681019082821181831017156136a5576136a561363b565b816040528381528660208588010111156136be57600080fd5b836020870160208301376000602085830101528094505050505092915050565b6000602082840312156136f057600080fd5b813567ffffffffffffffff81111561370757600080fd5b6130d084828501613651565b60008060006060848603121561372857600080fd5b613731846135f5565b925061373f602085016135f5565b9150604084013590509250925092565b6000806040838503121561376257600080fd5b61376b836135f5565b9150602083013567ffffffffffffffff81111561378757600080fd5b61379385828601613651565b9150509250929050565b6000602082840312156137af57600080fd5b610e5d826135f5565b60008083601f8401126137ca57600080fd5b50813567ffffffffffffffff8111156137e257600080fd5b6020830191508360208260051b85010111156137fd57600080fd5b9250929050565b60008060008060008060008060e0898b03121561382057600080fd5b8835975061383060208a016135f5565b965060408901359550606089013594506080890135935060a089013567ffffffffffffffff81111561386157600080fd5b61386d8b828c016137b8565b90945092505060c089013562ffffff8116811461388957600080fd5b809150509295985092959890939650565b6000806000604084860312156138af57600080fd5b6138b8846135f5565b9250602084013567ffffffffffffffff8111156138d457600080fd5b6138e0868287016137b8565b9497909650939450505050565b8015158114610b0c57600080fd5b6000806040838503121561390e57600080fd5b613917836135f5565b91506020830135613927816138ed565b809150509250929050565b6000806000806080858703121561394857600080fd5b613951856135f5565b935061395f602086016135f5565b925060408501359150606085013567ffffffffffffffff81111561398257600080fd5b61398e87828801613651565b91505092959194509250565b600080604083850312156139ad57600080fd5b6139b6836135f5565b91506139c4602084016135f5565b90509250929050565b6000806000606084860312156139e257600080fd5b6139eb846135f5565b9250602084013567ffffffffffffffff80821115613a0857600080fd5b613a1487838801613651565b93506040860135915080821115613a2a57600080fd5b50613a3786828701613651565b9150509250925092565b600181811c90821680613a5557607f821691505b602082108103613a7557634e487b7160e01b600052602260045260246000fd5b50919050565b60008251613a8d818460208701613579565b9190910192915050565b634e487b7160e01b600052601160045260246000fd5b808202811582820484141761090d5761090d613a97565b600082613ae157634e487b7160e01b600052601260045260246000fd5b500490565b8181038181111561090d5761090d613a97565b600060208284031215613b0b57600080fd5b5051919050565b600060018201613b2457613b24613a97565b5060010190565b601f821115610a7557600081815260208120601f850160051c81016020861015613b525750805b601f850160051c820191505b8181101561188c57828155600101613b5e565b815167ffffffffffffffff811115613b8b57613b8b61363b565b613b9f81613b998454613a41565b84613b2b565b602080601f831160018114613bd45760008415613bbc5750858301515b600019600386901b1c1916600185901b17855561188c565b600085815260208120601f198616915b82811015613c0357888601518255948401946001909101908401613be4565b5085821015613c215787850151600019600388901b60f8161c191681555b5050505050600190811b01905550565b606081526000613c44606083018661359d565b8281036020840152613c56818661359d565b915050826040830152949350505050565b81516001600160a01b03908116825260208084015182169083015260408084015162ffffff16908301526060808401518216908301526080808401519083015260a0838101519083015260c092830151169181019190915260e00190565b6001600160a01b03858116825284166020820152604081018390526080606082018190526000906133ed9083018461359d565b600060208284031215613d0a57600080fd5b8151610e5d81613546565b60008351613d27818460208801613579565b835190830190613d3b818360208801613579565b01949350505050565b600060208284031215613d5657600080fd5b8151610e5d816138ed565b634e487b7160e01b600052603260045260246000fdfe80bb2b638cc20bc4d0a60d66940f3ab4a00c1d7b313497ca82fb0b4ab0079300360894a13ba1a3210667c828492db98dca3e2076cc3735a920a3ca505d382bbc9b779b17422d0df92223018b32b4d1fa46e071723d6817e2486d003becc55f00a2646970667358221220176e108440dba96e9e8e41bcb2f571942c89be8ed800fba0d4119054cc5a092964736f6c63430008140033",
  "linkReferences": {},
  "deployedLinkReferences": {}
}