{
  "_format": "hh-sol-artifact-1",
  "contractName": "Referral1",
  "sourceName": "contracts/referral/Referral1.sol",
  "abi": [
    {
      "inputs": [],
      "stateMutability": "nonpayable",
      "type": "constructor"
    },
    {
      "anonymous": false,
      "inputs": [
        {
          "indexed": true,
          "internalType": "uint256",
          "name": "tokenId",
          "type": "uint256"
        },
        {
          "indexed": false,
          "internalType": "uint256",
          "name": "rewardAmount",
          "type": "uint256"
        },
        {
          "indexed": false,
          "internalType": "uint256",
          "name": "unlockTime",
          "type": "uint256"
        },
        {
          "indexed": false,
          "internalType": "uint256",
          "name": "timestamp",
          "type": "uint256"
        }
      ],
      "name": "ReferralRewardAllocated",
      "type": "event"
    },
    {
      "anonymous": false,
      "inputs": [
        {
          "indexed": true,
          "internalType": "uint256",
          "name": "tokenId",
          "type": "uint256"
        },
        {
          "indexed": true,
          "internalType": "address",
          "name": "recipient",
          "type": "address"
        },
        {
          "indexed": false,
          "internalType": "uint256",
          "name": "amount",
          "type": "uint256"
        }
      ],
      "name": "ReferralRewardClaimed",
      "type": "event"
    },
    {
      "inputs": [],
      "name": "HDT",
      "outputs": [
        {
          "internalType": "address",
          "name": "",
          "type": "address"
        }
      ],
      "stateMutability": "view",
      "type": "function"
    },
    {
      "inputs": [],
      "name": "LOCK_PERIOD",
      "outputs": [
        {
          "internalType": "uint256",
          "name": "",
          "type": "uint256"
        }
      ],
      "stateMutability": "view",
      "type": "function"
    },
    {
      "inputs": [],
      "name": "REWARD_PERCENTAGE",
      "outputs": [
        {
          "internalType": "uint256",
          "name": "",
          "type": "uint256"
        }
      ],
      "stateMutability": "view",
      "type": "function"
    },
    {
      "inputs": [],
      "name": "UNISWAP_ROUTER_V3",
      "outputs": [
        {
          "internalType": "address",
          "name": "",
          "type": "address"
        }
      ],
      "stateMutability": "view",
      "type": "function"
    },
    {
      "inputs": [],
      "name": "UNISWAP_UNIVERSAL_V4",
      "outputs": [
        {
          "internalType": "address",
          "name": "",
          "type": "address"
        }
      ],
      "stateMutability": "view",
      "type": "function"
    },
    {
      "inputs": [
        {
          "internalType": "uint256",
          "name": "tokenId",
          "type": "uint256"
        },
        {
          "internalType": "uint256",
          "name": "amount",
          "type": "uint256"
        },
        {
          "internalType": "address",
          "name": "router",
          "type": "address"
        }
      ],
      "name": "allocateReferralReward",
      "outputs": [],
      "stateMutability": "nonpayable",
      "type": "function"
    },
    {
      "inputs": [
        {
          "internalType": "uint256",
          "name": "tokenId",
          "type": "uint256"
        },
        {
          "internalType": "address",
          "name": "recipient",
          "type": "address"
        }
      ],
      "name": "claimReferralReward",
      "outputs": [],
      "stateMutability": "nonpayable",
      "type": "function"
    },
    {
      "inputs": [
        {
          "internalType": "uint256",
          "name": "tokenId",
          "type": "uint256"
        }
      ],
      "name": "getRewardDetails",
      "outputs": [
        {
          "components": [
            {
              "internalType": "uint256",
              "name": "amount",
              "type": "uint256"
            },
            {
              "internalType": "uint256",
              "name": "unlockTime",
              "type": "uint256"
            }
          ],
          "internalType": "struct Referral1.Reward[]",
          "name": "rewards",
          "type": "tuple[]"
        }
      ],
      "stateMutability": "view",
      "type": "function"
    },
    {
      "inputs": [
        {
          "internalType": "uint256",
          "name": "tokenId",
          "type": "uint256"
        }
      ],
      "name": "getRewardStatus",
      "outputs": [
        {
          "internalType": "uint256",
          "name": "totalLocked",
          "type": "uint256"
        },
        {
          "internalType": "uint256",
          "name": "nextUnlockTime",
          "type": "uint256"
        },
        {
          "internalType": "bool",
          "name": "claimable",
          "type": "bool"
        }
      ],
      "stateMutability": "view",
      "type": "function"
    },
    {
      "inputs": [
        {
          "internalType": "uint256",
          "name": "",
          "type": "uint256"
        }
      ],
      "name": "tokenIdDonations",
      "outputs": [
        {
          "internalType": "uint256",
          "name": "",
          "type": "uint256"
        }
      ],
      "stateMutability": "view",
      "type": "function"
    },
    {
      "inputs": [
        {
          "internalType": "uint256",
          "name": "",
          "type": "uint256"
        },
        {
          "internalType": "uint256",
          "name": "",
          "type": "uint256"
        }
      ],
      "name": "tokenIdRewards",
      "outputs": [
        {
          "internalType": "uint256",
          "name": "amount",
          "type": "uint256"
        },
        {
          "internalType": "uint256",
          "name": "unlockTime",
          "type": "uint256"
        }
      ],
      "stateMutability": "view",
      "type": "function"
    },
    {
      "inputs": [
        {
          "internalType": "address",
          "name": "",
          "type": "address"
        }
      ],
      "name": "whitelistedRouters",
      "outputs": [
        {
          "internalType": "bool",
          "name": "",
          "type": "bool"
        }
      ],
      "stateMutability": "view",
      "type": "function"
    }
  ],
  "bytecode": "0x608060405234801561001057600080fd5b5060026020527f3367a4a89f2ea97ffd9a48b29ec830477c57c3d76a24e38ecf26e86e4ab3a1de805460ff199081166001908117909255735e325eda8064b456f4781070c0738d849c8242586000527f204c34849f8adbea99234cb2da1028f19a48bc0e5d422575553e6b55e6f6672280549091169091179055610a85806100996000396000f3fe608060405234801561001057600080fd5b50600436106100b45760003560e01c806356b1ddbb1161007157806356b1ddbb146101795780635f39579d146101ac5780638698fec6146101dc5780639fae3489146101fc578063e97b828714610217578063fc72b1ed1461023257600080fd5b80630f874a13146100b95780631820cabb146100f15780631fecc0a6146101095780632772a9341461011e5780632b854e0b1461013e57806346d1985914610166575b600080fd5b6100dc6100c7366004610860565b60026020526000908152604090205460ff1681565b60405190151581526020015b60405180910390f35b6100fb62093a8081565b6040519081526020016100e8565b61011c610117366004610882565b61023a565b005b6100fb61012c3660046108ae565b60006020819052908152604090205481565b61015161014c3660046108c7565b610470565b604080519283526020830191909152016100e8565b61011c6101743660046108e9565b6104ac565b61019473babe35f94fe6076474f65771df60d99cb097323a81565b6040516001600160a01b0390911681526020016100e8565b6101bf6101ba3660046108ae565b610657565b6040805193845260208401929092521515908201526060016100e8565b6101ef6101ea3660046108ae565b6107be565b6040516100e8919061091e565b6101947368b3465833fb72a70ecdf485e0e4c7bd8665fc4581565b610194735e325eda8064b456f4781070c0738d849c82425881565b6100fb600281565b600082815260016020526040812090805b8254811015610354578281815481106102665761026661096d565b9060005260206000209060020201600101544210610342578281815481106102905761029061096d565b906000526020600020906002020160000154826102ad9190610999565b835490925083906102c0906001906109b2565b815481106102d0576102d061096d565b90600052602060002090600202018382815481106102f0576102f061096d565b600091825260209091208254600290920201908155600191820154910155825483908061031f5761031f6109c5565b60008281526020812060026000199093019283020181815560010155905561024b565b8061034c816109db565b91505061024b565b6000821161039f5760405162461bcd60e51b81526020600482015260136024820152724e6f207265776172647320746f20636c61696d60681b60448201526064015b60405180910390fd5b60405163a9059cbb60e01b81526001600160a01b03851660048201526024810183905273babe35f94fe6076474f65771df60d99cb097323a9063a9059cbb906044016020604051808303816000875af1158015610400573d6000803e3d6000fd5b505050506040513d601f19601f8201168201806040525081019061042491906109f4565b50836001600160a01b0316857f091f4e6166b938081dd59461809bbd84c0d28196d4ce69a5db7231b05b34e7dc8460405161046191815260200190565b60405180910390a35050505050565b6001602052816000526040600020818154811061048c57600080fd5b600091825260209091206002909102018054600190910154909250905082565b6001600160a01b03811660009081526002602052604090205460ff166105225760405162461bcd60e51b815260206004820152602560248201527f484454206e6f74207075726368617365642076696120617070726f766564207260448201526437baba32b960d91b6064820152608401610396565b6000838152602081905260409020548211156105805760405162461bcd60e51b815260206004820152601760248201527f496e76616c696420646f6e6174696f6e20616d6f756e740000000000000000006044820152606401610396565b6000606461058f600285610a16565b6105999190610a2d565b905060006105aa62093a8042610999565b6000868152600160208181526040808420815180830183528881528084018781528254808701845592875284872091516002909302909101918255519301929092558883528290528120805492935086929091906106099084906109b2565b909155505060408051838152602081018390524281830152905186917fa5e8221fc50c20ed4427fc1bb0620c9deb9fb1a32cb311d86bb0e2178541c348919081900360600190a25050505050565b60008060008060016000868152602001908152602001600020805480602002602001604051908101604052809291908181526020016000905b828210156106d657838290600052602060002090600202016040518060400160405290816000820154815260200160018201548152505081526020019060010190610690565b50505050905060008060001990506000805b84518110156107a1578481815181106107035761070361096d565b6020026020010151600001518461071a9190610999565b935084818151811061072e5761072e61096d565b6020026020010151602001514210610749576001915061078f565b8285828151811061075c5761075c61096d565b602002602001015160200151101561078f578481815181106107805761078061096d565b60200260200101516020015192505b80610799816109db565b9150506106e8565b5060001982036107b057600091505b919790965090945092505050565b606060016000838152602001908152602001600020805480602002602001604051908101604052809291908181526020016000905b82821015610839578382906000526020600020906002020160405180604001604052908160008201548152602001600182015481525050815260200190600101906107f3565b505050509050919050565b80356001600160a01b038116811461085b57600080fd5b919050565b60006020828403121561087257600080fd5b61087b82610844565b9392505050565b6000806040838503121561089557600080fd5b823591506108a560208401610844565b90509250929050565b6000602082840312156108c057600080fd5b5035919050565b600080604083850312156108da57600080fd5b50508035926020909101359150565b6000806000606084860312156108fe57600080fd5b833592506020840135915061091560408501610844565b90509250925092565b602080825282518282018190526000919060409081850190868401855b828110156109605781518051855286015186850152928401929085019060010161093b565b5091979650505050505050565b634e487b7160e01b600052603260045260246000fd5b634e487b7160e01b600052601160045260246000fd5b808201808211156109ac576109ac610983565b92915050565b818103818111156109ac576109ac610983565b634e487b7160e01b600052603160045260246000fd5b6000600182016109ed576109ed610983565b5060010190565b600060208284031215610a0657600080fd5b8151801515811461087b57600080fd5b80820281158282048414176109ac576109ac610983565b600082610a4a57634e487b7160e01b600052601260045260246000fd5b50049056fea2646970667358221220cd84159a35d4a366d0e93074d582925ab1f2f2caa5f06e7426745397eec41dae64736f6c63430008140033",
  "linkReferences": {},
  "deployedLinkReferences": {}
}