{
  "_format": "hh-sol-artifact-1",
  "contractName": "SwapExamples",
  "sourceName": "contracts/uni/SwapExamples.sol",
  "abi": [
    {
      "inputs": [
        {
          "internalType": "contract ISwapRouter",
          "name": "_swapRouter",
          "type": "address"
        }
      ],
      "stateMutability": "nonpayable",
      "type": "constructor"
    },
    {
      "inputs": [],
      "name": "DAI",
      "outputs": [
        {
          "internalType": "address",
          "name": "",
          "type": "address"
        }
      ],
      "stateMutability": "view",
      "type": "function"
    },
    {
      "inputs": [],
      "name": "HDT",
      "outputs": [
        {
          "internalType": "address",
          "name": "",
          "type": "address"
        }
      ],
      "stateMutability": "view",
      "type": "function"
    },
    {
      "inputs": [],
      "name": "USDC",
      "outputs": [
        {
          "internalType": "address",
          "name": "",
          "type": "address"
        }
      ],
      "stateMutability": "view",
      "type": "function"
    },
    {
      "inputs": [],
      "name": "WETH",
      "outputs": [
        {
          "internalType": "address",
          "name": "",
          "type": "address"
        }
      ],
      "stateMutability": "view",
      "type": "function"
    },
    {
      "inputs": [],
      "name": "WETH9",
      "outputs": [
        {
          "internalType": "address",
          "name": "",
          "type": "address"
        }
      ],
      "stateMutability": "view",
      "type": "function"
    },
    {
      "inputs": [],
      "name": "poolFee",
      "outputs": [
        {
          "internalType": "uint24",
          "name": "",
          "type": "uint24"
        }
      ],
      "stateMutability": "view",
      "type": "function"
    },
    {
      "inputs": [
        {
          "internalType": "uint256",
          "name": "amountIn",
          "type": "uint256"
        }
      ],
      "name": "swapExactInputSingle",
      "outputs": [
        {
          "internalType": "uint256",
          "name": "amountOut",
          "type": "uint256"
        }
      ],
      "stateMutability": "nonpayable",
      "type": "function"
    },
    {
      "inputs": [
        {
          "internalType": "uint256",
          "name": "amountOut",
          "type": "uint256"
        },
        {
          "internalType": "uint256",
          "name": "amountInMaximum",
          "type": "uint256"
        }
      ],
      "name": "swapExactOutputSingle",
      "outputs": [
        {
          "internalType": "uint256",
          "name": "amountIn",
          "type": "uint256"
        }
      ],
      "stateMutability": "nonpayable",
      "type": "function"
    },
    {
      "inputs": [],
      "name": "swapRouter",
      "outputs": [
        {
          "internalType": "contract ISwapRouter",
          "name": "",
          "type": "address"
        }
      ],
      "stateMutability": "view",
      "type": "function"
    }
  ],
  "bytecode": "0x60a060405234801561001057600080fd5b50604051610a0c380380610a0c83398101604081905261002f91610040565b6001600160a01b0316608052610070565b60006020828403121561005257600080fd5b81516001600160a01b038116811461006957600080fd5b9392505050565b60805161095e6100ae60003960008181610164015281816101f0015281816102870152818161034a015281816103e10152610485015261095e6000f3fe608060405234801561001057600080fd5b50600436106100935760003560e01c806389a302711161006657806389a3027114610129578063ad5c464814610144578063c31c9c071461015f578063c4b69a1814610186578063e0bab4c41461019957600080fd5b8063089fe6aa146100985780634aa4a4fc146100ba57806356b1ddbb146100ed57806373bd43ad14610108575b600080fd5b6100a1610bb881565b60405162ffffff90911681526020015b60405180910390f35b6100d573c02aaa39b223fe8d0a0e5c4f27ead9083c756cc281565b6040516001600160a01b0390911681526020016100b1565b6100d573301944751abb2f5000c71b050b139e31aeae472081565b61011b6101163660046107e2565b6101b4565b6040519081526020016100b1565b6100d573a0b86991c6218b36c1d19d4a2e9eb0ce3606eb4881565b6100d57367e197d575e7a350ff3de1a7ead2aa06b19145b681565b6100d57f000000000000000000000000000000000000000000000000000000000000000081565b61011b6101943660046107fb565b61030e565b6100d5736b175474e89094c44da98b954eedeac495271d0f81565b60006101d673301944751abb2f5000c71b050b139e31aeae47203330856104da565b61021573301944751abb2f5000c71b050b139e31aeae47207f0000000000000000000000000000000000000000000000000000000000000000846105e9565b604080516101008101825273301944751abb2f5000c71b050b139e31aeae472081527367e197d575e7a350ff3de1a7ead2aa06b19145b66020820152610bb88183015233606082015242608082015260a08101849052600060c0820181905260e0820152905163414bf38960e01b81527f00000000000000000000000000000000000000000000000000000000000000006001600160a01b03169063414bf389906102c490849060040161081d565b6020604051808303816000875af11580156102e3573d6000803e3d6000fd5b505050506040513d601f19601f82011682018060405250810190610307919061088d565b9392505050565b600061033073301944751abb2f5000c71b050b139e31aeae47203330856104da565b61036f73301944751abb2f5000c71b050b139e31aeae47207f0000000000000000000000000000000000000000000000000000000000000000846105e9565b604080516101008101825273301944751abb2f5000c71b050b139e31aeae472081527367e197d575e7a350ff3de1a7ead2aa06b19145b66020820152610bb88183015233606082015242608082015260a0810185905260c08101849052600060e08201529051631b67c43360e31b81527f00000000000000000000000000000000000000000000000000000000000000006001600160a01b03169063db3e21989061041e90849060040161081d565b6020604051808303816000875af115801561043d573d6000803e3d6000fd5b505050506040513d601f19601f82011682018060405250810190610461919061088d565b9150828210156104d3576104ab73301944751abb2f5000c71b050b139e31aeae47207f000000000000000000000000000000000000000000000000000000000000000060006105e9565b6104d373301944751abb2f5000c71b050b139e31aeae4720336104ce85876108a6565b6106e9565b5092915050565b604080516001600160a01b0385811660248301528481166044830152606480830185905283518084039091018152608490920183526020820180516001600160e01b03166323b872dd60e01b179052915160009283929088169161053e91906108cb565b6000604051808303816000865af19150503d806000811461057b576040519150601f19603f3d011682016040523d82523d6000602084013e610580565b606091505b50915091508180156105aa5750805115806105aa5750808060200190518101906105aa9190610906565b6105e15760405162461bcd60e51b815260206004820152600360248201526229aa2360e91b60448201526064015b60405180910390fd5b505050505050565b604080516001600160a01b038481166024830152604480830185905283518084039091018152606490920183526020820180516001600160e01b031663095ea7b360e01b179052915160009283929087169161064591906108cb565b6000604051808303816000865af19150503d8060008114610682576040519150601f19603f3d011682016040523d82523d6000602084013e610687565b606091505b50915091508180156106b15750805115806106b15750808060200190518101906106b19190610906565b6106e25760405162461bcd60e51b8152602060048201526002602482015261534160f01b60448201526064016105d8565b5050505050565b604080516001600160a01b038481166024830152604480830185905283518084039091018152606490920183526020820180516001600160e01b031663a9059cbb60e01b179052915160009283929087169161074591906108cb565b6000604051808303816000865af19150503d8060008114610782576040519150601f19603f3d011682016040523d82523d6000602084013e610787565b606091505b50915091508180156107b15750805115806107b15750808060200190518101906107b19190610906565b6106e25760405162461bcd60e51b815260206004820152600260248201526114d560f21b60448201526064016105d8565b6000602082840312156107f457600080fd5b5035919050565b6000806040838503121561080e57600080fd5b50508035926020909101359150565b6101008101610887828480516001600160a01b03908116835260208083015182169084015260408083015162ffffff16908401526060808301518216908401526080808301519084015260a0828101519084015260c0808301519084015260e09182015116910152565b92915050565b60006020828403121561089f57600080fd5b5051919050565b6000828210156108c657634e487b7160e01b600052601160045260246000fd5b500390565b6000825160005b818110156108ec57602081860181015185830152016108d2565b818111156108fb576000828501525b509190910192915050565b60006020828403121561091857600080fd5b8151801515811461030757600080fdfea264697066735822122064efb236dc473dcdca9de3e5e38ec99182f27810aa4e2f523e519ad0ccbca1a164736f6c634300080d0033",
  "linkReferences": {},
  "deployedLinkReferences": {}
}