{
  "_format": "hh-sol-artifact-1",
  "contractName": "SwapExamples",
  "sourceName": "contracts/uni/MultiHopExamples.sol",
  "abi": [
    {
      "inputs": [
        {
          "internalType": "contract ISwapRouter",
          "name": "_swapRouter",
          "type": "address"
        }
      ],
      "stateMutability": "nonpayable",
      "type": "constructor"
    },
    {
      "inputs": [],
      "name": "DAI",
      "outputs": [
        {
          "internalType": "address",
          "name": "",
          "type": "address"
        }
      ],
      "stateMutability": "view",
      "type": "function"
    },
    {
      "inputs": [],
      "name": "USDC",
      "outputs": [
        {
          "internalType": "address",
          "name": "",
          "type": "address"
        }
      ],
      "stateMutability": "view",
      "type": "function"
    },
    {
      "inputs": [],
      "name": "WETH9",
      "outputs": [
        {
          "internalType": "address",
          "name": "",
          "type": "address"
        }
      ],
      "stateMutability": "view",
      "type": "function"
    },
    {
      "inputs": [],
      "name": "poolFee",
      "outputs": [
        {
          "internalType": "uint24",
          "name": "",
          "type": "uint24"
        }
      ],
      "stateMutability": "view",
      "type": "function"
    },
    {
      "inputs": [
        {
          "internalType": "uint256",
          "name": "amountIn",
          "type": "uint256"
        }
      ],
      "name": "swapExactInputMultihop",
      "outputs": [
        {
          "internalType": "uint256",
          "name": "amountOut",
          "type": "uint256"
        }
      ],
      "stateMutability": "nonpayable",
      "type": "function"
    },
    {
      "inputs": [
        {
          "internalType": "uint256",
          "name": "amountOut",
          "type": "uint256"
        },
        {
          "internalType": "uint256",
          "name": "amountInMaximum",
          "type": "uint256"
        }
      ],
      "name": "swapExactOutputMultihop",
      "outputs": [
        {
          "internalType": "uint256",
          "name": "amountIn",
          "type": "uint256"
        }
      ],
      "stateMutability": "nonpayable",
      "type": "function"
    },
    {
      "inputs": [],
      "name": "swapRouter",
      "outputs": [
        {
          "internalType": "contract ISwapRouter",
          "name": "",
          "type": "address"
        }
      ],
      "stateMutability": "view",
      "type": "function"
    }
  ],
  "bytecode": "0x60a060405234801561001057600080fd5b5060405161099438038061099483398101604081905261002f91610040565b6001600160a01b0316608052610070565b60006020828403121561005257600080fd5b81516001600160a01b038116811461006957600080fd5b9392505050565b6080516108e66100ae60003960008181610118015281816101a40152818161025e0152818161030f015281816103a1015261045c01526108e66000f3fe608060405234801561001057600080fd5b506004361061007d5760003560e01c806389a302711161005b57806389a30271146100f8578063c31c9c0714610113578063e0bab4c41461013a578063edd835571461015557600080fd5b8063089fe6aa146100825780633b85cf6a146100a45780634aa4a4fc146100c5575b600080fd5b61008b610bb881565b60405162ffffff90911681526020015b60405180910390f35b6100b76100b23660046106ff565b610168565b60405190815260200161009b565b6100e073c02aaa39b223fe8d0a0e5c4f27ead9083c756cc281565b6040516001600160a01b03909116815260200161009b565b6100e073a0b86991c6218b36c1d19d4a2e9eb0ce3606eb4881565b6100e07f000000000000000000000000000000000000000000000000000000000000000081565b6100e0736b175474e89094c44da98b954eedeac495271d0f81565b6100b7610163366004610721565b610365565b600061018a736b175474e89094c44da98b954eedeac495271d0f3330856104f0565b6101c9736b175474e89094c44da98b954eedeac495271d0f7f0000000000000000000000000000000000000000000000000000000000000000846105ff565b6040805160a081019091526000908061022773c02aaa39b223fe8d0a0e5c4f27ead9083c756cc2610bb873a0b86991c6218b36c1d19d4a2e9eb0ce3606eb4881736b175474e89094c44da98b954eedeac495271d0f60c0870161073a565b6040516020818303038152906040528152602001336001600160a01b031681526020014281526020018581526020018481525090507f00000000000000000000000000000000000000000000000000000000000000006001600160a01b031663f28c0498826040518263ffffffff1660e01b81526004016102a89190610821565b6020604051808303816000875af11580156102c7573d6000803e3d6000fd5b505050506040513d601f19601f820116820180604052508101906102eb9190610834565b91508282101561035e57610335736b175474e89094c44da98b954eedeac495271d0f7f000000000000000000000000000000000000000000000000000000000000000060006105ff565b61035e736b175474e89094c44da98b954eedeac495271d0f3033610359868861084d565b6104f0565b5092915050565b6000610387736b175474e89094c44da98b954eedeac495271d0f3330856104f0565b6103c6736b175474e89094c44da98b954eedeac495271d0f7f0000000000000000000000000000000000000000000000000000000000000000846105ff565b6040805160a0810190915260009080610424736b175474e89094c44da98b954eedeac495271d0f610bb873a0b86991c6218b36c1d19d4a2e9eb0ce3606eb488173c02aaa39b223fe8d0a0e5c4f27ead9083c756cc260c0870161073a565b6040516020818303038152906040528152602001336001600160a01b03168152602001428152602001848152602001600081525090507f00000000000000000000000000000000000000000000000000000000000000006001600160a01b031663c04b8d59826040518263ffffffff1660e01b81526004016104a69190610821565b6020604051808303816000875af11580156104c5573d6000803e3d6000fd5b505050506040513d601f19601f820116820180604052508101906104e99190610834565b9392505050565b604080516001600160a01b0385811660248301528481166044830152606480830185905283518084039091018152608490920183526020820180516001600160e01b03166323b872dd60e01b17905291516000928392908816916105549190610872565b6000604051808303816000865af19150503d8060008114610591576040519150601f19603f3d011682016040523d82523d6000602084013e610596565b606091505b50915091508180156105c05750805115806105c05750808060200190518101906105c0919061088e565b6105f75760405162461bcd60e51b815260206004820152600360248201526229aa2360e91b60448201526064015b60405180910390fd5b505050505050565b604080516001600160a01b038481166024830152604480830185905283518084039091018152606490920183526020820180516001600160e01b031663095ea7b360e01b179052915160009283929087169161065b9190610872565b6000604051808303816000865af19150503d8060008114610698576040519150601f19603f3d011682016040523d82523d6000602084013e61069d565b606091505b50915091508180156106c75750805115806106c75750808060200190518101906106c7919061088e565b6106f85760405162461bcd60e51b8152602060048201526002602482015261534160f01b60448201526064016105ee565b5050505050565b6000806040838503121561071257600080fd5b50508035926020909101359150565b60006020828403121561073357600080fd5b5035919050565b6bffffffffffffffffffffffff19606096871b811682526001600160e81b031960e896871b8116601484015294871b811660178301529290941b909216602b840152921b909116602e82015260420190565b60005b838110156107a757818101518382015260200161078f565b838111156107b6576000848401525b50505050565b6000815160a0845280518060a08601526107dd8160c087016020850161078c565b6020848101516001600160a01b0316908601526040808501519086015260608085015190860152608093840151938501939093525050601f01601f19160160c00190565b6020815260006104e960208301846107bc565b60006020828403121561084657600080fd5b5051919050565b60008282101561086d57634e487b7160e01b600052601160045260246000fd5b500390565b6000825161088481846020870161078c565b9190910192915050565b6000602082840312156108a057600080fd5b815180151581146104e957600080fdfea2646970667358221220d5373365886425484e0de7027c3d953982ea8bdcab668da6e8a77054e3f52f0664736f6c634300080d0033",
  "linkReferences": {},
  "deployedLinkReferences": {}
}