{
  "_format": "hh-sol-artifact-1",
  "contractName": "HumbleDonations",
  "sourceName": "contracts/HumbleDonations.sol",
  "abi": [
    {
      "inputs": [],
      "stateMutability": "nonpayable",
      "type": "constructor"
    },
    {
      "inputs": [
        {
          "internalType": "address",
          "name": "target",
          "type": "address"
        }
      ],
      "name": "AddressEmptyCode",
      "type": "error"
    },
    {
      "inputs": [
        {
          "internalType": "address",
          "name": "account",
          "type": "address"
        }
      ],
      "name": "AddressInsufficientBalance",
      "type": "error"
    },
    {
      "inputs": [
        {
          "internalType": "address",
          "name": "implementation",
          "type": "address"
        }
      ],
      "name": "ERC1967InvalidImplementation",
      "type": "error"
    },
    {
      "inputs": [],
      "name": "ERC1967NonPayable",
      "type": "error"
    },
    {
      "inputs": [
        {
          "internalType": "address",
          "name": "sender",
          "type": "address"
        },
        {
          "internalType": "uint256",
          "name": "tokenId",
          "type": "uint256"
        },
        {
          "internalType": "address",
          "name": "owner",
          "type": "address"
        }
      ],
      "name": "ERC721IncorrectOwner",
      "type": "error"
    },
    {
      "inputs": [
        {
          "internalType": "address",
          "name": "operator",
          "type": "address"
        },
        {
          "internalType": "uint256",
          "name": "tokenId",
          "type": "uint256"
        }
      ],
      "name": "ERC721InsufficientApproval",
      "type": "error"
    },
    {
      "inputs": [
        {
          "internalType": "address",
          "name": "approver",
          "type": "address"
        }
      ],
      "name": "ERC721InvalidApprover",
      "type": "error"
    },
    {
      "inputs": [
        {
          "internalType": "address",
          "name": "operator",
          "type": "address"
        }
      ],
      "name": "ERC721InvalidOperator",
      "type": "error"
    },
    {
      "inputs": [
        {
          "internalType": "address",
          "name": "owner",
          "type": "address"
        }
      ],
      "name": "ERC721InvalidOwner",
      "type": "error"
    },
    {
      "inputs": [
        {
          "internalType": "address",
          "name": "receiver",
          "type": "address"
        }
      ],
      "name": "ERC721InvalidReceiver",
      "type": "error"
    },
    {
      "inputs": [
        {
          "internalType": "address",
          "name": "sender",
          "type": "address"
        }
      ],
      "name": "ERC721InvalidSender",
      "type": "error"
    },
    {
      "inputs": [
        {
          "internalType": "uint256",
          "name": "tokenId",
          "type": "uint256"
        }
      ],
      "name": "ERC721NonexistentToken",
      "type": "error"
    },
    {
      "inputs": [],
      "name": "FailedInnerCall",
      "type": "error"
    },
    {
      "inputs": [],
      "name": "InvalidInitialization",
      "type": "error"
    },
    {
      "inputs": [],
      "name": "NotInitializing",
      "type": "error"
    },
    {
      "inputs": [
        {
          "internalType": "address",
          "name": "owner",
          "type": "address"
        }
      ],
      "name": "OwnableInvalidOwner",
      "type": "error"
    },
    {
      "inputs": [
        {
          "internalType": "address",
          "name": "account",
          "type": "address"
        }
      ],
      "name": "OwnableUnauthorizedAccount",
      "type": "error"
    },
    {
      "inputs": [],
      "name": "ReentrancyGuardReentrantCall",
      "type": "error"
    },
    {
      "inputs": [
        {
          "internalType": "address",
          "name": "token",
          "type": "address"
        }
      ],
      "name": "SafeERC20FailedOperation",
      "type": "error"
    },
    {
      "inputs": [],
      "name": "UUPSUnauthorizedCallContext",
      "type": "error"
    },
    {
      "inputs": [
        {
          "internalType": "bytes32",
          "name": "slot",
          "type": "bytes32"
        }
      ],
      "name": "UUPSUnsupportedProxiableUUID",
      "type": "error"
    },
    {
      "anonymous": false,
      "inputs": [
        {
          "indexed": true,
          "internalType": "address",
          "name": "owner",
          "type": "address"
        },
        {
          "indexed": true,
          "internalType": "address",
          "name": "approved",
          "type": "address"
        },
        {
          "indexed": true,
          "internalType": "uint256",
          "name": "tokenId",
          "type": "uint256"
        }
      ],
      "name": "Approval",
      "type": "event"
    },
    {
      "anonymous": false,
      "inputs": [
        {
          "indexed": true,
          "internalType": "address",
          "name": "owner",
          "type": "address"
        },
        {
          "indexed": true,
          "internalType": "address",
          "name": "operator",
          "type": "address"
        },
        {
          "indexed": false,
          "internalType": "bool",
          "name": "approved",
          "type": "bool"
        }
      ],
      "name": "ApprovalForAll",
      "type": "event"
    },
    {
      "anonymous": false,
      "inputs": [
        {
          "indexed": false,
          "internalType": "uint256",
          "name": "_fromTokenId",
          "type": "uint256"
        },
        {
          "indexed": false,
          "internalType": "uint256",
          "name": "_toTokenId",
          "type": "uint256"
        }
      ],
      "name": "BatchMetadataUpdate",
      "type": "event"
    },
    {
      "anonymous": false,
      "inputs": [
        {
          "indexed": true,
          "internalType": "uint256",
          "name": "tokenId",
          "type": "uint256"
        },
        {
          "indexed": true,
          "internalType": "address",
          "name": "donor",
          "type": "address"
        },
        {
          "indexed": false,
          "internalType": "address",
          "name": "erc20Token",
          "type": "address"
        },
        {
          "indexed": false,
          "internalType": "uint256",
          "name": "amount",
          "type": "uint256"
        },
        {
          "indexed": false,
          "internalType": "uint256",
          "name": "timestamp",
          "type": "uint256"
        }
      ],
      "name": "DonationMade",
      "type": "event"
    },
    {
      "anonymous": false,
      "inputs": [
        {
          "indexed": false,
          "internalType": "uint64",
          "name": "version",
          "type": "uint64"
        }
      ],
      "name": "Initialized",
      "type": "event"
    },
    {
      "anonymous": false,
      "inputs": [
        {
          "indexed": false,
          "internalType": "uint256",
          "name": "_tokenId",
          "type": "uint256"
        }
      ],
      "name": "MetadataUpdate",
      "type": "event"
    },
    {
      "anonymous": false,
      "inputs": [
        {
          "indexed": true,
          "internalType": "address",
          "name": "previousOwner",
          "type": "address"
        },
        {
          "indexed": true,
          "internalType": "address",
          "name": "newOwner",
          "type": "address"
        }
      ],
      "name": "OwnershipTransferred",
      "type": "event"
    },
    {
      "anonymous": false,
      "inputs": [
        {
          "indexed": true,
          "internalType": "uint256",
          "name": "tokenId",
          "type": "uint256"
        },
        {
          "indexed": true,
          "internalType": "address",
          "name": "owner",
          "type": "address"
        },
        {
          "indexed": false,
          "internalType": "string",
          "name": "projectTitle",
          "type": "string"
        },
        {
          "indexed": false,
          "internalType": "string",
          "name": "uri",
          "type": "string"
        },
        {
          "indexed": false,
          "internalType": "uint256",
          "name": "timestamp",
          "type": "uint256"
        }
      ],
      "name": "ProjectCreated",
      "type": "event"
    },
    {
      "anonymous": false,
      "inputs": [
        {
          "indexed": true,
          "internalType": "uint256",
          "name": "tokenId",
          "type": "uint256"
        },
        {
          "indexed": true,
          "internalType": "address",
          "name": "previousOwner",
          "type": "address"
        },
        {
          "indexed": true,
          "internalType": "address",
          "name": "burnAddress",
          "type": "address"
        },
        {
          "indexed": false,
          "internalType": "uint256",
          "name": "timestamp",
          "type": "uint256"
        }
      ],
      "name": "ProjectDeleted",
      "type": "event"
    },
    {
      "anonymous": false,
      "inputs": [
        {
          "indexed": true,
          "internalType": "address",
          "name": "from",
          "type": "address"
        },
        {
          "indexed": true,
          "internalType": "address",
          "name": "to",
          "type": "address"
        },
        {
          "indexed": true,
          "internalType": "uint256",
          "name": "tokenId",
          "type": "uint256"
        }
      ],
      "name": "Transfer",
      "type": "event"
    },
    {
      "anonymous": false,
      "inputs": [
        {
          "indexed": true,
          "internalType": "address",
          "name": "implementation",
          "type": "address"
        }
      ],
      "name": "Upgraded",
      "type": "event"
    },
    {
      "inputs": [],
      "name": "HDT",
      "outputs": [
        {
          "internalType": "address",
          "name": "",
          "type": "address"
        }
      ],
      "stateMutability": "view",
      "type": "function"
    },
    {
      "inputs": [],
      "name": "UPGRADE_INTERFACE_VERSION",
      "outputs": [
        {
          "internalType": "string",
          "name": "",
          "type": "string"
        }
      ],
      "stateMutability": "view",
      "type": "function"
    },
    {
      "inputs": [],
      "name": "WETH",
      "outputs": [
        {
          "internalType": "address",
          "name": "",
          "type": "address"
        }
      ],
      "stateMutability": "view",
      "type": "function"
    },
    {
      "inputs": [
        {
          "internalType": "address",
          "name": "to",
          "type": "address"
        },
        {
          "internalType": "uint256",
          "name": "tokenId",
          "type": "uint256"
        }
      ],
      "name": "approve",
      "outputs": [],
      "stateMutability": "nonpayable",
      "type": "function"
    },
    {
      "inputs": [
        {
          "internalType": "address",
          "name": "owner",
          "type": "address"
        }
      ],
      "name": "balanceOf",
      "outputs": [
        {
          "internalType": "uint256",
          "name": "",
          "type": "uint256"
        }
      ],
      "stateMutability": "view",
      "type": "function"
    },
    {
      "inputs": [
        {
          "internalType": "uint256",
          "name": "tokenId",
          "type": "uint256"
        }
      ],
      "name": "burn",
      "outputs": [],
      "stateMutability": "nonpayable",
      "type": "function"
    },
    {
      "inputs": [
        {
          "internalType": "uint256",
          "name": "tokenId",
          "type": "uint256"
        }
      ],
      "name": "burnToken",
      "outputs": [],
      "stateMutability": "nonpayable",
      "type": "function"
    },
    {
      "inputs": [
        {
          "internalType": "uint256",
          "name": "tokenId",
          "type": "uint256"
        },
        {
          "internalType": "address",
          "name": "erc20Token",
          "type": "address"
        },
        {
          "internalType": "uint256",
          "name": "amount",
          "type": "uint256"
        },
        {
          "internalType": "uint256",
          "name": "slippageWETH",
          "type": "uint256"
        },
        {
          "internalType": "uint256",
          "name": "slippageHDT",
          "type": "uint256"
        },
        {
          "internalType": "bytes32[]",
          "name": "proof",
          "type": "bytes32[]"
        }
      ],
      "name": "donate",
      "outputs": [],
      "stateMutability": "payable",
      "type": "function"
    },
    {
      "inputs": [
        {
          "internalType": "uint256",
          "name": "tokenId",
          "type": "uint256"
        }
      ],
      "name": "getApproved",
      "outputs": [
        {
          "internalType": "address",
          "name": "",
          "type": "address"
        }
      ],
      "stateMutability": "view",
      "type": "function"
    },
    {
      "inputs": [],
      "name": "getHDT",
      "outputs": [
        {
          "internalType": "address",
          "name": "",
          "type": "address"
        }
      ],
      "stateMutability": "view",
      "type": "function"
    },
    {
      "inputs": [
        {
          "internalType": "string",
          "name": "projectTitle",
          "type": "string"
        }
      ],
      "name": "getOwnerByProjectTitle",
      "outputs": [
        {
          "internalType": "address",
          "name": "",
          "type": "address"
        }
      ],
      "stateMutability": "view",
      "type": "function"
    },
    {
      "inputs": [],
      "name": "getPercentage",
      "outputs": [
        {
          "internalType": "uint256",
          "name": "",
          "type": "uint256"
        }
      ],
      "stateMutability": "view",
      "type": "function"
    },
    {
      "inputs": [
        {
          "internalType": "string",
          "name": "projectTitle",
          "type": "string"
        }
      ],
      "name": "getTokenId",
      "outputs": [
        {
          "internalType": "uint256",
          "name": "",
          "type": "uint256"
        }
      ],
      "stateMutability": "view",
      "type": "function"
    },
    {
      "inputs": [],
      "name": "getUpgradeCount",
      "outputs": [
        {
          "internalType": "uint256",
          "name": "",
          "type": "uint256"
        }
      ],
      "stateMutability": "view",
      "type": "function"
    },
    {
      "inputs": [],
      "name": "getWETH",
      "outputs": [
        {
          "internalType": "address",
          "name": "",
          "type": "address"
        }
      ],
      "stateMutability": "view",
      "type": "function"
    },
    {
      "inputs": [],
      "name": "get_mintRate",
      "outputs": [
        {
          "internalType": "uint256",
          "name": "",
          "type": "uint256"
        }
      ],
      "stateMutability": "view",
      "type": "function"
    },
    {
      "inputs": [
        {
          "internalType": "address",
          "name": "initialOwner",
          "type": "address"
        }
      ],
      "name": "initialize",
      "outputs": [],
      "stateMutability": "nonpayable",
      "type": "function"
    },
    {
      "inputs": [
        {
          "internalType": "address",
          "name": "owner",
          "type": "address"
        },
        {
          "internalType": "address",
          "name": "operator",
          "type": "address"
        }
      ],
      "name": "isApprovedForAll",
      "outputs": [
        {
          "internalType": "bool",
          "name": "",
          "type": "bool"
        }
      ],
      "stateMutability": "view",
      "type": "function"
    },
    {
      "inputs": [
        {
          "internalType": "address",
          "name": "erc20Token",
          "type": "address"
        },
        {
          "internalType": "bytes32[]",
          "name": "proof",
          "type": "bytes32[]"
        }
      ],
      "name": "isTokenWhitelisted",
      "outputs": [
        {
          "internalType": "bool",
          "name": "",
          "type": "bool"
        }
      ],
      "stateMutability": "view",
      "type": "function"
    },
    {
      "inputs": [],
      "name": "latestTokenId",
      "outputs": [
        {
          "internalType": "uint256",
          "name": "",
          "type": "uint256"
        }
      ],
      "stateMutability": "view",
      "type": "function"
    },
    {
      "inputs": [],
      "name": "merkleRoot",
      "outputs": [
        {
          "internalType": "bytes32",
          "name": "",
          "type": "bytes32"
        }
      ],
      "stateMutability": "view",
      "type": "function"
    },
    {
      "inputs": [],
      "name": "mintRate",
      "outputs": [
        {
          "internalType": "uint256",
          "name": "",
          "type": "uint256"
        }
      ],
      "stateMutability": "view",
      "type": "function"
    },
    {
      "inputs": [],
      "name": "name",
      "outputs": [
        {
          "internalType": "string",
          "name": "",
          "type": "string"
        }
      ],
      "stateMutability": "view",
      "type": "function"
    },
    {
      "inputs": [],
      "name": "owner",
      "outputs": [
        {
          "internalType": "address",
          "name": "",
          "type": "address"
        }
      ],
      "stateMutability": "view",
      "type": "function"
    },
    {
      "inputs": [
        {
          "internalType": "uint256",
          "name": "tokenId",
          "type": "uint256"
        }
      ],
      "name": "ownerOf",
      "outputs": [
        {
          "internalType": "address",
          "name": "",
          "type": "address"
        }
      ],
      "stateMutability": "view",
      "type": "function"
    },
    {
      "inputs": [],
      "name": "poolFee",
      "outputs": [
        {
          "internalType": "uint24",
          "name": "",
          "type": "uint24"
        }
      ],
      "stateMutability": "view",
      "type": "function"
    },
    {
      "inputs": [
        {
          "internalType": "string",
          "name": "",
          "type": "string"
        }
      ],
      "name": "projectTitleToTokenId",
      "outputs": [
        {
          "internalType": "uint256",
          "name": "",
          "type": "uint256"
        }
      ],
      "stateMutability": "view",
      "type": "function"
    },
    {
      "inputs": [],
      "name": "proxiableUUID",
      "outputs": [
        {
          "internalType": "bytes32",
          "name": "",
          "type": "bytes32"
        }
      ],
      "stateMutability": "view",
      "type": "function"
    },
    {
      "inputs": [],
      "name": "renounceOwnership",
      "outputs": [],
      "stateMutability": "nonpayable",
      "type": "function"
    },
    {
      "inputs": [
        {
          "internalType": "address",
          "name": "to",
          "type": "address"
        },
        {
          "internalType": "string",
          "name": "uri",
          "type": "string"
        },
        {
          "internalType": "string",
          "name": "projectTitle",
          "type": "string"
        }
      ],
      "name": "safeMint",
      "outputs": [],
      "stateMutability": "payable",
      "type": "function"
    },
    {
      "inputs": [
        {
          "internalType": "address",
          "name": "from",
          "type": "address"
        },
        {
          "internalType": "address",
          "name": "to",
          "type": "address"
        },
        {
          "internalType": "uint256",
          "name": "tokenId",
          "type": "uint256"
        }
      ],
      "name": "safeTransferFrom",
      "outputs": [],
      "stateMutability": "nonpayable",
      "type": "function"
    },
    {
      "inputs": [
        {
          "internalType": "address",
          "name": "from",
          "type": "address"
        },
        {
          "internalType": "address",
          "name": "to",
          "type": "address"
        },
        {
          "internalType": "uint256",
          "name": "tokenId",
          "type": "uint256"
        },
        {
          "internalType": "bytes",
          "name": "data",
          "type": "bytes"
        }
      ],
      "name": "safeTransferFrom",
      "outputs": [],
      "stateMutability": "nonpayable",
      "type": "function"
    },
    {
      "inputs": [
        {
          "internalType": "address",
          "name": "operator",
          "type": "address"
        },
        {
          "internalType": "bool",
          "name": "approved",
          "type": "bool"
        }
      ],
      "name": "setApprovalForAll",
      "outputs": [],
      "stateMutability": "nonpayable",
      "type": "function"
    },
    {
      "inputs": [
        {
          "internalType": "address",
          "name": "_HDT",
          "type": "address"
        }
      ],
      "name": "setHDT",
      "outputs": [],
      "stateMutability": "nonpayable",
      "type": "function"
    },
    {
      "inputs": [
        {
          "internalType": "bytes32",
          "name": "_merkleRoot",
          "type": "bytes32"
        }
      ],
      "name": "setMerkleRoot",
      "outputs": [],
      "stateMutability": "nonpayable",
      "type": "function"
    },
    {
      "inputs": [
        {
          "internalType": "uint256",
          "name": "tax",
          "type": "uint256"
        }
      ],
      "name": "setTaxPercentage",
      "outputs": [],
      "stateMutability": "nonpayable",
      "type": "function"
    },
    {
      "inputs": [
        {
          "internalType": "address",
          "name": "_WETH",
          "type": "address"
        }
      ],
      "name": "setWETH",
      "outputs": [],
      "stateMutability": "nonpayable",
      "type": "function"
    },
    {
      "inputs": [
        {
          "internalType": "uint256",
          "name": "_mintRate",
          "type": "uint256"
        }
      ],
      "name": "set_mintRate",
      "outputs": [],
      "stateMutability": "nonpayable",
      "type": "function"
    },
    {
      "inputs": [
        {
          "internalType": "bytes4",
          "name": "interfaceId",
          "type": "bytes4"
        }
      ],
      "name": "supportsInterface",
      "outputs": [
        {
          "internalType": "bool",
          "name": "",
          "type": "bool"
        }
      ],
      "stateMutability": "view",
      "type": "function"
    },
    {
      "inputs": [],
      "name": "swapRouter",
      "outputs": [
        {
          "internalType": "contract IV3SwapRouter",
          "name": "",
          "type": "address"
        }
      ],
      "stateMutability": "view",
      "type": "function"
    },
    {
      "inputs": [],
      "name": "symbol",
      "outputs": [
        {
          "internalType": "string",
          "name": "",
          "type": "string"
        }
      ],
      "stateMutability": "view",
      "type": "function"
    },
    {
      "inputs": [],
      "name": "taxPercentage",
      "outputs": [
        {
          "internalType": "uint256",
          "name": "",
          "type": "uint256"
        }
      ],
      "stateMutability": "view",
      "type": "function"
    },
    {
      "inputs": [
        {
          "internalType": "uint256",
          "name": "",
          "type": "uint256"
        }
      ],
      "name": "tokenIdToProjectTitle",
      "outputs": [
        {
          "internalType": "string",
          "name": "",
          "type": "string"
        }
      ],
      "stateMutability": "view",
      "type": "function"
    },
    {
      "inputs": [
        {
          "internalType": "uint256",
          "name": "tokenId",
          "type": "uint256"
        }
      ],
      "name": "tokenURI",
      "outputs": [
        {
          "internalType": "string",
          "name": "",
          "type": "string"
        }
      ],
      "stateMutability": "view",
      "type": "function"
    },
    {
      "inputs": [
        {
          "internalType": "address",
          "name": "from",
          "type": "address"
        },
        {
          "internalType": "address",
          "name": "to",
          "type": "address"
        },
        {
          "internalType": "uint256",
          "name": "tokenId",
          "type": "uint256"
        }
      ],
      "name": "transferFrom",
      "outputs": [],
      "stateMutability": "nonpayable",
      "type": "function"
    },
    {
      "inputs": [
        {
          "internalType": "address",
          "name": "newOwner",
          "type": "address"
        }
      ],
      "name": "transferOwnership",
      "outputs": [],
      "stateMutability": "nonpayable",
      "type": "function"
    },
    {
      "inputs": [],
      "name": "upgradeCount",
      "outputs": [
        {
          "internalType": "uint256",
          "name": "",
          "type": "uint256"
        }
      ],
      "stateMutability": "view",
      "type": "function"
    },
    {
      "inputs": [
        {
          "internalType": "address",
          "name": "newImplementation",
          "type": "address"
        },
        {
          "internalType": "bytes",
          "name": "data",
          "type": "bytes"
        }
      ],
      "name": "upgradeToAndCall",
      "outputs": [],
      "stateMutability": "payable",
      "type": "function"
    },
    {
      "inputs": [],
      "name": "withdraw",
      "outputs": [],
      "stateMutability": "nonpayable",
      "type": "function"
    },
    {
      "inputs": [
        {
          "internalType": "address",
          "name": "erc20Token",
          "type": "address"
        },
        {
          "internalType": "uint256",
          "name": "amount",
          "type": "uint256"
        }
      ],
      "name": "withdrawToken",
      "outputs": [],
      "stateMutability": "nonpayable",
      "type": "function"
    }
  ],
  "bytecode": "0x60c0604052306080527368b3465833fb72a70ecdf485e0e4c7bd8665fc4560a0523480156200002d57600080fd5b50620000386200003e565b620000f2565b7ff0c57e16840df040f15088dc2f81fe391c3923bec73e23a9662efc9c229c6a00805468010000000000000000900460ff16156200008f5760405163f92ee8a960e01b815260040160405180910390fd5b80546001600160401b0390811614620000ef5780546001600160401b0319166001600160401b0390811782556040519081527fc7f505b2f371ae2175ee4913f4499e1f2633a7b5936321eed1cdaeb6115181d29060200160405180910390a15b50565b60805160a051613f0e62000149600039600081816107b60152818161200d0152818161210b015281816122150152818161231401526123930152600081816124fc01528181612525015261267e0152613f0e6000f3fe6080604052600436106102c95760003560e01c80637cb6475911610175578063ae7b6d16116100dc578063ca0dcf1611610095578063e8ba1dff1161006f578063e8ba1dff1461089a578063e985e9c5146108af578063eca81d42146108cf578063f2fde38b146108e257600080fd5b8063ca0dcf161461082e578063cae5f11e14610844578063cd99b0101461086257600080fd5b8063ae7b6d161461076e578063b88d4fde14610784578063c31c9c07146107a4578063c4128b6d146107d8578063c4d66de8146107ee578063c87b56dd1461080e57600080fd5b80639e281a981161012e5780639e281a981461069d5780639f4a7c10146106bd578063a01d3712146106dd578063a22cb465146106fd578063ad3cb1cc1461071d578063ad5c46481461074e57600080fd5b80637cb64759146105d65780638c0e8349146105f65780638da5cb5b1461060b57806391f7e39714610648578063930baae81461066857806395d89b411461068857600080fd5b80634744f619116102345780635fea0294116101ed5780636fa2fd59116101c75780636fa2fd591461056c57806370a0823114610581578063715018a6146105a15780637b47ec1a146105b657600080fd5b80635fea02941461050e5780636352211e1461052c578063699abb3c1461054c57600080fd5b80634744f619146104735780634a9957f4146104935780634f1ef286146104a657806352d1902d146104b957806356b1ddbb146104ce5780635b769f3c146104ee57600080fd5b80631e7663bc116102865780631e7663bc146103c857806323b872dd146103e85780632eb4a7ab146104085780633ccfd60b1461041e57806342842e0e1461043357806342966c681461045357600080fd5b806301ffc9a7146102ce57806306fdde0314610303578063081812fc14610325578063089fe6aa1461035d578063095ea7b3146103875780630b2accb2146103a9575b600080fd5b3480156102da57600080fd5b506102ee6102e9366004613678565b610902565b60405190151581526020015b60405180910390f35b34801561030f57600080fd5b50610318610913565b6040516102fa91906136e5565b34801561033157600080fd5b506103456103403660046136f8565b6109b7565b6040516001600160a01b0390911681526020016102fa565b34801561036957600080fd5b50610373610bb881565b60405162ffffff90911681526020016102fa565b34801561039357600080fd5b506103a76103a236600461372d565b6109cc565b005b3480156103b557600080fd5b506005545b6040519081526020016102fa565b3480156103d457600080fd5b506103ba6103e33660046137fa565b6109db565b3480156103f457600080fd5b506103a761040336600461382f565b610a03565b34801561041457600080fd5b506103ba60085481565b34801561042a57600080fd5b506103a7610a7a565b34801561043f57600080fd5b506103a761044e36600461382f565b610b0f565b34801561045f57600080fd5b506103a761046e3660046136f8565b610b2a565b34801561047f57600080fd5b506103a761048e3660046136f8565b610b36565b6103a76104a13660046138b7565b610b43565b6103a76104b4366004613932565b61108a565b3480156104c557600080fd5b506103ba6110a5565b3480156104da57600080fd5b50600354610345906001600160a01b031681565b3480156104fa57600080fd5b506103a7610509366004613980565b6110c2565b34801561051a57600080fd5b506003546001600160a01b0316610345565b34801561053857600080fd5b506103456105473660046136f8565b6110ec565b34801561055857600080fd5b506103a76105673660046136f8565b6110f7565b34801561057857600080fd5b506002546103ba565b34801561058d57600080fd5b506103ba61059c366004613980565b611156565b3480156105ad57600080fd5b506103a76111b2565b3480156105c257600080fd5b506103a76105d13660046136f8565b6111c6565b3480156105e257600080fd5b506103a76105f13660046136f8565b611362565b34801561060257600080fd5b506007546103ba565b34801561061757600080fd5b507f9016d09d72d40fdae2fd8ceac6b6234c7706214fd39c1cd1e609a0528c199300546001600160a01b0316610345565b34801561065457600080fd5b506103456106633660046137fa565b61136f565b34801561067457600080fd5b506103a7610683366004613980565b6113b4565b34801561069457600080fd5b506103186113de565b3480156106a957600080fd5b506103a76106b836600461372d565b61141d565b3480156106c957600080fd5b506103186106d83660046136f8565b611549565b3480156106e957600080fd5b506102ee6106f836600461399b565b6115e3565b34801561070957600080fd5b506103a76107183660046139fc565b611669565b34801561072957600080fd5b50610318604051806040016040528060058152602001640352e302e360dc1b81525081565b34801561075a57600080fd5b50600454610345906001600160a01b031681565b34801561077a57600080fd5b506103ba60055481565b34801561079057600080fd5b506103a761079f366004613a33565b611674565b3480156107b057600080fd5b506103457f000000000000000000000000000000000000000000000000000000000000000081565b3480156107e457600080fd5b506103ba60025481565b3480156107fa57600080fd5b506103a7610809366004613980565b611691565b34801561081a57600080fd5b506103186108293660046136f8565b61182c565b34801561083a57600080fd5b506103ba60065481565b34801561085057600080fd5b506004546001600160a01b0316610345565b34801561086e57600080fd5b506103ba61087d3660046137fa565b805160208183018101805160018252928201919093012091525481565b3480156108a657600080fd5b506006546103ba565b3480156108bb57600080fd5b506102ee6108ca366004613a9b565b611837565b6103a76108dd366004613ace565b611884565b3480156108ee57600080fd5b506103a76108fd366004613980565b611b0a565b600061090d82611b45565b92915050565b600080516020613e79833981519152805460609190819061093390613b42565b80601f016020809104026020016040519081016040528092919081815260200182805461095f90613b42565b80156109ac5780601f10610981576101008083540402835291602001916109ac565b820191906000526020600020905b81548152906001019060200180831161098f57829003601f168201915b505050505091505090565b60006109c282611b6a565b5061090d82611ba2565b6109d7828233611bdc565b5050565b60006001826040516109ed9190613b7c565b9081526020016040518091039020549050919050565b610a0c82611156565b15610a6a5760405162461bcd60e51b8152602060048201526024808201527f526563697069656e7420616c7265616479206f776e7320612070726f6a6563746044820152630813919560e21b60648201526084015b60405180910390fd5b610a75838383611be9565b505050565b610a82611c6e565b604051600090339047908381818185875af1925050503d8060008114610ac4576040519150601f19603f3d011682016040523d82523d6000602084013e610ac9565b606091505b5050905080610b0c5760405162461bcd60e51b815260206004820152600f60248201526e151c985b9cd9995c8811985a5b1959608a1b6044820152606401610a61565b50565b610a7583838360405180602001604052806000815250611674565b6109d760008233611cc9565b610b3e611c6e565b600655565b610b4b611dd3565b6000610b56886110ec565b90506001600160a01b0381163303610ba65760405162461bcd60e51b815260206004820152601360248201527221b0b73737ba103830bc903cb7bab939b2b63360691b6044820152606401610a61565b60008881526020819052604081208054610bbf90613b42565b905011610c065760405162461bcd60e51b8152602060048201526015602482015274141c9bda9958dd081d1a5d1b19481b9bdd081cd95d605a1b6044820152606401610a61565b6001610c1182611156565b1115610c7a5760405162461bcd60e51b815260206004820152603260248201527f546f6b656e206f776e657220616c7265616479206f776e73206d6f7265207468604482015271185b881bdb99481c1c9bda9958dd0813919560721b6064820152608401610a61565b60008611610cca5760405162461bcd60e51b815260206004820152601860248201527f496e70757420616d6f756e742063616e6e6f74206265203000000000000000006044820152606401610a61565b6000806103e860055489610cde9190613bae565b610ce89190613bc5565b60035490915089906001600160a01b03808316911614610f4b57610d0c828a613be7565b92506001600160a01b038a16610e165788341015610d6c5760405162461bcd60e51b815260206004820152601c60248201527f496e636f727265637420616d6f756e74206f66204554482073656e74000000006044820152606401610a61565b610d768288611e0b565b506000846001600160a01b03168460405160006040518083038185875af1925050503d8060008114610dc4576040519150601f19603f3d011682016040523d82523d6000602084013e610dc9565b606091505b5050905080610e105760405162461bcd60e51b8152602060048201526013602482015272115512081d1c985b9cd9995c8819985a5b1959606a1b6044820152606401610a61565b5061101a565b610e218a87876115e3565b610e6d5760405162461bcd60e51b815260206004820152601860248201527f546f6b656e206973206e6f742077686974656c697374656400000000000000006044820152606401610a61565b604051636eb1769f60e11b815233600482015230602482015289906001600160a01b0383169063dd62ed3e90604401602060405180830381865afa158015610eb9573d6000803e3d6000fd5b505050506040513d601f19601f82011682018060405250810190610edd9190613bfa565b1015610f245760405162461bcd60e51b8152602060048201526016602482015275496e73756666696369656e7420616c6c6f77616e636560501b6044820152606401610a61565b610f308a838a8a6120ee565b50610f466001600160a01b038216338686612476565b61101a565b604051636eb1769f60e11b815233600482015230602482015289935083906001600160a01b0383169063dd62ed3e90604401602060405180830381865afa158015610f9a573d6000803e3d6000fd5b505050506040513d601f19601f82011682018060405250810190610fbe9190613bfa565b10156110055760405162461bcd60e51b8152602060048201526016602482015275496e73756666696369656e7420616c6c6f77616e636560501b6044820152606401610a61565b61101a6001600160a01b038216338686612476565b604080516001600160a01b038c168152602081018590524281830152905133918d917fda38851157f2984cc47615155e6daa02931c36f0ecaa4822d8b631b5b368eb6e9181900360600190a3505050506110816001600080516020613eb983398151915255565b50505050505050565b6110926124f1565b61109b82612596565b6109d782826125b6565b60006110af612673565b50600080516020613e9983398151915290565b6110ca611c6e565b600480546001600160a01b0319166001600160a01b0392909216919091179055565b600061090d82611b6a565b6110ff611c6e565b61012c8111156111515760405162461bcd60e51b815260206004820152601d60248201527f7461782063616e6e6f7420626520686967686572207468616e203330250000006044820152606401610a61565b600555565b6000600080516020613e798339815191526001600160a01b038316611191576040516322718ad960e21b815260006004820152602401610a61565b6001600160a01b039092166000908152600390920160205250604090205490565b6111ba611c6e565b6111c460006126bc565b565b60006111d1826110ec565b9050336111dd836110ec565b6001600160a01b0316146112335760405162461bcd60e51b815260206004820152601760248201527f43616c6c6572206973206e6f7420746865206f776e65720000000000000000006044820152606401610a61565b6000828152602081905260408120805461124c90613b42565b80601f016020809104026020016040519081016040528092919081815260200182805461127890613b42565b80156112c55780601f1061129a576101008083540402835291602001916112c5565b820191906000526020600020905b8154815290600101906020018083116112a857829003601f168201915b505050505090506112d58361272d565b60008381526020819052604081206112ec91613614565b6001816040516112fc9190613b7c565b90815260200160405180910390206000905560006001600160a01b0316826001600160a01b0316847f4ef8c0478b7cb23d7c76bbb226f7898438ece317e83af2b79f9a015974efcc7f4260405161135591815260200190565b60405180910390a4505050565b61136a611c6e565b600855565b6000806001836040516113829190613b7c565b9081526020016040518091039020549050806000146113ab576113a4816110ec565b9392505050565b50600092915050565b6113bc611c6e565b600380546001600160a01b0319166001600160a01b0392909216919091179055565b7f80bb2b638cc20bc4d0a60d66940f3ab4a00c1d7b313497ca82fb0b4ab00793018054606091600080516020613e798339815191529161093390613b42565b611425611c6e565b6001600160a01b03821661147b5760405162461bcd60e51b815260206004820152601c60248201527f496e76616c6964204552432d323020746f6b656e2061646472657373000000006044820152606401610a61565b6040516370a0823160e01b8152306004820152829082906001600160a01b038316906370a0823190602401602060405180830381865afa1580156114c3573d6000803e3d6000fd5b505050506040513d601f19601f820116820180604052508101906114e79190613bfa565b10156115355760405162461bcd60e51b815260206004820152601a60248201527f496e73756666696369656e7420746f6b656e2062616c616e63650000000000006044820152606401610a61565b610a756001600160a01b0382163384612768565b6000602081905290815260409020805461156290613b42565b80601f016020809104026020016040519081016040528092919081815260200182805461158e90613b42565b80156115db5780601f106115b0576101008083540402835291602001916115db565b820191906000526020600020905b8154815290600101906020018083116115be57829003601f168201915b505050505081565b6040516bffffffffffffffffffffffff19606085901b1660208201526000908190603401604051602081830303815290604052805190602001209050611660848480806020026020016040519081016040528093929190818152602001838360200280828437600092019190915250506008549150849050612799565b95945050505050565b6109d73383836127af565b61167f848484610a03565b61168b84848484612860565b50505050565b7ff0c57e16840df040f15088dc2f81fe391c3923bec73e23a9662efc9c229c6a008054600160401b810460ff16159067ffffffffffffffff166000811580156116d75750825b905060008267ffffffffffffffff1660011480156116f45750303b155b905081158015611702575080155b156117205760405163f92ee8a960e01b815260040160405180910390fd5b845467ffffffffffffffff19166001178555831561174a57845460ff60401b1916600160401b1785555b61179b6040518060400160405280601081526020016f48756d626c6520446f6e6174696f6e7360801b815250604051806040016040528060078152602001661c1c9bda9958dd60ca1b815250612989565b6117a361299b565b6117ab61299b565b6117b4866129a3565b6117bc61299b565b6117c46129b4565b6001600755600f6005556611c37937e080006006556000600255831561182457845460ff60401b19168555604051600181527fc7f505b2f371ae2175ee4913f4499e1f2633a7b5936321eed1cdaeb6115181d29060200160405180910390a15b505050505050565b606061090d826129c4565b6001600160a01b0391821660009081527f80bb2b638cc20bc4d0a60d66940f3ab4a00c1d7b313497ca82fb0b4ab00793056020908152604080832093909416825291909152205460ff1690565b61188c611dd3565b6006543410156118d45760405162461bcd60e51b8152602060048201526013602482015272139bdd08195b9bdd59da08115512081cd95b9d606a1b6044820152606401610a61565b6118dd83611156565b1561192a5760405162461bcd60e51b815260206004820152601c60248201527f4164647265737320616c7265616479206f776e73206120746f6b656e000000006044820152606401610a61565b60018160405161193a9190613b7c565b9081526020016040518091039020546000146119985760405162461bcd60e51b815260206004820152601c60248201527f50726f6a656374207469746c6520616c726561647920657869737473000000006044820152606401610a61565b6007805490819060006119aa83613c13565b91905055506119b98482612af0565b6119c38184612b0a565b60008181526020819052604090206119db8382613c72565b50806001836040516119ed9190613b7c565b9081526040519081900360200181209190915560065460009173586b253113910da4557029c0598a59fa5cf2d69791908381818185875af1925050503d8060008114611a55576040519150601f19603f3d011682016040523d82523d6000602084013e611a5a565b606091505b5050905080611aab5760405162461bcd60e51b815260206004820152601960248201527f4d696e742052617465207472616e73666572206661696c6564000000000000006044820152606401610a61565b846001600160a01b0316827f3c3fbb6a154e75fbef89d966d453c10b2ecc4dba66a0b8a755d720fae33a8fda858742604051611ae993929190613d32565b60405180910390a35050610a756001600080516020613eb983398151915255565b611b12611c6e565b6001600160a01b038116611b3c57604051631e4fbdf760e01b815260006004820152602401610a61565b610b0c816126bc565b60006001600160e01b03198216632483248360e11b148061090d575061090d82612b7d565b600080611b7683612bcd565b90506001600160a01b03811661090d57604051637e27328960e01b815260048101849052602401610a61565b60009081527f80bb2b638cc20bc4d0a60d66940f3ab4a00c1d7b313497ca82fb0b4ab007930460205260409020546001600160a01b031690565b610a758383836001612c07565b6001600160a01b038216611c1357604051633250574960e11b815260006004820152602401610a61565b6000611c20838333611cc9565b9050836001600160a01b0316816001600160a01b03161461168b576040516364283d7b60e01b81526001600160a01b0380861660048301526024820184905282166044820152606401610a61565b33611ca07f9016d09d72d40fdae2fd8ceac6b6234c7706214fd39c1cd1e609a0528c199300546001600160a01b031690565b6001600160a01b0316146111c45760405163118cdaa760e01b8152336004820152602401610a61565b6000600080516020613e7983398151915281611ce485612bcd565b90506001600160a01b03841615611d0057611d00818587612d1d565b6001600160a01b03811615611d4057611d1d600086600080612c07565b6001600160a01b0381166000908152600383016020526040902080546000190190555b6001600160a01b03861615611d71576001600160a01b03861660009081526003830160205260409020805460010190555b600085815260028301602052604080822080546001600160a01b0319166001600160a01b038a811691821790925591518893918516917fddf252ad1be2c89b69c2b068fc378daa952ba7f163c4a11628f55a4df523b3ef91a495945050505050565b600080516020613eb9833981519152805460011901611e0557604051633ee5aeb560e01b815260040160405180910390fd5b60029055565b6000808311611e5c5760405162461bcd60e51b815260206004820181905260248201527f416d6f756e7420696e206d7573742062652067726561746572207468616e20306044820152606401610a61565b60006004611e6b856003613bae565b611e759190613bc5565b905060008111611ee15760405162461bcd60e51b815260206004820152603160248201527f5468726565207175617274657273206f6620616d6f756e74496e206d75737420604482015270062652067726561746572207468616e203607c1b6064820152608401610a61565b6004805460408051630d0e30db60e41b815290516001600160a01b039092169263d0e30db0928592808301926000929182900301818588803b158015611f2657600080fd5b505af1158015611f3a573d6000803e3d6000fd5b50505050506000600285611f4e9190613bc5565b90506000611f5d600487613bc5565b600454909150611f8b906001600160a01b031673586b253113910da4557029c0598a59fa5cf2d69784612d81565b600454611fb6906001600160a01b03167355e50dedd62d20d9ee2057bd00271cd6ecdb23fe83612d81565b6040805160e081018252600480546001600160a01b03908116835260035481166020840152610bb8838501523060608401526080830185905260a08301899052600060c084015292516304e45aaf60e01b815291927f000000000000000000000000000000000000000000000000000000000000000016916304e45aaf91859161204291869101613d68565b60206040518083038185885af1158015612060573d6000803e3d6000fd5b50505050506040513d601f19601f820116820180604052508101906120859190613bfa565b600354604051630852cd8d60e31b8152600481018390529196506001600160a01b0316906342966c6890602401600060405180830381600087803b1580156120cc57600080fd5b505af11580156120e0573d6000803e3d6000fd5b505050505050505092915050565b60006121056001600160a01b038616333087612476565b612130857f000000000000000000000000000000000000000000000000000000000000000086612e7a565b60045460009081906001600160a01b03908116908816036121c157612156600287613bc5565b9150612163600487613bc5565b600454909150612191906001600160a01b031673586b253113910da4557029c0598a59fa5cf2d69784612768565b6004546121bc906001600160a01b03167355e50dedd62d20d9ee2057bd00271cd6ecdb23fe83612768565b612302565b6040805160e0810182526001600160a01b03808a1682526004805482166020840152610bb883850152306060840152608083018a905260a08301899052600060c084015292516304e45aaf60e01b815291927f0000000000000000000000000000000000000000000000000000000000000000909116916304e45aaf9161224a91859101613d68565b6020604051808303816000875af1158015612269573d6000803e3d6000fd5b505050506040513d601f19601f8201168201806040525081019061228d9190613bfa565b935061229a600285613bc5565b92506122a7600485613bc5565b6004549092506122d5906001600160a01b031673586b253113910da4557029c0598a59fa5cf2d69785612768565b600454612300906001600160a01b03167355e50dedd62d20d9ee2057bd00271cd6ecdb23fe84612768565b505b600454612339906001600160a01b03167f000000000000000000000000000000000000000000000000000000000000000083612e7a565b6040805160e081018252600480546001600160a01b03908116835260035481166020840152610bb8838501523060608401526080830185905260a08301889052600060c0840181905293516304e45aaf60e01b81529293927f0000000000000000000000000000000000000000000000000000000000000000909116916304e45aaf916123c891869101613d68565b6020604051808303816000875af11580156123e7573d6000803e3d6000fd5b505050506040513d601f19601f8201168201806040525081019061240b9190613bfa565b600354604051630852cd8d60e31b8152600481018390529192506001600160a01b0316906342966c6890602401600060405180830381600087803b15801561245257600080fd5b505af1158015612466573d6000803e3d6000fd5b5050505050505050949350505050565b6040516001600160a01b03848116602483015283811660448301526064820183905261168b9186918216906323b872dd906084015b604051602081830303815290604052915060e01b6020820180516001600160e01b038381831617835250505050612f73565b6001600080516020613eb983398151915255565b306001600160a01b037f000000000000000000000000000000000000000000000000000000000000000016148061257857507f00000000000000000000000000000000000000000000000000000000000000006001600160a01b031661256c600080516020613e99833981519152546001600160a01b031690565b6001600160a01b031614155b156111c45760405163703e46dd60e11b815260040160405180910390fd5b61259e611c6e565b600280549060006125ae83613c13565b919050555050565b816001600160a01b03166352d1902d6040518163ffffffff1660e01b8152600401602060405180830381865afa925050508015612610575060408051601f3d908101601f1916820190925261260d91810190613bfa565b60015b61263857604051634c9c8ce360e01b81526001600160a01b0383166004820152602401610a61565b600080516020613e99833981519152811461266957604051632a87526960e21b815260048101829052602401610a61565b610a758383612fd6565b306001600160a01b037f000000000000000000000000000000000000000000000000000000000000000016146111c45760405163703e46dd60e11b815260040160405180910390fd5b7f9016d09d72d40fdae2fd8ceac6b6234c7706214fd39c1cd1e609a0528c19930080546001600160a01b031981166001600160a01b03848116918217845560405192169182907f8be0079c531659141344cd1fd0a4f28419497f9722a3daafe3b4186f6b6457e090600090a3505050565b600061273c6000836000611cc9565b90506001600160a01b0381166109d757604051637e27328960e01b815260048101839052602401610a61565b6040516001600160a01b03838116602483015260448201839052610a7591859182169063a9059cbb906064016124ab565b6000826127a6858461302c565b14949350505050565b600080516020613e798339815191526001600160a01b0383166127f057604051630b61174360e31b81526001600160a01b0384166004820152602401610a61565b6001600160a01b038481166000818152600584016020908152604080832094881680845294825291829020805460ff191687151590811790915591519182527f17307eab39ab6107e8899845ad3d59bd9653f200f220920489ca2b5937696c31910160405180910390a350505050565b6001600160a01b0383163b1561168b57604051630a85bd0160e11b81526001600160a01b0384169063150b7a02906128a2903390889087908790600401613dc6565b6020604051808303816000875af19250505080156128dd575060408051601f3d908101601f191682019092526128da91810190613df9565b60015b612946573d80801561290b576040519150601f19603f3d011682016040523d82523d6000602084013e612910565b606091505b50805160000361293e57604051633250574960e11b81526001600160a01b0385166004820152602401610a61565b805181602001fd5b6001600160e01b03198116630a85bd0160e11b1461298257604051633250574960e11b81526001600160a01b0385166004820152602401610a61565b5050505050565b612991613079565b6109d782826130c2565b6111c4613079565b6129ab613079565b610b0c816130f3565b6129bc613079565b6111c46130fb565b60607f0542a41881ee128a365a727b282c86fa859579490b9bb45aab8503648c8e79006129f083611b6a565b5060008381526020829052604081208054612a0a90613b42565b80601f0160208091040260200160405190810160405280929190818152602001828054612a3690613b42565b8015612a835780601f10612a5857610100808354040283529160200191612a83565b820191906000526020600020905b815481529060010190602001808311612a6657829003601f168201915b505050505090506000612aa160408051602081019091526000815290565b90508051600003612ab457509392505050565b815115612ae7578082604051602001612ace929190613e16565b6040516020818303038152906040529350505050919050565b61166085613103565b6109d7828260405180602001604052806000815250613177565b60008281527f0542a41881ee128a365a727b282c86fa859579490b9bb45aab8503648c8e790060208190526040909120612b448382613c72565b506040518381527ff8e1a15aba9398e019f0b49df1a4fde98ee17ae345cb5f6b5e2c27f5033e8ce79060200160405180910390a1505050565b60006001600160e01b031982166380ac58cd60e01b1480612bae57506001600160e01b03198216635b5e139f60e01b145b8061090d57506301ffc9a760e01b6001600160e01b031983161461090d565b60009081527f80bb2b638cc20bc4d0a60d66940f3ab4a00c1d7b313497ca82fb0b4ab007930260205260409020546001600160a01b031690565b600080516020613e798339815191528180612c2a57506001600160a01b03831615155b15612cec576000612c3a85611b6a565b90506001600160a01b03841615801590612c665750836001600160a01b0316816001600160a01b031614155b8015612c795750612c778185611837565b155b15612ca25760405163a9fbf51f60e01b81526001600160a01b0385166004820152602401610a61565b8215612cea5784866001600160a01b0316826001600160a01b03167f8c5be1e5ebec7d5bd14f71427d1e84f3dd0314c0f7b2291e5b200ac8c7c3b92560405160405180910390a45b505b600093845260040160205250506040902080546001600160a01b0319166001600160a01b0392909216919091179055565b612d2883838361318e565b610a75576001600160a01b038316612d5657604051637e27328960e01b815260048101829052602401610a61565b60405163177e802f60e01b81526001600160a01b038316600482015260248101829052604401610a61565b604080516001600160a01b038481166024830152604480830185905283518084039091018152606490920183526020820180516001600160e01b031663a9059cbb60e01b1790529151600092839290871691612ddd9190613b7c565b6000604051808303816000865af19150503d8060008114612e1a576040519150601f19603f3d011682016040523d82523d6000602084013e612e1f565b606091505b5091509150818015612e49575080511580612e49575080806020019051810190612e499190613e45565b6129825760405162461bcd60e51b815260206004820152600260248201526114d560f21b6044820152606401610a61565b604080516001600160a01b038481166024830152604480830185905283518084039091018152606490920183526020820180516001600160e01b031663095ea7b360e01b1790529151600092839290871691612ed69190613b7c565b6000604051808303816000865af19150503d8060008114612f13576040519150601f19603f3d011682016040523d82523d6000602084013e612f18565b606091505b5091509150818015612f42575080511580612f42575080806020019051810190612f429190613e45565b6129825760405162461bcd60e51b8152602060048201526002602482015261534160f01b6044820152606401610a61565b6000612f886001600160a01b038416836131f4565b90508051600014158015612fad575080806020019051810190612fab9190613e45565b155b15610a7557604051635274afe760e01b81526001600160a01b0384166004820152602401610a61565b612fdf82613202565b6040516001600160a01b038316907fbc7cd75a20ee27fd9adebab32041f755214dbc6bffa90cc0225b39da2e5c2d3b90600090a280511561302457610a758282613267565b6109d76132d4565b600081815b84518110156130715761305d8286838151811061305057613050613e62565b60200260200101516132f3565b91508061306981613c13565b915050613031565b509392505050565b7ff0c57e16840df040f15088dc2f81fe391c3923bec73e23a9662efc9c229c6a0054600160401b900460ff166111c457604051631afcd79f60e31b815260040160405180910390fd5b6130ca613079565b600080516020613e79833981519152806130e48482613c72565b506001810161168b8382613c72565b611b12613079565b6124dd613079565b606061310e82611b6a565b50600061312660408051602081019091526000815290565b9050600081511161314657604051806020016040528060008152506113a4565b8061315084613322565b604051602001613161929190613e16565b6040516020818303038152906040529392505050565b61318183836133b5565b610a756000848484612860565b60006001600160a01b038316158015906131ec5750826001600160a01b0316846001600160a01b031614806131c857506131c88484611837565b806131ec5750826001600160a01b03166131e183611ba2565b6001600160a01b0316145b949350505050565b60606113a48383600061341a565b806001600160a01b03163b60000361323857604051634c9c8ce360e01b81526001600160a01b0382166004820152602401610a61565b600080516020613e9983398151915280546001600160a01b0319166001600160a01b0392909216919091179055565b6060600080846001600160a01b0316846040516132849190613b7c565b600060405180830381855af49150503d80600081146132bf576040519150601f19603f3d011682016040523d82523d6000602084013e6132c4565b606091505b50915091506116608583836134b7565b34156111c45760405163b398979f60e01b815260040160405180910390fd5b600081831061330f5760008281526020849052604090206113a4565b60008381526020839052604090206113a4565b6060600061332f83613513565b600101905060008167ffffffffffffffff81111561334f5761334f613757565b6040519080825280601f01601f191660200182016040528015613379576020820181803683370190505b5090508181016020015b600019016f181899199a1a9b1b9c1cb0b131b232b360811b600a86061a8153600a850494508461338357509392505050565b6001600160a01b0382166133df57604051633250574960e11b815260006004820152602401610a61565b60006133ed83836000611cc9565b90506001600160a01b03811615610a75576040516339e3563760e11b815260006004820152602401610a61565b60608147101561343f5760405163cd78605960e01b8152306004820152602401610a61565b600080856001600160a01b0316848660405161345b9190613b7c565b60006040518083038185875af1925050503d8060008114613498576040519150601f19603f3d011682016040523d82523d6000602084013e61349d565b606091505b50915091506134ad8683836134b7565b9695505050505050565b6060826134cc576134c7826135eb565b6113a4565b81511580156134e357506001600160a01b0384163b155b1561350c57604051639996b31560e01b81526001600160a01b0385166004820152602401610a61565b50806113a4565b60008072184f03e93ff9f4daa797ed6e38ed64bf6a1f0160401b83106135525772184f03e93ff9f4daa797ed6e38ed64bf6a1f0160401b830492506040015b6d04ee2d6d415b85acef8100000000831061357e576d04ee2d6d415b85acef8100000000830492506020015b662386f26fc10000831061359c57662386f26fc10000830492506010015b6305f5e10083106135b4576305f5e100830492506008015b61271083106135c857612710830492506004015b606483106135da576064830492506002015b600a831061090d5760010192915050565b8051156135fb5780518082602001fd5b604051630a12f52160e11b815260040160405180910390fd5b50805461362090613b42565b6000825580601f10613630575050565b601f016020900490600052602060002090810190610b0c91905b8082111561365e576000815560010161364a565b5090565b6001600160e01b031981168114610b0c57600080fd5b60006020828403121561368a57600080fd5b81356113a481613662565b60005b838110156136b0578181015183820152602001613698565b50506000910152565b600081518084526136d1816020860160208601613695565b601f01601f19169290920160200192915050565b6020815260006113a460208301846136b9565b60006020828403121561370a57600080fd5b5035919050565b80356001600160a01b038116811461372857600080fd5b919050565b6000806040838503121561374057600080fd5b61374983613711565b946020939093013593505050565b634e487b7160e01b600052604160045260246000fd5b600082601f83011261377e57600080fd5b813567ffffffffffffffff8082111561379957613799613757565b604051601f8301601f19908116603f011681019082821181831017156137c1576137c1613757565b816040528381528660208588010111156137da57600080fd5b836020870160208301376000602085830101528094505050505092915050565b60006020828403121561380c57600080fd5b813567ffffffffffffffff81111561382357600080fd5b6131ec8482850161376d565b60008060006060848603121561384457600080fd5b61384d84613711565b925061385b60208501613711565b9150604084013590509250925092565b60008083601f84011261387d57600080fd5b50813567ffffffffffffffff81111561389557600080fd5b6020830191508360208260051b85010111156138b057600080fd5b9250929050565b600080600080600080600060c0888a0312156138d257600080fd5b873596506138e260208901613711565b955060408801359450606088013593506080880135925060a088013567ffffffffffffffff81111561391357600080fd5b61391f8a828b0161386b565b989b979a50959850939692959293505050565b6000806040838503121561394557600080fd5b61394e83613711565b9150602083013567ffffffffffffffff81111561396a57600080fd5b6139768582860161376d565b9150509250929050565b60006020828403121561399257600080fd5b6113a482613711565b6000806000604084860312156139b057600080fd5b6139b984613711565b9250602084013567ffffffffffffffff8111156139d557600080fd5b6139e18682870161386b565b9497909650939450505050565b8015158114610b0c57600080fd5b60008060408385031215613a0f57600080fd5b613a1883613711565b91506020830135613a28816139ee565b809150509250929050565b60008060008060808587031215613a4957600080fd5b613a5285613711565b9350613a6060208601613711565b925060408501359150606085013567ffffffffffffffff811115613a8357600080fd5b613a8f8782880161376d565b91505092959194509250565b60008060408385031215613aae57600080fd5b613ab783613711565b9150613ac560208401613711565b90509250929050565b600080600060608486031215613ae357600080fd5b613aec84613711565b9250602084013567ffffffffffffffff80821115613b0957600080fd5b613b158783880161376d565b93506040860135915080821115613b2b57600080fd5b50613b388682870161376d565b9150509250925092565b600181811c90821680613b5657607f821691505b602082108103613b7657634e487b7160e01b600052602260045260246000fd5b50919050565b60008251613b8e818460208701613695565b9190910192915050565b634e487b7160e01b600052601160045260246000fd5b808202811582820484141761090d5761090d613b98565b600082613be257634e487b7160e01b600052601260045260246000fd5b500490565b8181038181111561090d5761090d613b98565b600060208284031215613c0c57600080fd5b5051919050565b600060018201613c2557613c25613b98565b5060010190565b601f821115610a7557600081815260208120601f850160051c81016020861015613c535750805b601f850160051c820191505b8181101561182457828155600101613c5f565b815167ffffffffffffffff811115613c8c57613c8c613757565b613ca081613c9a8454613b42565b84613c2c565b602080601f831160018114613cd55760008415613cbd5750858301515b600019600386901b1c1916600185901b178555611824565b600085815260208120601f198616915b82811015613d0457888601518255948401946001909101908401613ce5565b5085821015613d225787850151600019600388901b60f8161c191681555b5050505050600190811b01905550565b606081526000613d4560608301866136b9565b8281036020840152613d5781866136b9565b915050826040830152949350505050565b81516001600160a01b03908116825260208084015182169083015260408084015162ffffff16908301526060808401518216908301526080808401519083015260a0838101519083015260c092830151169181019190915260e00190565b6001600160a01b03858116825284166020820152604081018390526080606082018190526000906134ad908301846136b9565b600060208284031215613e0b57600080fd5b81516113a481613662565b60008351613e28818460208801613695565b835190830190613e3c818360208801613695565b01949350505050565b600060208284031215613e5757600080fd5b81516113a4816139ee565b634e487b7160e01b600052603260045260246000fdfe80bb2b638cc20bc4d0a60d66940f3ab4a00c1d7b313497ca82fb0b4ab0079300360894a13ba1a3210667c828492db98dca3e2076cc3735a920a3ca505d382bbc9b779b17422d0df92223018b32b4d1fa46e071723d6817e2486d003becc55f00a2646970667358221220aa9ec1bbdd26c33b593fc3b79568ad72915c4714709f56b959351ad83234e9ab64736f6c63430008140033",
  "linkReferences": {},
  "deployedLinkReferences": {}
}