{
  "_format": "hh-sol-artifact-1",
  "contractName": "SingleSwap2Routers",
  "sourceName": "contracts/uni/SingleSwap2Routers.sol",
  "abi": [
    {
      "inputs": [],
      "name": "HDT",
      "outputs": [
        {
          "internalType": "address",
          "name": "",
          "type": "address"
        }
      ],
      "stateMutability": "view",
      "type": "function"
    },
    {
      "inputs": [
        {
          "internalType": "uint256",
          "name": "amountIn",
          "type": "uint256"
        }
      ],
      "name": "swapExactInputSingle",
      "outputs": [
        {
          "internalType": "uint256",
          "name": "amountOut",
          "type": "uint256"
        }
      ],
      "stateMutability": "nonpayable",
      "type": "function"
    },
    {
      "inputs": [
        {
          "internalType": "uint256",
          "name": "amountIn",
          "type": "uint256"
        }
      ],
      "name": "swapExactInputSingle02",
      "outputs": [
        {
          "internalType": "uint256",
          "name": "amountOut",
          "type": "uint256"
        }
      ],
      "stateMutability": "nonpayable",
      "type": "function"
    },
    {
      "inputs": [],
      "name": "swapRouter",
      "outputs": [
        {
          "internalType": "contract ISwapRouter",
          "name": "",
          "type": "address"
        }
      ],
      "stateMutability": "view",
      "type": "function"
    },
    {
      "inputs": [],
      "name": "swapRouter02",
      "outputs": [
        {
          "internalType": "contract IV3SwapRouter",
          "name": "",
          "type": "address"
        }
      ],
      "stateMutability": "view",
      "type": "function"
    }
  ],
  "bytecode": "0x60c060405273e592427a0aece92de3edee1f18e0157c058615646080527368b3465833fb72a70ecdf485e0e4c7bd8665fc4560a05234801561004057600080fd5b5060805160a0516107176100806000396000818160ba0152818161028d015261036c01526000818160f40152818161011e015261020d01526107176000f3fe608060405234801561001057600080fd5b50600436106100575760003560e01c806356b1ddbb1461005c57806373bd43ad146100945780637eaf1116146100b5578063b466be3e146100dc578063c31c9c07146100ef575b600080fd5b610077739707be4129f68b767af550fe1c631bf1779623cb81565b6040516001600160a01b0390911681526020015b60405180910390f35b6100a76100a2366004610652565b610116565b60405190815260200161008b565b6100777f000000000000000000000000000000000000000000000000000000000000000081565b6100a76100ea366004610652565b610285565b6100777f000000000000000000000000000000000000000000000000000000000000000081565b6000610142827f000000000000000000000000000000000000000000000000000000000000000061039d565b604080516101008101825273fff9976782d46cc05630d1f6ebab18b2324d6b148152739707be4129f68b767af550fe1c631bf1779623cb60208201908152610bb88284019081523360608401908152426080850190815260a08501888152600060c0870181815260e08801918252975163414bf38960e01b815287516001600160a01b039081166004830152965187166024820152945162ffffff166044860152925185166064850152905160848401525160a4830152935160c48201529251811660e484015290917f00000000000000000000000000000000000000000000000000000000000000009091169063414bf38990610104015b6020604051808303816000875af115801561025a573d6000803e3d6000fd5b505050506040513d601f19601f8201168201806040525081019061027e919061066b565b9392505050565b60006102b1827f000000000000000000000000000000000000000000000000000000000000000061039d565b6040805160e08101825273fff9976782d46cc05630d1f6ebab18b2324d6b148152739707be4129f68b767af550fe1c631bf1779623cb60208201908152610bb8828401908152336060840190815260808401878152600060a0860181815260c0870191825296516304e45aaf60e01b815286516001600160a01b039081166004830152955186166024820152935162ffffff166044850152915184166064840152516084830152935160a48201529251811660c484015290917f0000000000000000000000000000000000000000000000000000000000000000909116906304e45aaf9060e40161023b565b6103bd73fff9976782d46cc05630d1f6ebab18b2324d6b143330856103e0565b6103dc73fff9976782d46cc05630d1f6ebab18b2324d6b148284610523565b5050565b604080516001600160a01b0385811660248301528481166044830152606480830185905283518084039091018152608490920183526020820180516001600160e01b03166323b872dd60e01b17905291516000928392908816916104449190610684565b6000604051808303816000865af19150503d8060008114610481576040519150601f19603f3d011682016040523d82523d6000602084013e610486565b606091505b50915091508180156104b05750805115806104b05750808060200190518101906104b091906106bf565b61051b5760405162461bcd60e51b815260206004820152603160248201527f5472616e7366657248656c7065723a3a7472616e7366657246726f6d3a207472604482015270185b9cd9995c919c9bdb4819985a5b1959607a1b60648201526084015b60405180910390fd5b505050505050565b604080516001600160a01b038481166024830152604480830185905283518084039091018152606490920183526020820180516001600160e01b031663095ea7b360e01b179052915160009283929087169161057f9190610684565b6000604051808303816000865af19150503d80600081146105bc576040519150601f19603f3d011682016040523d82523d6000602084013e6105c1565b606091505b50915091508180156105eb5750805115806105eb5750808060200190518101906105eb91906106bf565b61064b5760405162461bcd60e51b815260206004820152602b60248201527f5472616e7366657248656c7065723a3a73616665417070726f76653a2061707060448201526a1c9bdd994819985a5b195960aa1b6064820152608401610512565b5050505050565b60006020828403121561066457600080fd5b5035919050565b60006020828403121561067d57600080fd5b5051919050565b6000825160005b818110156106a5576020818601810151858301520161068b565b818111156106b4576000828501525b509190910192915050565b6000602082840312156106d157600080fd5b8151801515811461027e57600080fdfea26469706673582212209a82d768b99fe9f46813208a8f58467296f21935cbbdf25470abf4e6ac7f848064736f6c634300080d0033",
  "linkReferences": {},
  "deployedLinkReferences": {}
}