{
  "_format": "hh-sol-artifact-1",
  "contractName": "SolidlyExtendedRouter03",
  "sourceName": "contracts/SolidlyExtendedRouter03.sol",
  "abi": [
    {
      "inputs": [
        {
          "internalType": "address",
          "name": "_factory",
          "type": "address"
        },
        {
          "internalType": "address",
          "name": "_weth",
          "type": "address"
        },
        {
          "internalType": "address",
          "name": "_voter",
          "type": "address"
        }
      ],
      "stateMutability": "nonpayable",
      "type": "constructor"
    },
    {
      "inputs": [
        {
          "internalType": "uint256[]",
          "name": "amounts",
          "type": "uint256[]"
        },
        {
          "components": [
            {
              "internalType": "address",
              "name": "from",
              "type": "address"
            },
            {
              "internalType": "address",
              "name": "to",
              "type": "address"
            },
            {
              "internalType": "bool",
              "name": "stable",
              "type": "bool"
            }
          ],
          "internalType": "struct SolidlyExtendedRouter03.Route[]",
          "name": "routes",
          "type": "tuple[]"
        },
        {
          "internalType": "address",
          "name": "to",
          "type": "address"
        },
        {
          "internalType": "uint256",
          "name": "deadline",
          "type": "uint256"
        }
      ],
      "name": "UNSAFE_swapExactTokensForTokens",
      "outputs": [
        {
          "internalType": "uint256[]",
          "name": "",
          "type": "uint256[]"
        }
      ],
      "stateMutability": "nonpayable",
      "type": "function"
    },
    {
      "inputs": [
        {
          "internalType": "address",
          "name": "tokenA",
          "type": "address"
        },
        {
          "internalType": "address",
          "name": "tokenB",
          "type": "address"
        },
        {
          "internalType": "bool",
          "name": "stable",
          "type": "bool"
        },
        {
          "internalType": "uint256",
          "name": "amountADesired",
          "type": "uint256"
        },
        {
          "internalType": "uint256",
          "name": "amountBDesired",
          "type": "uint256"
        },
        {
          "internalType": "uint256",
          "name": "amountAMin",
          "type": "uint256"
        },
        {
          "internalType": "uint256",
          "name": "amountBMin",
          "type": "uint256"
        },
        {
          "internalType": "address",
          "name": "to",
          "type": "address"
        },
        {
          "internalType": "uint256",
          "name": "deadline",
          "type": "uint256"
        }
      ],
      "name": "addLiquidity",
      "outputs": [
        {
          "internalType": "uint256",
          "name": "amountA",
          "type": "uint256"
        },
        {
          "internalType": "uint256",
          "name": "amountB",
          "type": "uint256"
        },
        {
          "internalType": "uint256",
          "name": "liquidity",
          "type": "uint256"
        }
      ],
      "stateMutability": "nonpayable",
      "type": "function"
    },
    {
      "inputs": [
        {
          "internalType": "address",
          "name": "token",
          "type": "address"
        },
        {
          "internalType": "bool",
          "name": "stable",
          "type": "bool"
        },
        {
          "internalType": "uint256",
          "name": "amountTokenDesired",
          "type": "uint256"
        },
        {
          "internalType": "uint256",
          "name": "amountTokenMin",
          "type": "uint256"
        },
        {
          "internalType": "uint256",
          "name": "amountETHMin",
          "type": "uint256"
        },
        {
          "internalType": "address",
          "name": "to",
          "type": "address"
        },
        {
          "internalType": "uint256",
          "name": "deadline",
          "type": "uint256"
        }
      ],
      "name": "addLiquidityETH",
      "outputs": [
        {
          "internalType": "uint256",
          "name": "amountToken",
          "type": "uint256"
        },
        {
          "internalType": "uint256",
          "name": "amountETH",
          "type": "uint256"
        },
        {
          "internalType": "uint256",
          "name": "liquidity",
          "type": "uint256"
        }
      ],
      "stateMutability": "payable",
      "type": "function"
    },
    {
      "inputs": [],
      "name": "factory",
      "outputs": [
        {
          "internalType": "address",
          "name": "",
          "type": "address"
        }
      ],
      "stateMutability": "view",
      "type": "function"
    },
    {
      "inputs": [
        {
          "internalType": "uint256",
          "name": "amountIn",
          "type": "uint256"
        },
        {
          "internalType": "address",
          "name": "tokenIn",
          "type": "address"
        },
        {
          "internalType": "address",
          "name": "tokenOut",
          "type": "address"
        }
      ],
      "name": "getAmountOut",
      "outputs": [
        {
          "internalType": "uint256",
          "name": "amount",
          "type": "uint256"
        },
        {
          "internalType": "bool",
          "name": "stable",
          "type": "bool"
        }
      ],
      "stateMutability": "view",
      "type": "function"
    },
    {
      "inputs": [
        {
          "internalType": "uint256",
          "name": "amountIn",
          "type": "uint256"
        },
        {
          "components": [
            {
              "internalType": "address",
              "name": "from",
              "type": "address"
            },
            {
              "internalType": "address",
              "name": "to",
              "type": "address"
            },
            {
              "internalType": "bool",
              "name": "stable",
              "type": "bool"
            }
          ],
          "internalType": "struct SolidlyExtendedRouter03.Route[]",
          "name": "routes",
          "type": "tuple[]"
        }
      ],
      "name": "getAmountsOut",
      "outputs": [
        {
          "internalType": "uint256[]",
          "name": "amounts",
          "type": "uint256[]"
        }
      ],
      "stateMutability": "view",
      "type": "function"
    },
    {
      "inputs": [
        {
          "internalType": "address",
          "name": "tokenA",
          "type": "address"
        },
        {
          "internalType": "address",
          "name": "tokenB",
          "type": "address"
        },
        {
          "internalType": "bool",
          "name": "stable",
          "type": "bool"
        }
      ],
      "name": "getReserves",
      "outputs": [
        {
          "internalType": "uint256",
          "name": "reserveA",
          "type": "uint256"
        },
        {
          "internalType": "uint256",
          "name": "reserveB",
          "type": "uint256"
        }
      ],
      "stateMutability": "view",
      "type": "function"
    },
    {
      "inputs": [
        {
          "internalType": "address",
          "name": "pair",
          "type": "address"
        }
      ],
      "name": "isPair",
      "outputs": [
        {
          "internalType": "bool",
          "name": "",
          "type": "bool"
        }
      ],
      "stateMutability": "view",
      "type": "function"
    },
    {
      "inputs": [],
      "name": "pairCodeHash",
      "outputs": [
        {
          "internalType": "bytes32",
          "name": "",
          "type": "bytes32"
        }
      ],
      "stateMutability": "view",
      "type": "function"
    },
    {
      "inputs": [
        {
          "internalType": "address",
          "name": "tokenA",
          "type": "address"
        },
        {
          "internalType": "address",
          "name": "tokenB",
          "type": "address"
        },
        {
          "internalType": "bool",
          "name": "stable",
          "type": "bool"
        }
      ],
      "name": "pairFor",
      "outputs": [
        {
          "internalType": "address",
          "name": "pair",
          "type": "address"
        }
      ],
      "stateMutability": "view",
      "type": "function"
    },
    {
      "inputs": [
        {
          "internalType": "address",
          "name": "tokenA",
          "type": "address"
        },
        {
          "internalType": "address",
          "name": "tokenB",
          "type": "address"
        },
        {
          "internalType": "bool",
          "name": "stable",
          "type": "bool"
        },
        {
          "internalType": "uint256",
          "name": "amountADesired",
          "type": "uint256"
        },
        {
          "internalType": "uint256",
          "name": "amountBDesired",
          "type": "uint256"
        }
      ],
      "name": "quoteAddLiquidity",
      "outputs": [
        {
          "internalType": "uint256",
          "name": "amountA",
          "type": "uint256"
        },
        {
          "internalType": "uint256",
          "name": "amountB",
          "type": "uint256"
        },
        {
          "internalType": "uint256",
          "name": "liquidity",
          "type": "uint256"
        }
      ],
      "stateMutability": "view",
      "type": "function"
    },
    {
      "inputs": [
        {
          "internalType": "address",
          "name": "tokenA",
          "type": "address"
        },
        {
          "internalType": "address",
          "name": "tokenB",
          "type": "address"
        },
        {
          "internalType": "bool",
          "name": "stable",
          "type": "bool"
        },
        {
          "internalType": "uint256",
          "name": "liquidity",
          "type": "uint256"
        }
      ],
      "name": "quoteRemoveLiquidity",
      "outputs": [
        {
          "internalType": "uint256",
          "name": "amountA",
          "type": "uint256"
        },
        {
          "internalType": "uint256",
          "name": "amountB",
          "type": "uint256"
        }
      ],
      "stateMutability": "view",
      "type": "function"
    },
    {
      "inputs": [
        {
          "internalType": "address",
          "name": "tokenA",
          "type": "address"
        },
        {
          "internalType": "address",
          "name": "tokenB",
          "type": "address"
        },
        {
          "internalType": "bool",
          "name": "stable",
          "type": "bool"
        },
        {
          "internalType": "uint256",
          "name": "liquidity",
          "type": "uint256"
        },
        {
          "internalType": "uint256",
          "name": "amountAMin",
          "type": "uint256"
        },
        {
          "internalType": "uint256",
          "name": "amountBMin",
          "type": "uint256"
        },
        {
          "internalType": "address",
          "name": "to",
          "type": "address"
        },
        {
          "internalType": "uint256",
          "name": "deadline",
          "type": "uint256"
        }
      ],
      "name": "removeLiquidity",
      "outputs": [
        {
          "internalType": "uint256",
          "name": "amountA",
          "type": "uint256"
        },
        {
          "internalType": "uint256",
          "name": "amountB",
          "type": "uint256"
        }
      ],
      "stateMutability": "nonpayable",
      "type": "function"
    },
    {
      "inputs": [
        {
          "internalType": "address",
          "name": "token",
          "type": "address"
        },
        {
          "internalType": "bool",
          "name": "stable",
          "type": "bool"
        },
        {
          "internalType": "uint256",
          "name": "liquidity",
          "type": "uint256"
        },
        {
          "internalType": "uint256",
          "name": "amountTokenMin",
          "type": "uint256"
        },
        {
          "internalType": "uint256",
          "name": "amountETHMin",
          "type": "uint256"
        },
        {
          "internalType": "address",
          "name": "to",
          "type": "address"
        },
        {
          "internalType": "uint256",
          "name": "deadline",
          "type": "uint256"
        }
      ],
      "name": "removeLiquidityETH",
      "outputs": [
        {
          "internalType": "uint256",
          "name": "amountToken",
          "type": "uint256"
        },
        {
          "internalType": "uint256",
          "name": "amountETH",
          "type": "uint256"
        }
      ],
      "stateMutability": "nonpayable",
      "type": "function"
    },
    {
      "inputs": [
        {
          "internalType": "address",
          "name": "token",
          "type": "address"
        },
        {
          "internalType": "bool",
          "name": "stable",
          "type": "bool"
        },
        {
          "internalType": "uint256",
          "name": "liquidity",
          "type": "uint256"
        },
        {
          "internalType": "uint256",
          "name": "amountTokenMin",
          "type": "uint256"
        },
        {
          "internalType": "uint256",
          "name": "amountETHMin",
          "type": "uint256"
        },
        {
          "internalType": "address",
          "name": "to",
          "type": "address"
        },
        {
          "internalType": "uint256",
          "name": "deadline",
          "type": "uint256"
        }
      ],
      "name": "removeLiquidityETHSupportingFeeOnTransferTokens",
      "outputs": [
        {
          "internalType": "uint256",
          "name": "amountToken",
          "type": "uint256"
        },
        {
          "internalType": "uint256",
          "name": "amountETH",
          "type": "uint256"
        }
      ],
      "stateMutability": "nonpayable",
      "type": "function"
    },
    {
      "inputs": [
        {
          "internalType": "address",
          "name": "token",
          "type": "address"
        },
        {
          "internalType": "bool",
          "name": "stable",
          "type": "bool"
        },
        {
          "internalType": "uint256",
          "name": "liquidity",
          "type": "uint256"
        },
        {
          "internalType": "uint256",
          "name": "amountTokenMin",
          "type": "uint256"
        },
        {
          "internalType": "uint256",
          "name": "amountETHMin",
          "type": "uint256"
        },
        {
          "internalType": "address",
          "name": "to",
          "type": "address"
        },
        {
          "internalType": "uint256",
          "name": "deadline",
          "type": "uint256"
        },
        {
          "internalType": "bool",
          "name": "approveMax",
          "type": "bool"
        },
        {
          "internalType": "uint8",
          "name": "v",
          "type": "uint8"
        },
        {
          "internalType": "bytes32",
          "name": "r",
          "type": "bytes32"
        },
        {
          "internalType": "bytes32",
          "name": "s",
          "type": "bytes32"
        }
      ],
      "name": "removeLiquidityETHWithPermit",
      "outputs": [
        {
          "internalType": "uint256",
          "name": "amountToken",
          "type": "uint256"
        },
        {
          "internalType": "uint256",
          "name": "amountETH",
          "type": "uint256"
        }
      ],
      "stateMutability": "nonpayable",
      "type": "function"
    },
    {
      "inputs": [
        {
          "internalType": "address",
          "name": "token",
          "type": "address"
        },
        {
          "internalType": "bool",
          "name": "stable",
          "type": "bool"
        },
        {
          "internalType": "uint256",
          "name": "liquidity",
          "type": "uint256"
        },
        {
          "internalType": "uint256",
          "name": "amountTokenMin",
          "type": "uint256"
        },
        {
          "internalType": "uint256",
          "name": "amountETHMin",
          "type": "uint256"
        },
        {
          "internalType": "address",
          "name": "to",
          "type": "address"
        },
        {
          "internalType": "uint256",
          "name": "deadline",
          "type": "uint256"
        },
        {
          "internalType": "bool",
          "name": "approveMax",
          "type": "bool"
        },
        {
          "internalType": "uint8",
          "name": "v",
          "type": "uint8"
        },
        {
          "internalType": "bytes32",
          "name": "r",
          "type": "bytes32"
        },
        {
          "internalType": "bytes32",
          "name": "s",
          "type": "bytes32"
        }
      ],
      "name": "removeLiquidityETHWithPermitSupportingFeeOnTransferTokens",
      "outputs": [
        {
          "internalType": "uint256",
          "name": "amountToken",
          "type": "uint256"
        },
        {
          "internalType": "uint256",
          "name": "amountETH",
          "type": "uint256"
        }
      ],
      "stateMutability": "nonpayable",
      "type": "function"
    },
    {
      "inputs": [
        {
          "internalType": "address",
          "name": "tokenA",
          "type": "address"
        },
        {
          "internalType": "address",
          "name": "tokenB",
          "type": "address"
        },
        {
          "internalType": "bool",
          "name": "stable",
          "type": "bool"
        },
        {
          "internalType": "uint256",
          "name": "liquidity",
          "type": "uint256"
        },
        {
          "internalType": "uint256",
          "name": "amountAMin",
          "type": "uint256"
        },
        {
          "internalType": "uint256",
          "name": "amountBMin",
          "type": "uint256"
        },
        {
          "internalType": "address",
          "name": "to",
          "type": "address"
        },
        {
          "internalType": "uint256",
          "name": "deadline",
          "type": "uint256"
        },
        {
          "internalType": "bool",
          "name": "approveMax",
          "type": "bool"
        },
        {
          "internalType": "uint8",
          "name": "v",
          "type": "uint8"
        },
        {
          "internalType": "bytes32",
          "name": "r",
          "type": "bytes32"
        },
        {
          "internalType": "bytes32",
          "name": "s",
          "type": "bytes32"
        }
      ],
      "name": "removeLiquidityWithPermit",
      "outputs": [
        {
          "internalType": "uint256",
          "name": "amountA",
          "type": "uint256"
        },
        {
          "internalType": "uint256",
          "name": "amountB",
          "type": "uint256"
        }
      ],
      "stateMutability": "nonpayable",
      "type": "function"
    },
    {
      "inputs": [
        {
          "internalType": "address",
          "name": "tokenA",
          "type": "address"
        },
        {
          "internalType": "address",
          "name": "tokenB",
          "type": "address"
        }
      ],
      "name": "sortTokens",
      "outputs": [
        {
          "internalType": "address",
          "name": "token0",
          "type": "address"
        },
        {
          "internalType": "address",
          "name": "token1",
          "type": "address"
        }
      ],
      "stateMutability": "pure",
      "type": "function"
    },
    {
      "inputs": [
        {
          "internalType": "uint256",
          "name": "amountOutMin",
          "type": "uint256"
        },
        {
          "components": [
            {
              "internalType": "address",
              "name": "from",
              "type": "address"
            },
            {
              "internalType": "address",
              "name": "to",
              "type": "address"
            },
            {
              "internalType": "bool",
              "name": "stable",
              "type": "bool"
            }
          ],
          "internalType": "struct SolidlyExtendedRouter03.Route[]",
          "name": "routes",
          "type": "tuple[]"
        },
        {
          "internalType": "address",
          "name": "to",
          "type": "address"
        },
        {
          "internalType": "uint256",
          "name": "deadline",
          "type": "uint256"
        }
      ],
      "name": "swapExactETHForTokens",
      "outputs": [
        {
          "internalType": "uint256[]",
          "name": "amounts",
          "type": "uint256[]"
        }
      ],
      "stateMutability": "payable",
      "type": "function"
    },
    {
      "inputs": [
        {
          "internalType": "uint256",
          "name": "amountOutMin",
          "type": "uint256"
        },
        {
          "components": [
            {
              "internalType": "address",
              "name": "from",
              "type": "address"
            },
            {
              "internalType": "address",
              "name": "to",
              "type": "address"
            },
            {
              "internalType": "bool",
              "name": "stable",
              "type": "bool"
            }
          ],
          "internalType": "struct SolidlyExtendedRouter03.Route[]",
          "name": "routes",
          "type": "tuple[]"
        },
        {
          "internalType": "address",
          "name": "to",
          "type": "address"
        },
        {
          "internalType": "uint256",
          "name": "deadline",
          "type": "uint256"
        }
      ],
      "name": "swapExactETHForTokensSupportingFeeOnTransferTokens",
      "outputs": [],
      "stateMutability": "payable",
      "type": "function"
    },
    {
      "inputs": [
        {
          "internalType": "uint256",
          "name": "amountIn",
          "type": "uint256"
        },
        {
          "internalType": "uint256",
          "name": "amountOutMin",
          "type": "uint256"
        },
        {
          "components": [
            {
              "internalType": "address",
              "name": "from",
              "type": "address"
            },
            {
              "internalType": "address",
              "name": "to",
              "type": "address"
            },
            {
              "internalType": "bool",
              "name": "stable",
              "type": "bool"
            }
          ],
          "internalType": "struct SolidlyExtendedRouter03.Route[]",
          "name": "routes",
          "type": "tuple[]"
        },
        {
          "internalType": "address",
          "name": "to",
          "type": "address"
        },
        {
          "internalType": "uint256",
          "name": "deadline",
          "type": "uint256"
        }
      ],
      "name": "swapExactTokensForETH",
      "outputs": [
        {
          "internalType": "uint256[]",
          "name": "amounts",
          "type": "uint256[]"
        }
      ],
      "stateMutability": "nonpayable",
      "type": "function"
    },
    {
      "inputs": [
        {
          "internalType": "uint256",
          "name": "amountIn",
          "type": "uint256"
        },
        {
          "internalType": "uint256",
          "name": "amountOutMin",
          "type": "uint256"
        },
        {
          "components": [
            {
              "internalType": "address",
              "name": "from",
              "type": "address"
            },
            {
              "internalType": "address",
              "name": "to",
              "type": "address"
            },
            {
              "internalType": "bool",
              "name": "stable",
              "type": "bool"
            }
          ],
          "internalType": "struct SolidlyExtendedRouter03.Route[]",
          "name": "routes",
          "type": "tuple[]"
        },
        {
          "internalType": "address",
          "name": "to",
          "type": "address"
        },
        {
          "internalType": "uint256",
          "name": "deadline",
          "type": "uint256"
        }
      ],
      "name": "swapExactTokensForETHSupportingFeeOnTransferTokens",
      "outputs": [],
      "stateMutability": "nonpayable",
      "type": "function"
    },
    {
      "inputs": [
        {
          "internalType": "uint256",
          "name": "amountIn",
          "type": "uint256"
        },
        {
          "internalType": "uint256",
          "name": "amountOutMin",
          "type": "uint256"
        },
        {
          "components": [
            {
              "internalType": "address",
              "name": "from",
              "type": "address"
            },
            {
              "internalType": "address",
              "name": "to",
              "type": "address"
            },
            {
              "internalType": "bool",
              "name": "stable",
              "type": "bool"
            }
          ],
          "internalType": "struct SolidlyExtendedRouter03.Route[]",
          "name": "routes",
          "type": "tuple[]"
        },
        {
          "internalType": "address",
          "name": "to",
          "type": "address"
        },
        {
          "internalType": "uint256",
          "name": "deadline",
          "type": "uint256"
        }
      ],
      "name": "swapExactTokensForTokens",
      "outputs": [
        {
          "internalType": "uint256[]",
          "name": "amounts",
          "type": "uint256[]"
        }
      ],
      "stateMutability": "nonpayable",
      "type": "function"
    },
    {
      "inputs": [
        {
          "internalType": "uint256",
          "name": "amountIn",
          "type": "uint256"
        },
        {
          "internalType": "uint256",
          "name": "amountOutMin",
          "type": "uint256"
        },
        {
          "internalType": "address",
          "name": "tokenFrom",
          "type": "address"
        },
        {
          "internalType": "address",
          "name": "tokenTo",
          "type": "address"
        },
        {
          "internalType": "bool",
          "name": "stable",
          "type": "bool"
        },
        {
          "internalType": "address",
          "name": "to",
          "type": "address"
        },
        {
          "internalType": "uint256",
          "name": "deadline",
          "type": "uint256"
        }
      ],
      "name": "swapExactTokensForTokensSimple",
      "outputs": [
        {
          "internalType": "uint256[]",
          "name": "amounts",
          "type": "uint256[]"
        }
      ],
      "stateMutability": "nonpayable",
      "type": "function"
    },
    {
      "inputs": [
        {
          "internalType": "uint256",
          "name": "amountIn",
          "type": "uint256"
        },
        {
          "internalType": "uint256",
          "name": "amountOutMin",
          "type": "uint256"
        },
        {
          "components": [
            {
              "internalType": "address",
              "name": "from",
              "type": "address"
            },
            {
              "internalType": "address",
              "name": "to",
              "type": "address"
            },
            {
              "internalType": "bool",
              "name": "stable",
              "type": "bool"
            }
          ],
          "internalType": "struct SolidlyExtendedRouter03.Route[]",
          "name": "routes",
          "type": "tuple[]"
        },
        {
          "internalType": "address",
          "name": "to",
          "type": "address"
        },
        {
          "internalType": "uint256",
          "name": "deadline",
          "type": "uint256"
        }
      ],
      "name": "swapExactTokensForTokensSupportingFeeOnTransferTokens",
      "outputs": [],
      "stateMutability": "nonpayable",
      "type": "function"
    },
    {
      "inputs": [],
      "name": "voter",
      "outputs": [
        {
          "internalType": "contract IVoter",
          "name": "",
          "type": "address"
        }
      ],
      "stateMutability": "view",
      "type": "function"
    },
    {
      "inputs": [],
      "name": "weth",
      "outputs": [
        {
          "internalType": "contract IWETH",
          "name": "",
          "type": "address"
        }
      ],
      "stateMutability": "view",
      "type": "function"
    },
    {
      "stateMutability": "payable",
      "type": "receive"
    }
  ],
  "bytecode": "0x6101006040523480156200001257600080fd5b50604051620050c7380380620050c78339810160408190526200003591620000ef565b6001600160a01b038316608081905260408051631355724960e31b81529051639aab924891600480820192602092909190829003018186803b1580156200007b57600080fd5b505afa15801562000090573d6000803e3d6000fd5b505050506040513d601f19601f82011682018060405250810190620000b6919062000139565b60e0526001600160a01b0391821660a0521660c0525062000153565b80516001600160a01b0381168114620000ea57600080fd5b919050565b6000806000606084860312156200010557600080fd5b6200011084620000d2565b92506200012060208501620000d2565b91506200013060408501620000d2565b90509250925092565b6000602082840312156200014c57600080fd5b5051919050565b60805160a05160c05160e051614e5a6200026d600039600061050e0152600081816103240152818161127d0152612c0c0152600081816101cb0152818161029801528181610aba01528181610cf901528181610f89015281816118fd01528181611a1001528181611abf01528181611f6c01528181611fea0152818161207f0152818161229d015281816123500152818161240a01528181612a3e01528181612a7401528181612aa901528181612b6201528181612f5301528181612fa30152818161304a01526132f101526000818161058301528181610e0001528181611071015281816115b9015281816116eb015281816125af0152818161274101528181613120015281816138f601526139a60152614e5a6000f3fe6080604052600436106101bb5760003560e01c80637301e3c8116100ec578063b7e0d4c01161008a578063e2d9d4dc11610064578063e2d9d4dc146105c5578063e5e31b13146105e5578063f41766d814610615578063fe411f141461063557600080fd5b8063b7e0d4c01461055e578063c45a015514610571578063d7b0e0a5146105a557600080fd5b80639881fcb4116100c65780639881fcb4146104bc57806398a0fb3c146104dc5780639aab9248146104fc578063a32b1fcd1461053e57600080fd5b80637301e3c81461046957806376c72751146104895780637af728c81461049c57600080fd5b80634c1ee03e116101595780635e1e6325116101335780635e1e6325146103e15780635e60dab51461041657806367ffb66a146104365780636cc1ae131461044957600080fd5b80634c1ee03e14610346578063544caa56146103665780635a47ddc3146103a657600080fd5b80633fc8cef3116101955780633fc8cef3146102865780634386e63c146102d2578063448725b4146102f257806346c96aac1461031257600080fd5b80630dede6c4146101ff57806313dcfc591461023957806318a130861461026657600080fd5b366101fa57336001600160a01b037f000000000000000000000000000000000000000000000000000000000000000016146101f8576101f8614121565b005b600080fd5b34801561020b57600080fd5b5061021f61021a366004614168565b610655565b604080519283526020830191909152015b60405180910390f35b34801561024557600080fd5b506102596102543660046141ed565b61087a565b6040516102309190614268565b34801561027257600080fd5b506102596102813660046142f1565b610a8d565b34801561029257600080fd5b506102ba7f000000000000000000000000000000000000000000000000000000000000000081565b6040516001600160a01b039091168152602001610230565b3480156102de57600080fd5b5061021f6102ed366004614364565b610df9565b3480156102fe57600080fd5b5061021f61030d3660046143c6565b610f7e565b34801561031e57600080fd5b506102ba7f000000000000000000000000000000000000000000000000000000000000000081565b34801561035257600080fd5b506102ba610361366004614470565b611057565b34801561037257600080fd5b506103866103813660046144bb565b611102565b604080516001600160a01b03938416815292909116602083015201610230565b3480156103b257600080fd5b506103c66103c13660046144f4565b6111fa565b60408051938452602084019290925290820152606001610230565b3480156103ed57600080fd5b506104016103fc366004614583565b611581565b60408051928352901515602083015201610230565b34801561042257600080fd5b5061021f610431366004614470565b611811565b6102596104443660046145ba565b6118d8565b34801561045557600080fd5b506101f86104643660046142f1565b611c67565b34801561047557600080fd5b5061025961048436600461468c565b611e73565b6101f86104973660046145ba565b611f49565b3480156104a857600080fd5b506101f86104b73660046142f1565b612272565b3480156104c857600080fd5b506102596104d73660046147ce565b612499565b3480156104e857600080fd5b506103c66104f7366004614874565b612739565b34801561050857600080fd5b506105307f000000000000000000000000000000000000000000000000000000000000000081565b604051908152602001610230565b34801561054a57600080fd5b5061021f6105593660046148cf565b612957565b6103c661056c36600461498b565b612a12565b34801561057d57600080fd5b506102ba7f000000000000000000000000000000000000000000000000000000000000000081565b3480156105b157600080fd5b5061021f6105c036600461498b565b612f29565b3480156105d157600080fd5b5061021f6105e03660046143c6565b61303f565b3480156105f157600080fd5b506106056106003660046149e6565b6130fe565b6040519015158152602001610230565b34801561062157600080fd5b506102596106303660046142f1565b6131a2565b34801561064157600080fd5b5061021f61065036600461498b565b6132c7565b60008082428110156106825760405162461bcd60e51b815260040161067990614a03565b60405180910390fd5b600061068f8c8c8c611057565b6040516323b872dd60e01b81523360048201526001600160a01b03821660248201819052604482018c90529192506323b872dd90606401602060405180830381600087803b1580156106e057600080fd5b505af11580156106f4573d6000803e3d6000fd5b505050506040513d601f19601f820116820180604052508101906107189190614a3a565b61076e5760405162461bcd60e51b815260206004820152602160248201527f457175616c697a657220526f757465723a207472616e73666572206661696c656044820152601960fa1b6064820152608401610679565b60405163226bf2d160e21b81526001600160a01b03878116600483015260009182918416906389afcb44906024016040805180830381600087803b1580156107b557600080fd5b505af11580156107c9573d6000803e3d6000fd5b505050506040513d601f19601f820116820180604052508101906107ed9190614a57565b9150915060006107fd8f8f611102565b509050806001600160a01b03168f6001600160a01b031614610820578183610823565b82825b90975095508a8710156108485760405162461bcd60e51b815260040161067990614a7b565b898610156108685760405162461bcd60e51b815260040161067990614ac2565b50505050509850989650505050505050565b6060814281101561089d5760405162461bcd60e51b815260040161067990614a03565b604080516001808252818301909252600091816020015b60408051606081018252600080825260208083018290529282015282526000199092019101816108b457905050905087816000815181106108f7576108f7614b09565b6020026020010151600001906001600160a01b031690816001600160a01b031681525050868160008151811061092f5761092f614b09565b6020026020010151602001906001600160a01b031690816001600160a01b031681525050858160008151811061096757610967614b09565b60209081029190910101519015156040909101526109858a82612499565b92508883600185516109979190614b35565b815181106109a7576109a7614b09565b602002602001015110156109cd5760405162461bcd60e51b815260040161067990614b4c565b610a75816000815181106109e3576109e3614b09565b60200260200101516000015133610a5584600081518110610a0657610a06614b09565b60200260200101516000015185600081518110610a2557610a25614b09565b60200260200101516020015186600081518110610a4457610a44614b09565b602002602001015160400151611057565b86600081518110610a6857610a68614b09565b60200260200101516133a4565b610a808382876134f2565b5050979650505050505050565b60608142811015610ab05760405162461bcd60e51b815260040161067990614a03565b6001600160a01b037f0000000000000000000000000000000000000000000000000000000000000000168686610ae7600182614b35565b818110610af657610af6614b09565b9050606002016020016020810190610b0e91906149e6565b6001600160a01b031614610b345760405162461bcd60e51b815260040161067990614b98565b610b90888787808060200260200160405190810160405280939291908181526020016000905b82821015610b8657610b7760608302860136819003810190614bcf565b81526020019060010190610b5a565b5050505050612499565b9150868260018451610ba29190614b35565b81518110610bb257610bb2614b09565b60200260200101511015610bd85760405162461bcd60e51b815260040161067990614b4c565b610c9a86866000818110610bee57610bee614b09565b610c0492602060609092020190810191506149e6565b33610c8789896000818110610c1b57610c1b614b09565b610c3192602060609092020190810191506149e6565b8a8a6000818110610c4457610c44614b09565b9050606002016020016020810190610c5c91906149e6565b8b8b6000818110610c6f57610c6f614b09565b90506060020160400160208101906103619190614beb565b85600081518110610a6857610a68614b09565b610cf7828787808060200260200160405190810160405280939291908181526020016000905b82821015610cec57610cdd60608302860136819003810190614bcf565b81526020019060010190610cc0565b5050505050306134f2565b7f00000000000000000000000000000000000000000000000000000000000000006001600160a01b0316632e1a7d4d8360018551610d359190614b35565b81518110610d4557610d45614b09565b60200260200101516040518263ffffffff1660e01b8152600401610d6b91815260200190565b602060405180830381600087803b158015610d8557600080fd5b505af1158015610d99573d6000803e3d6000fd5b505050506040513d601f19601f82011682018060405250810190610dbd9190614c08565b50610dee848360018551610dd19190614b35565b81518110610de157610de1614b09565b6020026020010151613747565b509695505050505050565b60008060007f00000000000000000000000000000000000000000000000000000000000000006001600160a01b0316636801cc308888886040518463ffffffff1660e01b8152600401610e4e93929190614c21565b60206040518083038186803b158015610e6657600080fd5b505afa158015610e7a573d6000803e3d6000fd5b505050506040513d601f19601f82011682018060405250810190610e9e9190614c45565b90506001600160a01b038116610ebb576000809250925050610f75565b600080610ec9898989611811565b915091506000836001600160a01b03166318160ddd6040518163ffffffff1660e01b815260040160206040518083038186803b158015610f0857600080fd5b505afa158015610f1c573d6000803e3d6000fd5b505050506040513d601f19601f82011682018060405250810190610f409190614c08565b905080610f4d8489614c62565b610f579190614c81565b955080610f648389614c62565b610f6e9190614c81565b9450505050505b94509492505050565b6000806000610fae8e7f00000000000000000000000000000000000000000000000000000000000000008f611057565b9050600087610fbd578c610fc1565b6000195b60405163d505accf60e01b81529091506001600160a01b0383169063d505accf90610ffc903390309086908f908e908e908e90600401614ca3565b600060405180830381600087803b15801561101657600080fd5b505af115801561102a573d6000803e3d6000fd5b5050505061103d8f8f8f8f8f8f8f612f29565b809450819550505050509b509b9950505050505050505050565b6040516306801cc360e41b81526000906001600160a01b037f00000000000000000000000000000000000000000000000000000000000000001690636801cc30906110aa90879087908790600401614c21565b60206040518083038186803b1580156110c257600080fd5b505afa1580156110d6573d6000803e3d6000fd5b505050506040513d601f19601f820116820180604052508101906110fa9190614c45565b949350505050565b600080826001600160a01b0316846001600160a01b031614156111755760405162461bcd60e51b815260206004820152602560248201527f457175616c697a657220526f757465723a204944454e544943414c5f41444452604482015264455353455360d81b6064820152608401610679565b826001600160a01b0316846001600160a01b031610611195578284611198565b83835b90925090506001600160a01b0382166111f35760405162461bcd60e51b815260206004820152601e60248201527f457175616c697a657220526f757465723a205a45524f5f4144445245535300006044820152606401610679565b9250929050565b600080600083428110156112205760405162461bcd60e51b815260040161067990614a03565b61122f8d8d8d8d8d8d8d613815565b909450925060006112418e8e8e611057565b905061124f8e3383886133a4565b61125b8d3383876133a4565b60405163b9a09fd560e01b81526001600160a01b0382811660048301526000917f00000000000000000000000000000000000000000000000000000000000000009091169063b9a09fd59060240160206040518083038186803b1580156112c157600080fd5b505afa1580156112d5573d6000803e3d6000fd5b505050506040513d601f19601f820116820180604052508101906112f99190614c45565b90506001600160a01b03811661138b576040516335313c2160e11b81526001600160a01b038981166004830152831690636a62784290602401602060405180830381600087803b15801561134c57600080fd5b505af1158015611360573d6000803e3d6000fd5b505050506040513d601f19601f820116820180604052508101906113849190614c08565b935061156f565b6040516335313c2160e11b81523060048201526001600160a01b03831690636a62784290602401602060405180830381600087803b1580156113cc57600080fd5b505af11580156113e0573d6000803e3d6000fd5b505050506040513d601f19601f820116820180604052508101906114049190614c08565b604051636eb1769f60e11b81523060048201526001600160a01b038381166024830152919550859184169063dd62ed3e9060440160206040518083038186803b15801561145057600080fd5b505afa158015611464573d6000803e3d6000fd5b505050506040513d601f19601f820116820180604052508101906114889190614c08565b10156115135760405163095ea7b360e01b81526001600160a01b038281166004830152600019602483015283169063095ea7b390604401602060405180830381600087803b1580156114d957600080fd5b505af11580156114ed573d6000803e3d6000fd5b505050506040513d601f19601f820116820180604052508101906115119190614a3a565b505b604051633010d8ef60e01b81526001600160a01b038981166004830152821690633010d8ef90602401600060405180830381600087803b15801561155657600080fd5b505af115801561156a573d6000803e3d6000fd5b505050505b50505099509950999650505050505050565b600080600061159285856001611057565b60405163e5e31b1360e01b81526001600160a01b03828116600483015291925060009182917f00000000000000000000000000000000000000000000000000000000000000009091169063e5e31b139060240160206040518083038186803b1580156115fd57600080fd5b505afa158015611611573d6000803e3d6000fd5b505050506040513d601f19601f820116820180604052508101906116359190614a3a565b156116bd576040516378a051ad60e11b8152600481018990526001600160a01b03888116602483015284169063f140a35a9060440160206040518083038186803b15801561168257600080fd5b505afa158015611696573d6000803e3d6000fd5b505050506040513d601f19601f820116820180604052508101906116ba9190614c08565b91505b6116c987876000611057565b60405163e5e31b1360e01b81526001600160a01b0380831660048301529194507f00000000000000000000000000000000000000000000000000000000000000009091169063e5e31b139060240160206040518083038186803b15801561172f57600080fd5b505afa158015611743573d6000803e3d6000fd5b505050506040513d601f19601f820116820180604052508101906117679190614a3a565b156117ef576040516378a051ad60e11b8152600481018990526001600160a01b03888116602483015284169063f140a35a9060440160206040518083038186803b1580156117b457600080fd5b505afa1580156117c8573d6000803e3d6000fd5b505050506040513d601f19601f820116820180604052508101906117ec9190614c08565b90505b8082116117fe57806000611802565b8160015b94509450505050935093915050565b60008060006118208686611102565b509050600080611831888888611057565b6001600160a01b0316630902f1ac6040518163ffffffff1660e01b815260040160606040518083038186803b15801561186957600080fd5b505afa15801561187d573d6000803e3d6000fd5b505050506040513d601f19601f820116820180604052508101906118a19190614ce4565b5091509150826001600160a01b0316886001600160a01b0316146118c65780826118c9565b81815b90999098509650505050505050565b606081428110156118fb5760405162461bcd60e51b815260040161067990614a03565b7f00000000000000000000000000000000000000000000000000000000000000006001600160a01b03168686600081811061193857611938614b09565b61194e92602060609092020190810191506149e6565b6001600160a01b0316146119745760405162461bcd60e51b815260040161067990614b98565b6119c6348787808060200260200160405190810160405280939291908181526020016000905b82821015610b86576119b760608302860136819003810190614bcf565b8152602001906001019061199a565b91508682600184516119d89190614b35565b815181106119e8576119e8614b09565b60200260200101511015611a0e5760405162461bcd60e51b815260040161067990614b4c565b7f00000000000000000000000000000000000000000000000000000000000000006001600160a01b031663d0e30db083600081518110611a5057611a50614b09565b60200260200101516040518263ffffffff1660e01b81526004016020604051808303818588803b158015611a8357600080fd5b505af1158015611a97573d6000803e3d6000fd5b50505050506040513d601f19601f82011682018060405250810190611abc9190614c08565b507f00000000000000000000000000000000000000000000000000000000000000006001600160a01b031663a9059cbb611b5688886000818110611b0257611b02614b09565b611b1892602060609092020190810191506149e6565b89896000818110611b2b57611b2b614b09565b9050606002016020016020810190611b4391906149e6565b8a8a6000818110610c6f57610c6f614b09565b84600081518110611b6957611b69614b09565b60200260200101516040518363ffffffff1660e01b8152600401611ba29291906001600160a01b03929092168252602082015260400190565b602060405180830381600087803b158015611bbc57600080fd5b505af1158015611bd0573d6000803e3d6000fd5b505050506040513d601f19601f82011682018060405250810190611bf49190614a3a565b611c0057611c00614121565b611c5d828787808060200260200160405190810160405280939291908181526020016000905b82821015611c5257611c4360608302860136819003810190614bcf565b81526020019060010190611c26565b5050505050866134f2565b5095945050505050565b8042811015611c885760405162461bcd60e51b815260040161067990614a03565b611cd185856000818110611c9e57611c9e614b09565b611cb492602060609092020190810191506149e6565b33611ccb88886000818110611b0257611b02614b09565b8a6133a4565b60008585611ce0600182614b35565b818110611cef57611cef614b09565b9050606002016020016020810190611d0791906149e6565b6040516370a0823160e01b81526001600160a01b03868116600483015291909116906370a082319060240160206040518083038186803b158015611d4a57600080fd5b505afa158015611d5e573d6000803e3d6000fd5b505050506040513d601f19601f82011682018060405250810190611d829190614c08565b9050611d8f868686613afb565b86818787611d9e600182614b35565b818110611dad57611dad614b09565b9050606002016020016020810190611dc591906149e6565b6040516370a0823160e01b81526001600160a01b03888116600483015291909116906370a08231906024015b60206040518083038186803b158015611e0957600080fd5b505afa158015611e1d573d6000803e3d6000fd5b505050506040513d601f19601f82011682018060405250810190611e419190614c08565b611e4b9190614b35565b1015611e695760405162461bcd60e51b815260040161067990614b4c565b5050505050505050565b60608142811015611e965760405162461bcd60e51b815260040161067990614a03565b611eec86866000818110611eac57611eac614b09565b611ec292602060609092020190810191506149e6565b33611ed989896000818110610c1b57610c1b614b09565b8a600081518110610a6857610a68614b09565b611f3e878787808060200260200160405190810160405280939291908181526020016000905b82821015611c5257611f2f60608302860136819003810190614bcf565b81526020019060010190611f12565b509495945050505050565b8042811015611f6a5760405162461bcd60e51b815260040161067990614a03565b7f00000000000000000000000000000000000000000000000000000000000000006001600160a01b031685856000818110611fa757611fa7614b09565b611fbd92602060609092020190810191506149e6565b6001600160a01b031614611fe35760405162461bcd60e51b815260040161067990614b98565b60003490507f00000000000000000000000000000000000000000000000000000000000000006001600160a01b031663d0e30db0826040518263ffffffff1660e01b81526004016020604051808303818588803b15801561204357600080fd5b505af1158015612057573d6000803e3d6000fd5b50505050506040513d601f19601f8201168201806040525081019061207c9190614c08565b507f00000000000000000000000000000000000000000000000000000000000000006001600160a01b031663a9059cbb6120c288886000818110611b0257611b02614b09565b6040516001600160e01b031960e084901b1681526001600160a01b03909116600482015260248101849052604401602060405180830381600087803b15801561210a57600080fd5b505af115801561211e573d6000803e3d6000fd5b505050506040513d601f19601f820116820180604052508101906121429190614a3a565b61214e5761214e614121565b6000868661215d600182614b35565b81811061216c5761216c614b09565b905060600201602001602081019061218491906149e6565b6040516370a0823160e01b81526001600160a01b03878116600483015291909116906370a082319060240160206040518083038186803b1580156121c757600080fd5b505afa1580156121db573d6000803e3d6000fd5b505050506040513d601f19601f820116820180604052508101906121ff9190614c08565b905061220c878787613afb565b8781888861221b600182614b35565b81811061222a5761222a614b09565b905060600201602001602081019061224291906149e6565b6040516370a0823160e01b81526001600160a01b03898116600483015291909116906370a0823190602401611df1565b80428110156122935760405162461bcd60e51b815260040161067990614a03565b6001600160a01b037f00000000000000000000000000000000000000000000000000000000000000001685856122ca600182614b35565b8181106122d9576122d9614b09565b90506060020160200160208101906122f191906149e6565b6001600160a01b0316146123175760405162461bcd60e51b815260040161067990614b98565b61232d85856000818110611c9e57611c9e614b09565b612338858530613afb565b6040516370a0823160e01b81523060048201526000907f00000000000000000000000000000000000000000000000000000000000000006001600160a01b0316906370a082319060240160206040518083038186803b15801561239a57600080fd5b505afa1580156123ae573d6000803e3d6000fd5b505050506040513d601f19601f820116820180604052508101906123d29190614c08565b9050868110156123f45760405162461bcd60e51b815260040161067990614b4c565b604051632e1a7d4d60e01b8152600481018290527f00000000000000000000000000000000000000000000000000000000000000006001600160a01b031690632e1a7d4d90602401602060405180830381600087803b15801561245657600080fd5b505af115801561246a573d6000803e3d6000fd5b505050506040513d601f19601f8201168201806040525081019061248e9190614c08565b50611e698482613747565b60606001825110156124bd5760405162461bcd60e51b815260040161067990614b98565b81516124ca906001614d12565b67ffffffffffffffff8111156124e2576124e2614621565b60405190808252806020026020018201604052801561250b578160200160208202803683370190505b509050828160008151811061252257612522614b09565b60200260200101818152505060005b825181101561273257600061258d84838151811061255157612551614b09565b60200260200101516000015185848151811061256f5761256f614b09565b602002602001015160200151868581518110610a4457610a44614b09565b60405163e5e31b1360e01b81526001600160a01b0380831660048301529192507f00000000000000000000000000000000000000000000000000000000000000009091169063e5e31b139060240160206040518083038186803b1580156125f357600080fd5b505afa158015612607573d6000803e3d6000fd5b505050506040513d601f19601f8201168201806040525081019061262b9190614a3a565b1561271f57806001600160a01b031663f140a35a84848151811061265157612651614b09565b602002602001015186858151811061266b5761266b614b09565b6020026020010151600001516040518363ffffffff1660e01b81526004016126a69291909182526001600160a01b0316602082015260400190565b60206040518083038186803b1580156126be57600080fd5b505afa1580156126d2573d6000803e3d6000fd5b505050506040513d601f19601f820116820180604052508101906126f69190614c08565b83612702846001614d12565b8151811061271257612712614b09565b6020026020010181815250505b508061272a81614d2a565b915050612531565b5092915050565b6000806000807f00000000000000000000000000000000000000000000000000000000000000006001600160a01b0316636801cc308a8a8a6040518463ffffffff1660e01b815260040161278f93929190614c21565b60206040518083038186803b1580156127a757600080fd5b505afa1580156127bb573d6000803e3d6000fd5b505050506040513d601f19601f820116820180604052508101906127df9190614c45565b9050600080806001600160a01b0384161561287857836001600160a01b03166318160ddd6040518163ffffffff1660e01b815260040160206040518083038186803b15801561282d57600080fd5b505afa158015612841573d6000803e3d6000fd5b505050506040513d601f19601f820116820180604052508101906128659190614c08565b90506128728c8c8c611811565b90935091505b82158015612884575081155b156128b5578896508795506103e86128a461289f888a614c62565b613e73565b6128ae9190614b35565b9450612948565b60006128c28a8585613ee3565b905088811161290a57899750955085612903846128df848b614c62565b6128e99190614c81565b846128f4858b614c62565b6128fe9190614c81565b613fc4565b9550612946565b60006129178a8587613ee3565b98508997508890506129428561292d8584614c62565b6129379190614c81565b856128f4868c614c62565b9650505b505b50505050955095509592505050565b60008060006129678f8f8f611057565b9050600087612976578c61297a565b6000195b60405163d505accf60e01b81529091506001600160a01b0383169063d505accf906129b5903390309086908f908e908e908e90600401614ca3565b600060405180830381600087803b1580156129cf57600080fd5b505af11580156129e3573d6000803e3d6000fd5b50505050506129f88f8f8f8f8f8f8f8f610655565b8093508194505050509c509c9a5050505050505050505050565b60008060008342811015612a385760405162461bcd60e51b815260040161067990614a03565b612a678b7f00000000000000000000000000000000000000000000000000000000000000008c8c348d8d613815565b90945092506000612a998c7f00000000000000000000000000000000000000000000000000000000000000008d611057565b9050612aa78c3383886133a4565b7f00000000000000000000000000000000000000000000000000000000000000006001600160a01b031663d0e30db0856040518263ffffffff1660e01b81526004016020604051808303818588803b158015612b0257600080fd5b505af1158015612b16573d6000803e3d6000fd5b50505050506040513d601f19601f82011682018060405250810190612b3b9190614c08565b5060405163a9059cbb60e01b81526001600160a01b038281166004830152602482018690527f0000000000000000000000000000000000000000000000000000000000000000169063a9059cbb90604401602060405180830381600087803b158015612ba657600080fd5b505af1158015612bba573d6000803e3d6000fd5b505050506040513d601f19601f82011682018060405250810190612bde9190614a3a565b612bea57612bea614121565b60405163b9a09fd560e01b81526001600160a01b0382811660048301526000917f00000000000000000000000000000000000000000000000000000000000000009091169063b9a09fd59060240160206040518083038186803b158015612c5057600080fd5b505afa158015612c64573d6000803e3d6000fd5b505050506040513d601f19601f82011682018060405250810190612c889190614c45565b90506001600160a01b038116612d1a576040516335313c2160e11b81526001600160a01b038981166004830152831690636a62784290602401602060405180830381600087803b158015612cdb57600080fd5b505af1158015612cef573d6000803e3d6000fd5b505050506040513d601f19601f82011682018060405250810190612d139190614c08565b9350612efe565b6040516335313c2160e11b81523060048201526001600160a01b03831690636a62784290602401602060405180830381600087803b158015612d5b57600080fd5b505af1158015612d6f573d6000803e3d6000fd5b505050506040513d601f19601f82011682018060405250810190612d939190614c08565b604051636eb1769f60e11b81523060048201526001600160a01b038381166024830152919550859184169063dd62ed3e9060440160206040518083038186803b158015612ddf57600080fd5b505afa158015612df3573d6000803e3d6000fd5b505050506040513d601f19601f82011682018060405250810190612e179190614c08565b1015612ea25760405163095ea7b360e01b81526001600160a01b038281166004830152600019602483015283169063095ea7b390604401602060405180830381600087803b158015612e6857600080fd5b505af1158015612e7c573d6000803e3d6000fd5b505050506040513d601f19601f82011682018060405250810190612ea09190614a3a565b505b604051633010d8ef60e01b81526001600160a01b038981166004830152821690633010d8ef90602401600060405180830381600087803b158015612ee557600080fd5b505af1158015612ef9573d6000803e3d6000fd5b505050505b5083341115612f1a57612f1a33612f158634614b35565b613747565b50509750975097945050505050565b6000808242811015612f4d5760405162461bcd60e51b815260040161067990614a03565b612f7d8a7f00000000000000000000000000000000000000000000000000000000000000008b8b8b8b308b610655565b9093509150612f8d8a8685613fdc565b604051632e1a7d4d60e01b8152600481018390527f00000000000000000000000000000000000000000000000000000000000000006001600160a01b031690632e1a7d4d90602401602060405180830381600087803b158015612fef57600080fd5b505af1158015613003573d6000803e3d6000fd5b505050506040513d601f19601f820116820180604052508101906130279190614c08565b506130328583613747565b5097509795505050505050565b600080600061306f8e7f00000000000000000000000000000000000000000000000000000000000000008f611057565b905060008761307e578c613082565b6000195b60405163d505accf60e01b81529091506001600160a01b0383169063d505accf906130bd903390309086908f908e908e908e90600401614ca3565b600060405180830381600087803b1580156130d757600080fd5b505af11580156130eb573d6000803e3d6000fd5b5050505061103d8f8f8f8f8f8f8f6132c7565b60405163e5e31b1360e01b81526001600160a01b0382811660048301526000917f00000000000000000000000000000000000000000000000000000000000000009091169063e5e31b139060240160206040518083038186803b15801561316457600080fd5b505afa158015613178573d6000803e3d6000fd5b505050506040513d601f19601f8201168201806040525081019061319c9190614a3a565b92915050565b606081428110156131c55760405162461bcd60e51b815260040161067990614a03565b613217888787808060200260200160405190810160405280939291908181526020016000905b82821015610b865761320860608302860136819003810190614bcf565b815260200190600101906131eb565b91508682600184516132299190614b35565b8151811061323957613239614b09565b6020026020010151101561325f5760405162461bcd60e51b815260040161067990614b4c565b61327586866000818110610bee57610bee614b09565b610dee828787808060200260200160405190810160405280939291908181526020016000905b82821015611c52576132b860608302860136819003810190614bcf565b8152602001906001019061329b565b60008082428110156132eb5760405162461bcd60e51b815260040161067990614a03565b61331b8a7f00000000000000000000000000000000000000000000000000000000000000008b8b8b8b308b610655565b6040516370a0823160e01b81523060048201529194509250612f8d908b9087906001600160a01b038316906370a082319060240160206040518083038186803b15801561336757600080fd5b505afa15801561337b573d6000803e3d6000fd5b505050506040513d601f19601f8201168201806040525081019061339f9190614c08565b613fdc565b6000846001600160a01b03163b116133fe5760405162461bcd60e51b815260206004820152601f60248201527f457175616c697a657220526f757465723a20696e76616c696420746f6b656e006044820152606401610679565b604080516001600160a01b0385811660248301528481166044830152606480830185905283518084039091018152608490920183526020820180516001600160e01b03166323b872dd60e01b17905291516000928392908816916134629190614d71565b6000604051808303816000865af19150503d806000811461349f576040519150601f19603f3d011682016040523d82523d6000602084013e6134a4565b606091505b50915091508180156134ce5750805115806134ce5750808060200190518101906134ce9190614a3a565b6134ea5760405162461bcd60e51b815260040161067990614d8d565b505050505050565b60005b825181101561374157600061354484838151811061351557613515614b09565b60200260200101516000015185848151811061353357613533614b09565b602002602001015160200151611102565b509050600085613555846001614d12565b8151811061356557613565614b09565b60200260200101519050600080836001600160a01b031687868151811061358e5761358e614b09565b6020026020010151600001516001600160a01b0316146135b0578260006135b4565b6000835b915091506000600188516135c89190614b35565b86106135d45786613647565b613647886135e3886001614d12565b815181106135f3576135f3614b09565b6020026020010151600001518988600161360d9190614d12565b8151811061361d5761361d614b09565b6020026020010151602001518a8960016136379190614d12565b81518110610a4457610a44614b09565b905061369a88878151811061365e5761365e614b09565b60200260200101516000015189888151811061367c5761367c614b09565b6020026020010151602001518a8981518110610a4457610a44614b09565b6001600160a01b031663022c0d9f84848460006040519080825280601f01601f1916602001820160405280156136d7576020820181803683370190505b506040518563ffffffff1660e01b81526004016136f79493929190614dd4565b600060405180830381600087803b15801561371157600080fd5b505af1158015613725573d6000803e3d6000fd5b505050505050505050808061373990614d2a565b9150506134f5565b50505050565b604080516000808252602082019092526001600160a01b0384169083906040516137719190614d71565b60006040518083038185875af1925050503d80600081146137ae576040519150601f19603f3d011682016040523d82523d6000602084013e6137b3565b606091505b50509050806138105760405162461bcd60e51b815260206004820152602360248201527f5472616e7366657248656c7065723a204554485f5452414e534645525f46414960448201526213115160ea1b6064820152608401610679565b505050565b6000808386101561387a5760405162461bcd60e51b815260206004820152602960248201527f457175616c697a657220526f757465723a20696e76616c6964206465736972656044820152686420616d6f756e744160b81b6064820152608401610679565b828510156138dc5760405162461bcd60e51b815260206004820152602960248201527f457175616c697a657220526f757465723a20696e76616c696420646573697265604482015268321030b6b7bab73a2160b91b6064820152608401610679565b6040516306801cc360e41b81526000906001600160a01b037f00000000000000000000000000000000000000000000000000000000000000001690636801cc309061392f908d908d908d90600401614c21565b60206040518083038186803b15801561394757600080fd5b505afa15801561395b573d6000803e3d6000fd5b505050506040513d601f19601f8201168201806040525081019061397f9190614c45565b90506001600160a01b038116613a34576040516320b7f73960e21b81526001600160a01b037f000000000000000000000000000000000000000000000000000000000000000016906382dfdce4906139df908d908d908d90600401614c21565b602060405180830381600087803b1580156139f957600080fd5b505af1158015613a0d573d6000803e3d6000fd5b505050506040513d601f19601f82011682018060405250810190613a319190614c45565b90505b600080613a428c8c8c611811565b91509150816000148015613a54575080155b15613a6457889450879350613aec565b6000613a718a8484613ee3565b9050888111613aa55786811015613a9a5760405162461bcd60e51b815260040161067990614ac2565b899550935083613aea565b6000613ab28a8486613ee3565b90508a811115613ac457613ac4614121565b88811015613ae45760405162461bcd60e51b815260040161067990614a7b565b95508894505b505b50505097509795505050505050565b60005b8281101561374157600080858584818110613b1b57613b1b614b09565b613b3192602060609092020190810191506149e6565b868685818110613b4357613b43614b09565b9050606002016020016020810190613b5b91906149e6565b915091506000613b6b8383611102565b5090506000613bd7888887818110613b8557613b85614b09565b613b9b92602060609092020190810191506149e6565b898988818110613bad57613bad614b09565b9050606002016020016020810190613bc591906149e6565b8a8a89818110610c6f57610c6f614b09565b9050600080600080846001600160a01b0316630902f1ac6040518163ffffffff1660e01b815260040160606040518083038186803b158015613c1857600080fd5b505afa158015613c2c573d6000803e3d6000fd5b505050506040513d601f19601f82011682018060405250810190613c509190614ce4565b50915091506000866001600160a01b0316896001600160a01b031614613c77578183613c7a565b82825b506040516370a0823160e01b81526001600160a01b03888116600483015291925082918b16906370a082319060240160206040518083038186803b158015613cc157600080fd5b505afa158015613cd5573d6000803e3d6000fd5b505050506040513d601f19601f82011682018060405250810190613cf99190614c08565b613d039190614b35565b9450613d10858a8a611581565b5080945050505050600080856001600160a01b0316886001600160a01b031614613d3c57826000613d40565b6000835b90925090506000613d5260018d614b35565b8a10613d5e578a613de3565b613de38d8d613d6e8d6001614d12565b818110613d7d57613d7d614b09565b613d9392602060609092020190810191506149e6565b8e8e613da08e6001614d12565b818110613daf57613daf614b09565b9050606002016020016020810190613dc791906149e6565b8f8f613dd48f6001614d12565b818110610c6f57610c6f614b09565b6040805160008152602081019182905263022c0d9f60e01b9091529091506001600160a01b0387169063022c0d9f90613e259086908690869060248101614dd4565b600060405180830381600087803b158015613e3f57600080fd5b505af1158015613e53573d6000803e3d6000fd5b505050505050505050505050508080613e6b90614d2a565b915050613afe565b60006003821115613ed45750806000613e8d600283614c81565b613e98906001614d12565b90505b81811015613ece57905080600281613eb38186614c81565b613ebd9190614d12565b613ec79190614c81565b9050613e9b565b50919050565b8115613ede575060015b919050565b6000808411613f425760405162461bcd60e51b815260206004820152602560248201527f457175616c697a657220526f757465723a20494e53554646494349454e545f416044820152641353d5539560da1b6064820152608401610679565b600083118015613f525750600082115b613faf5760405162461bcd60e51b815260206004820152602860248201527f457175616c697a657220526f757465723a20494e53554646494349454e545f4c604482015267495155494449545960c01b6064820152608401610679565b82613fba8386614c62565b6110fa9190614c81565b6000818310613fd35781613fd5565b825b9392505050565b6000836001600160a01b03163b116140365760405162461bcd60e51b815260206004820152601f60248201527f457175616c697a657220526f757465723a20696e76616c696420746f6b656e006044820152606401610679565b604080516001600160a01b038481166024830152604480830185905283518084039091018152606490920183526020820180516001600160e01b031663a9059cbb60e01b17905291516000928392908716916140929190614d71565b6000604051808303816000865af19150503d80600081146140cf576040519150601f19603f3d011682016040523d82523d6000602084013e6140d4565b606091505b50915091508180156140fe5750805115806140fe5750808060200190518101906140fe9190614a3a565b61411a5760405162461bcd60e51b815260040161067990614d8d565b5050505050565b634e487b7160e01b600052600160045260246000fd5b6001600160a01b038116811461414c57600080fd5b50565b8035613ede81614137565b801515811461414c57600080fd5b600080600080600080600080610100898b03121561418557600080fd5b883561419081614137565b975060208901356141a081614137565b965060408901356141b08161415a565b9550606089013594506080890135935060a0890135925060c08901356141d581614137565b8092505060e089013590509295985092959890939650565b600080600080600080600060e0888a03121561420857600080fd5b8735965060208801359550604088013561422181614137565b9450606088013561423181614137565b935060808801356142418161415a565b925060a088013561425181614137565b8092505060c0880135905092959891949750929550565b6020808252825182820181905260009190848201906040850190845b818110156142a057835183529284019291840191600101614284565b50909695505050505050565b60008083601f8401126142be57600080fd5b50813567ffffffffffffffff8111156142d657600080fd5b6020830191508360206060830285010111156111f357600080fd5b60008060008060008060a0878903121561430a57600080fd5b8635955060208701359450604087013567ffffffffffffffff81111561432f57600080fd5b61433b89828a016142ac565b909550935050606087013561434f81614137565b80925050608087013590509295509295509295565b6000806000806080858703121561437a57600080fd5b843561438581614137565b9350602085013561439581614137565b925060408501356143a58161415a565b9396929550929360600135925050565b803560ff81168114613ede57600080fd5b60008060008060008060008060008060006101608c8e0312156143e857600080fd5b8b356143f381614137565b9a5060208c01356144038161415a565b995060408c0135985060608c0135975060808c0135965060a08c013561442881614137565b955060c08c0135945060e08c013561443f8161415a565b935061444e6101008d016143b5565b92506101208c013591506101408c013590509295989b509295989b9093969950565b60008060006060848603121561448557600080fd5b833561449081614137565b925060208401356144a081614137565b915060408401356144b08161415a565b809150509250925092565b600080604083850312156144ce57600080fd5b82356144d981614137565b915060208301356144e981614137565b809150509250929050565b60008060008060008060008060006101208a8c03121561451357600080fd5b893561451e81614137565b985060208a013561452e81614137565b975060408a013561453e8161415a565b965060608a0135955060808a0135945060a08a0135935060c08a0135925060e08a013561456a81614137565b809250506101008a013590509295985092959850929598565b60008060006060848603121561459857600080fd5b8335925060208401356145aa81614137565b915060408401356144b081614137565b6000806000806000608086880312156145d257600080fd5b85359450602086013567ffffffffffffffff8111156145f057600080fd5b6145fc888289016142ac565b909550935050604086013561461081614137565b949793965091946060013592915050565b634e487b7160e01b600052604160045260246000fd5b604051601f8201601f1916810167ffffffffffffffff8111828210171561466057614660614621565b604052919050565b600067ffffffffffffffff82111561468257614682614621565b5060051b60200190565b6000806000806000608086880312156146a457600080fd5b853567ffffffffffffffff808211156146bc57600080fd5b818801915088601f8301126146d057600080fd5b813560206146e56146e083614668565b614637565b82815260059290921b8401810191818101908c84111561470457600080fd5b948201945b8386101561472257853582529482019490820190614709565b9950508901359250508082111561473857600080fd5b50614745888289016142ac565b909550935061461090506040870161414f565b60006060828403121561476a57600080fd5b6040516060810181811067ffffffffffffffff8211171561478d5761478d614621565b604052905080823561479e81614137565b815260208301356147ae81614137565b602082015260408301356147c18161415a565b6040919091015292915050565b600080604083850312156147e157600080fd5b8235915060208084013567ffffffffffffffff81111561480057600080fd5b8401601f8101861361481157600080fd5b803561481f6146e082614668565b8181526060918202830184019184820191908984111561483e57600080fd5b938501935b83851015614864576148558a86614758565b83529384019391850191614843565b5080955050505050509250929050565b600080600080600060a0868803121561488c57600080fd5b853561489781614137565b945060208601356148a781614137565b935060408601356148b78161415a565b94979396509394606081013594506080013592915050565b6000806000806000806000806000806000806101808d8f0312156148f257600080fd5b8c356148fd81614137565b9b5060208d013561490d81614137565b9a5060408d013561491d8161415a565b995060608d0135985060808d0135975060a08d0135965060c08d013561494281614137565b955060e08d013594506101008d013561495a8161415a565b93506149696101208e016143b5565b92506101408d013591506101608d013590509295989b509295989b509295989b565b600080600080600080600060e0888a0312156149a657600080fd5b87356149b181614137565b965060208801356149c18161415a565b955060408801359450606088013593506080880135925060a088013561425181614137565b6000602082840312156149f857600080fd5b8135613fd581614137565b60208082526019908201527f457175616c697a657220526f757465723a204558504952454400000000000000604082015260600190565b600060208284031215614a4c57600080fd5b8151613fd58161415a565b60008060408385031215614a6a57600080fd5b505080516020909101519092909150565b60208082526027908201527f457175616c697a657220526f757465723a20494e53554646494349454e545f4160408201526617d05353d5539560ca1b606082015260800190565b60208082526027908201527f457175616c697a657220526f757465723a20494e53554646494349454e545f4260408201526617d05353d5539560ca1b606082015260800190565b634e487b7160e01b600052603260045260246000fd5b634e487b7160e01b600052601160045260246000fd5b600082821015614b4757614b47614b1f565b500390565b6020808252602c908201527f457175616c697a657220526f757465723a20494e53554646494349454e545f4f60408201526b155514155517d05353d5539560a21b606082015260800190565b6020808252601e908201527f457175616c697a657220526f757465723a20494e56414c49445f504154480000604082015260600190565b600060608284031215614be157600080fd5b613fd58383614758565b600060208284031215614bfd57600080fd5b8135613fd58161415a565b600060208284031215614c1a57600080fd5b5051919050565b6001600160a01b039384168152919092166020820152901515604082015260600190565b600060208284031215614c5757600080fd5b8151613fd581614137565b6000816000190483118215151615614c7c57614c7c614b1f565b500290565b600082614c9e57634e487b7160e01b600052601260045260246000fd5b500490565b6001600160a01b0397881681529590961660208601526040850193909352606084019190915260ff16608083015260a082015260c081019190915260e00190565b600080600060608486031215614cf957600080fd5b8351925060208401519150604084015190509250925092565b60008219821115614d2557614d25614b1f565b500190565b6000600019821415614d3e57614d3e614b1f565b5060010190565b60005b83811015614d60578181015183820152602001614d48565b838111156137415750506000910152565b60008251614d83818460208701614d45565b9190910192915050565b60208082526027908201527f457175616c697a657220526f757465723a20746f6b656e207472616e736665726040820152660819985a5b195960ca1b606082015260800190565b84815283602082015260018060a01b03831660408201526080606082015260008251806080840152614e0d8160a0850160208701614d45565b601f01601f19169190910160a0019594505050505056fea2646970667358221220f0aeb7927e340db4183dba95055b4b38be8c33eef91dbd3d3c126d30f0905d2764736f6c63430008090033",
  "linkReferences": {},
  "deployedLinkReferences": {}
}