{
  "_format": "hh-sol-artifact-1",
  "contractName": "AirdropHDT",
  "sourceName": "contracts/airdrop/AirdropHDT.sol",
  "abi": [
    {
      "inputs": [
        {
          "internalType": "contract IERC20",
          "name": "_token",
          "type": "address"
        },
        {
          "internalType": "bytes32",
          "name": "_merkleRoot",
          "type": "bytes32"
        }
      ],
      "stateMutability": "nonpayable",
      "type": "constructor"
    },
    {
      "inputs": [
        {
          "internalType": "address",
          "name": "owner",
          "type": "address"
        }
      ],
      "name": "OwnableInvalidOwner",
      "type": "error"
    },
    {
      "inputs": [
        {
          "internalType": "address",
          "name": "account",
          "type": "address"
        }
      ],
      "name": "OwnableUnauthorizedAccount",
      "type": "error"
    },
    {
      "anonymous": false,
      "inputs": [
        {
          "indexed": true,
          "internalType": "address",
          "name": "previousOwner",
          "type": "address"
        },
        {
          "indexed": true,
          "internalType": "address",
          "name": "newOwner",
          "type": "address"
        }
      ],
      "name": "OwnershipTransferred",
      "type": "event"
    },
    {
      "anonymous": false,
      "inputs": [
        {
          "indexed": true,
          "internalType": "address",
          "name": "claimant",
          "type": "address"
        },
        {
          "indexed": false,
          "internalType": "uint256",
          "name": "amount",
          "type": "uint256"
        }
      ],
      "name": "TokensClaimed",
      "type": "event"
    },
    {
      "inputs": [
        {
          "internalType": "uint256",
          "name": "amount",
          "type": "uint256"
        },
        {
          "internalType": "bytes32[]",
          "name": "merkleProof",
          "type": "bytes32[]"
        }
      ],
      "name": "claimTokens",
      "outputs": [],
      "stateMutability": "nonpayable",
      "type": "function"
    },
    {
      "inputs": [],
      "name": "getMerkleRoot",
      "outputs": [
        {
          "internalType": "bytes32",
          "name": "",
          "type": "bytes32"
        }
      ],
      "stateMutability": "view",
      "type": "function"
    },
    {
      "inputs": [
        {
          "internalType": "address",
          "name": "",
          "type": "address"
        }
      ],
      "name": "hasClaimed",
      "outputs": [
        {
          "internalType": "bool",
          "name": "",
          "type": "bool"
        }
      ],
      "stateMutability": "view",
      "type": "function"
    },
    {
      "inputs": [],
      "name": "merkleRoot",
      "outputs": [
        {
          "internalType": "bytes32",
          "name": "",
          "type": "bytes32"
        }
      ],
      "stateMutability": "view",
      "type": "function"
    },
    {
      "inputs": [],
      "name": "owner",
      "outputs": [
        {
          "internalType": "address",
          "name": "",
          "type": "address"
        }
      ],
      "stateMutability": "view",
      "type": "function"
    },
    {
      "inputs": [],
      "name": "renounceOwnership",
      "outputs": [],
      "stateMutability": "nonpayable",
      "type": "function"
    },
    {
      "inputs": [],
      "name": "token",
      "outputs": [
        {
          "internalType": "contract IERC20",
          "name": "",
          "type": "address"
        }
      ],
      "stateMutability": "view",
      "type": "function"
    },
    {
      "inputs": [
        {
          "internalType": "address",
          "name": "newOwner",
          "type": "address"
        }
      ],
      "name": "transferOwnership",
      "outputs": [],
      "stateMutability": "nonpayable",
      "type": "function"
    },
    {
      "inputs": [
        {
          "internalType": "address",
          "name": "erc20Token",
          "type": "address"
        },
        {
          "internalType": "uint256",
          "name": "amount",
          "type": "uint256"
        }
      ],
      "name": "withdrawToken",
      "outputs": [],
      "stateMutability": "nonpayable",
      "type": "function"
    }
  ],
  "bytecode": "0x608060405234801561001057600080fd5b5060405161098138038061098183398101604081905261002f916100d8565b338061005557604051631e4fbdf760e01b81526000600482015260240160405180910390fd5b61005e81610088565b50600180546001600160a01b0319166001600160a01b039390931692909217909155600255610112565b600080546001600160a01b038381166001600160a01b0319831681178455604051919092169283917f8be0079c531659141344cd1fd0a4f28419497f9722a3daafe3b4186f6b6457e09190a35050565b600080604083850312156100eb57600080fd5b82516001600160a01b038116811461010257600080fd5b6020939093015192949293505050565b610860806101216000396000f3fe608060405234801561001057600080fd5b50600436106100935760003560e01c80638da5cb5b116100665780638da5cb5b146100f95780639a114cb21461011e5780639e281a9814610131578063f2fde38b14610144578063fc0c546a1461015757600080fd5b80632eb4a7ab1461009857806349590657146100b4578063715018a6146100bc57806373b2e80e146100c6575b600080fd5b6100a160025481565b6040519081526020015b60405180910390f35b6002546100a1565b6100c461016a565b005b6100e96100d43660046106ee565b60036020526000908152604090205460ff1681565b60405190151581526020016100ab565b6000546001600160a01b03165b6040516001600160a01b0390911681526020016100ab565b6100c461012c366004610709565b61017e565b6100c461013f366004610788565b6103b0565b6100c46101523660046106ee565b610582565b600154610106906001600160a01b031681565b6101726105c0565b61017c60006105ed565b565b3360009081526003602052604090205460ff16156101dc5760405162461bcd60e51b8152602060048201526016602482015275151bdad95b9cc8185b1c9958591e4818db185a5b595960521b60448201526064015b60405180910390fd5b6040516bffffffffffffffffffffffff193360601b1660208201526034810184905260009060540160405160208183030381529060405280519060200120905061025d83838080602002602001604051908101604052809392919081815260200183836020028082843760009201919091525050600254915084905061063d565b6102a05760405162461bcd60e51b815260206004820152601460248201527324b73b30b634b21026b2b935b63290383937b7b360611b60448201526064016101d3565b3360008181526003602052604090819020805460ff1916600190811790915554905163a9059cbb60e01b81526004810192909252602482018690526001600160a01b03169063a9059cbb906044016020604051808303816000875af115801561030d573d6000803e3d6000fd5b505050506040513d601f19601f8201168201806040525081019061033191906107b2565b6103755760405162461bcd60e51b8152602060048201526015602482015274151bdad95b881d1c985b9cd9995c8819985a5b1959605a1b60448201526064016101d3565b60405184815233907f896e034966eaaf1adc54acc0f257056febbd300c9e47182cf761982cf1f5e4309060200160405180910390a250505050565b6103b86105c0565b6001600160a01b03821661040e5760405162461bcd60e51b815260206004820152601c60248201527f496e76616c6964204552432d323020746f6b656e20616464726573730000000060448201526064016101d3565b6040516370a0823160e01b8152306004820152829082906001600160a01b038316906370a0823190602401602060405180830381865afa158015610456573d6000803e3d6000fd5b505050506040513d601f19601f8201168201806040525081019061047a91906107d4565b10156104c85760405162461bcd60e51b815260206004820152601a60248201527f496e73756666696369656e7420746f6b656e2062616c616e636500000000000060448201526064016101d3565b60405163a9059cbb60e01b8152336004820152602481018390526001600160a01b0382169063a9059cbb906044016020604051808303816000875af1158015610515573d6000803e3d6000fd5b505050506040513d601f19601f8201168201806040525081019061053991906107b2565b61057d5760405162461bcd60e51b8152602060048201526015602482015274151bdad95b881d1c985b9cd9995c8819985a5b1959605a1b60448201526064016101d3565b505050565b61058a6105c0565b6001600160a01b0381166105b457604051631e4fbdf760e01b8152600060048201526024016101d3565b6105bd816105ed565b50565b6000546001600160a01b0316331461017c5760405163118cdaa760e01b81523360048201526024016101d3565b600080546001600160a01b038381166001600160a01b0319831681178455604051919092169283917f8be0079c531659141344cd1fd0a4f28419497f9722a3daafe3b4186f6b6457e09190a35050565b60008261064a8584610653565b14949350505050565b600081815b84518110156106985761068482868381518110610677576106776107ed565b60200260200101516106a0565b91508061069081610803565b915050610658565b509392505050565b60008183106106bc5760008281526020849052604090206106cb565b60008381526020839052604090205b9392505050565b80356001600160a01b03811681146106e957600080fd5b919050565b60006020828403121561070057600080fd5b6106cb826106d2565b60008060006040848603121561071e57600080fd5b83359250602084013567ffffffffffffffff8082111561073d57600080fd5b818601915086601f83011261075157600080fd5b81358181111561076057600080fd5b8760208260051b850101111561077557600080fd5b6020830194508093505050509250925092565b6000806040838503121561079b57600080fd5b6107a4836106d2565b946020939093013593505050565b6000602082840312156107c457600080fd5b815180151581146106cb57600080fd5b6000602082840312156107e657600080fd5b5051919050565b634e487b7160e01b600052603260045260246000fd5b60006001820161082357634e487b7160e01b600052601160045260246000fd5b506001019056fea2646970667358221220960731e2f7693987d8460e1e8431d885548617d3af44dbe191285164cdc6a99664736f6c63430008140033",
  "linkReferences": {},
  "deployedLinkReferences": {}
}