{
  "_format": "hh-sol-artifact-1",
  "contractName": "DynamicSwapExamples",
  "sourceName": "contracts/uni/DynamicSwapExamples.sol",
  "abi": [
    {
      "inputs": [],
      "name": "HDT",
      "outputs": [
        {
          "internalType": "address",
          "name": "",
          "type": "address"
        }
      ],
      "stateMutability": "view",
      "type": "function"
    },
    {
      "inputs": [],
      "name": "poolFee",
      "outputs": [
        {
          "internalType": "uint24",
          "name": "",
          "type": "uint24"
        }
      ],
      "stateMutability": "view",
      "type": "function"
    },
    {
      "inputs": [
        {
          "internalType": "address",
          "name": "tokenIn",
          "type": "address"
        },
        {
          "internalType": "address",
          "name": "tokenOut",
          "type": "address"
        },
        {
          "internalType": "uint256",
          "name": "amountIn",
          "type": "uint256"
        }
      ],
      "name": "swapExactInputSingle",
      "outputs": [
        {
          "internalType": "uint256",
          "name": "amountOut",
          "type": "uint256"
        }
      ],
      "stateMutability": "nonpayable",
      "type": "function"
    },
    {
      "inputs": [
        {
          "internalType": "address",
          "name": "tokenIn",
          "type": "address"
        },
        {
          "internalType": "address",
          "name": "tokenOut",
          "type": "address"
        },
        {
          "internalType": "uint256",
          "name": "amountOut",
          "type": "uint256"
        },
        {
          "internalType": "uint256",
          "name": "amountInMaximum",
          "type": "uint256"
        }
      ],
      "name": "swapExactOutputSingle",
      "outputs": [
        {
          "internalType": "uint256",
          "name": "amountIn",
          "type": "uint256"
        }
      ],
      "stateMutability": "nonpayable",
      "type": "function"
    },
    {
      "inputs": [],
      "name": "swapRouter",
      "outputs": [
        {
          "internalType": "contract ISwapRouter",
          "name": "",
          "type": "address"
        }
      ],
      "stateMutability": "view",
      "type": "function"
    },
    {
      "inputs": [],
      "name": "swapRouter02",
      "outputs": [
        {
          "internalType": "contract IV3SwapRouter",
          "name": "",
          "type": "address"
        }
      ],
      "stateMutability": "view",
      "type": "function"
    }
  ],
  "bytecode": "0x60c0604052733fc91a3afd70395cd496c647d5a6cc9d4b2b7fad6080527368b3465833fb72a70ecdf485e0e4c7bd8665fc4560a05234801561004057600080fd5b5060805160a051610896610088600039600060c101526000818161010901528181610152015281816101cf01528181610257015281816102ae015261032b01526108966000f3fe608060405234801561001057600080fd5b50600436106100625760003560e01c8063089fe6aa1461006757806356b1ddbb146100895780637eaf1116146100bc578063bc96faa9146100e3578063c31c9c0714610104578063ceb920121461012b575b600080fd5b610070610bb881565b60405162ffffff90911681526020015b60405180910390f35b6100a4739707be4129f68b767af550fe1c631bf1779623cb81565b6040516001600160a01b039091168152602001610080565b6100a47f000000000000000000000000000000000000000000000000000000000000000081565b6100f66100f13660046106d0565b61013e565b604051908152602001610080565b6100a47f000000000000000000000000000000000000000000000000000000000000000081565b6100f6610139366004610712565b61029a565b600061014c853330856103ac565b610177857f0000000000000000000000000000000000000000000000000000000000000000846104bb565b60408051610100810182526001600160a01b0380881682528681166020830152610bb88284015233606083015242608083015260a0820186905260c08201859052600060e08301529151631b67c43360e31b815290917f0000000000000000000000000000000000000000000000000000000000000000169063db3e21989061020490849060040161074e565b6020604051808303816000875af1158015610223573d6000803e3d6000fd5b505050506040513d601f19601f8201168201806040525081019061024791906107be565b9150828210156102915761027d867f000000000000000000000000000000000000000000000000000000000000000060006104bb565b610291863361028c85876107d7565b6105bb565b50949350505050565b60006102a8843330856103ac565b6102d3847f0000000000000000000000000000000000000000000000000000000000000000846104bb565b60408051610100810182526001600160a01b0380871682528581166020830152610bb88284015233606083015242608083015260a08201859052600060c0830181905260e0830152915163414bf38960e01b815290917f0000000000000000000000000000000000000000000000000000000000000000169063414bf3899061036090849060040161074e565b6020604051808303816000875af115801561037f573d6000803e3d6000fd5b505050506040513d601f19601f820116820180604052508101906103a391906107be565b95945050505050565b604080516001600160a01b0385811660248301528481166044830152606480830185905283518084039091018152608490920183526020820180516001600160e01b03166323b872dd60e01b179052915160009283929088169161041091906107fc565b6000604051808303816000865af19150503d806000811461044d576040519150601f19603f3d011682016040523d82523d6000602084013e610452565b606091505b509150915081801561047c57508051158061047c57508080602001905181019061047c9190610837565b6104b35760405162461bcd60e51b815260206004820152600360248201526229aa2360e91b60448201526064015b60405180910390fd5b505050505050565b604080516001600160a01b038481166024830152604480830185905283518084039091018152606490920183526020820180516001600160e01b031663095ea7b360e01b179052915160009283929087169161051791906107fc565b6000604051808303816000865af19150503d8060008114610554576040519150601f19603f3d011682016040523d82523d6000602084013e610559565b606091505b50915091508180156105835750805115806105835750808060200190518101906105839190610837565b6105b45760405162461bcd60e51b8152602060048201526002602482015261534160f01b60448201526064016104aa565b5050505050565b604080516001600160a01b038481166024830152604480830185905283518084039091018152606490920183526020820180516001600160e01b031663a9059cbb60e01b179052915160009283929087169161061791906107fc565b6000604051808303816000865af19150503d8060008114610654576040519150601f19603f3d011682016040523d82523d6000602084013e610659565b606091505b50915091508180156106835750805115806106835750808060200190518101906106839190610837565b6105b45760405162461bcd60e51b815260206004820152600260248201526114d560f21b60448201526064016104aa565b80356001600160a01b03811681146106cb57600080fd5b919050565b600080600080608085870312156106e657600080fd5b6106ef856106b4565b93506106fd602086016106b4565b93969395505050506040820135916060013590565b60008060006060848603121561072757600080fd5b610730846106b4565b925061073e602085016106b4565b9150604084013590509250925092565b61010081016107b8828480516001600160a01b03908116835260208083015182169084015260408083015162ffffff16908401526060808301518216908401526080808301519084015260a0828101519084015260c0808301519084015260e09182015116910152565b92915050565b6000602082840312156107d057600080fd5b5051919050565b6000828210156107f757634e487b7160e01b600052601160045260246000fd5b500390565b6000825160005b8181101561081d5760208186018101518583015201610803565b8181111561082c576000828501525b509190910192915050565b60006020828403121561084957600080fd5b8151801515811461085957600080fd5b939250505056fea2646970667358221220b904e434531930d18995d08b4b9395da442ebbeaa00f6489e925f7ae613c34ce64736f6c634300080d0033",
  "linkReferences": {},
  "deployedLinkReferences": {}
}