{
  "_format": "hh-sol-artifact-1",
  "contractName": "TokenListMulticall",
  "sourceName": "contracts/TokenListMulticall.sol",
  "abi": [
    {
      "inputs": [
        {
          "components": [
            {
              "internalType": "address",
              "name": "target",
              "type": "address"
            },
            {
              "internalType": "bytes",
              "name": "callData",
              "type": "bytes"
            }
          ],
          "internalType": "struct TokenListMulticall.Call[]",
          "name": "calls",
          "type": "tuple[]"
        }
      ],
      "name": "aggregate",
      "outputs": [
        {
          "internalType": "uint256",
          "name": "blockNumber",
          "type": "uint256"
        },
        {
          "internalType": "bytes[]",
          "name": "returnData",
          "type": "bytes[]"
        }
      ],
      "stateMutability": "view",
      "type": "function"
    },
    {
      "inputs": [
        {
          "internalType": "address",
          "name": "token",
          "type": "address"
        },
        {
          "internalType": "address",
          "name": "account",
          "type": "address"
        }
      ],
      "name": "getTokenBalance",
      "outputs": [
        {
          "internalType": "uint256",
          "name": "balance",
          "type": "uint256"
        }
      ],
      "stateMutability": "view",
      "type": "function"
    }
  ],
  "bytecode": "0x608060405234801561001057600080fd5b506105ef806100206000396000f3fe608060405234801561001057600080fd5b50600436106100365760003560e01c8063252dba421461003b578063c489744b14610065575b600080fd5b61004e610049366004610331565b610086565b60405161005c9291906103ca565b60405180910390f35b610078610073366004610468565b61022c565b60405190815260200161005c565b4360608267ffffffffffffffff8111156100a2576100a261049b565b6040519080825280602002602001820160405280156100d557816020015b60608152602001906001900390816100c05790505b50905060005b83811015610224576000808686848181106100f8576100f86104b1565b905060200281019061010a91906104c7565b6101189060208101906104e7565b6001600160a01b0316878785818110610133576101336104b1565b905060200281019061014591906104c7565b610153906020810190610509565b604051610161929190610557565b600060405180830381855afa9150503d806000811461019c576040519150601f19603f3d011682016040523d82523d6000602084013e6101a1565b606091505b5091509150816101f15760405162461bcd60e51b8152602060048201526016602482015275135d5b1d1a58d85b1b0e8818d85b1b0819985a5b195960521b60448201526064015b60405180910390fd5b80848481518110610204576102046104b1565b60200260200101819052505050808061021c90610567565b9150506100db565b509250929050565b6040516001600160a01b038281166024830152600091829182919086169060440160408051601f198184030181529181526020820180516001600160e01b03166370a0823160e01b17905251610282919061058e565b600060405180830381855afa9150503d80600081146102bd576040519150601f19603f3d011682016040523d82523d6000602084013e6102c2565b606091505b5091509150816103145760405162461bcd60e51b815260206004820181905260248201527f4d756c746963616c6c3a2062616c616e63654f662063616c6c206661696c656460448201526064016101e8565b8080602001905181019061032891906105a0565b95945050505050565b6000806020838503121561034457600080fd5b823567ffffffffffffffff8082111561035c57600080fd5b818501915085601f83011261037057600080fd5b81358181111561037f57600080fd5b8660208260051b850101111561039457600080fd5b60209290920196919550909350505050565b60005b838110156103c15781810151838201526020016103a9565b50506000910152565b600060408201848352602060408185015281855180845260608601915060608160051b870101935082870160005b8281101561043e57878603605f190184528151805180885261041f81888a018985016103a6565b601f01601f1916969096018501955092840192908401906001016103f8565b509398975050505050505050565b80356001600160a01b038116811461046357600080fd5b919050565b6000806040838503121561047b57600080fd5b6104848361044c565b91506104926020840161044c565b90509250929050565b634e487b7160e01b600052604160045260246000fd5b634e487b7160e01b600052603260045260246000fd5b60008235603e198336030181126104dd57600080fd5b9190910192915050565b6000602082840312156104f957600080fd5b6105028261044c565b9392505050565b6000808335601e1984360301811261052057600080fd5b83018035915067ffffffffffffffff82111561053b57600080fd5b60200191503681900382131561055057600080fd5b9250929050565b8183823760009101908152919050565b60006001820161058757634e487b7160e01b600052601160045260246000fd5b5060010190565b600082516104dd8184602087016103a6565b6000602082840312156105b257600080fd5b505191905056fea26469706673582212208e38202c13f57b2793dc1607fb2c62e9b49f1315a55ff42db422a0268074e36064736f6c63430008140033",
  "linkReferences": {},
  "deployedLinkReferences": {}
}