{
  "_format": "hh-sol-artifact-1",
  "contractName": "EncodeIncentivesUniV3",
  "sourceName": "contracts/lp/EncodeIncentiveUniV3.sol",
  "abi": [
    {
      "inputs": [
        {
          "components": [
            {
              "internalType": "address",
              "name": "rewardToken",
              "type": "address"
            },
            {
              "internalType": "address",
              "name": "pool",
              "type": "address"
            },
            {
              "internalType": "uint256",
              "name": "startTime",
              "type": "uint256"
            },
            {
              "internalType": "uint256",
              "name": "endTime",
              "type": "uint256"
            },
            {
              "internalType": "address",
              "name": "refundee",
              "type": "address"
            }
          ],
          "internalType": "struct EncodeIncentivesUniV3.IncentiveKey",
          "name": "key",
          "type": "tuple"
        }
      ],
      "name": "compute",
      "outputs": [
        {
          "internalType": "bytes32",
          "name": "incentiveId",
          "type": "bytes32"
        }
      ],
      "stateMutability": "pure",
      "type": "function"
    },
    {
      "inputs": [
        {
          "components": [
            {
              "internalType": "address",
              "name": "rewardToken",
              "type": "address"
            },
            {
              "internalType": "address",
              "name": "pool",
              "type": "address"
            },
            {
              "internalType": "uint256",
              "name": "startTime",
              "type": "uint256"
            },
            {
              "internalType": "uint256",
              "name": "endTime",
              "type": "uint256"
            },
            {
              "internalType": "address",
              "name": "refundee",
              "type": "address"
            }
          ],
          "internalType": "struct EncodeIncentivesUniV3.IncentiveKey",
          "name": "key",
          "type": "tuple"
        }
      ],
      "name": "computeUnhashedKey",
      "outputs": [
        {
          "internalType": "bytes",
          "name": "",
          "type": "bytes"
        }
      ],
      "stateMutability": "pure",
      "type": "function"
    },
    {
      "inputs": [
        {
          "internalType": "bytes",
          "name": "data",
          "type": "bytes"
        }
      ],
      "name": "decode",
      "outputs": [
        {
          "components": [
            {
              "internalType": "address",
              "name": "rewardToken",
              "type": "address"
            },
            {
              "internalType": "address",
              "name": "pool",
              "type": "address"
            },
            {
              "internalType": "uint256",
              "name": "startTime",
              "type": "uint256"
            },
            {
              "internalType": "uint256",
              "name": "endTime",
              "type": "uint256"
            },
            {
              "internalType": "address",
              "name": "refundee",
              "type": "address"
            }
          ],
          "internalType": "struct EncodeIncentivesUniV3.IncentiveKey",
          "name": "",
          "type": "tuple"
        }
      ],
      "stateMutability": "pure",
      "type": "function"
    }
  ],
  "bytecode": "0x608060405234801561001057600080fd5b506103cc806100206000396000f3fe608060405234801561001057600080fd5b50600436106100415760003560e01c8063408993b4146100465780636ab7d8801461006f578063e5c5e9a314610090575b600080fd5b61005961005436600461018c565b6100b0565b60405161006691906101f6565b60405180910390f35b61008261007d36600461018c565b6100d9565b604051908152602001610066565b6100a361009e366004610244565b6100f2565b60405161006691906102f5565b6060816040516020016100c391906102f5565b6040516020818303038152906040529050919050565b60006100e4826100b0565b805190602001209050919050565b6040805160a081018252600080825260208083018290529282018190526060820181905260808201528251909161012f9184018101908401610338565b92915050565b634e487b7160e01b600052604160045260246000fd5b60405160a0810167ffffffffffffffff8111828210171561016e5761016e610135565b60405290565b6001600160a01b038116811461018957600080fd5b50565b600060a0828403121561019e57600080fd5b6101a661014b565b82356101b181610174565b815260208301356101c181610174565b80602083015250604083013560408201526060830135606082015260808301356101ea81610174565b60808201529392505050565b600060208083528351808285015260005b8181101561022357858101830151858201604001528201610207565b506000604082860101526040601f19601f8301168501019250505092915050565b60006020828403121561025657600080fd5b813567ffffffffffffffff8082111561026e57600080fd5b818401915084601f83011261028257600080fd5b81358181111561029457610294610135565b604051601f8201601f19908116603f011681019083821181831017156102bc576102bc610135565b816040528281528760208487010111156102d557600080fd5b826020860160208301376000928101602001929092525095945050505050565b81516001600160a01b0390811682526020808401518216908301526040808401519083015260608084015190830152608092830151169181019190915260a00190565b600060a0828403121561034a57600080fd5b61035261014b565b825161035d81610174565b8152602083015161036d81610174565b80602083015250604083015160408201526060830151606082015260808301516101ea8161017456fea26469706673582212209c36f382a271ba89a4c19b30f16f89a35ed779fe8fbf2cc11f4fab9e706dd13464736f6c63430008140033",
  "linkReferences": {},
  "deployedLinkReferences": {}
}