{
  "_format": "hh-sol-artifact-1",
  "contractName": "ReferralProject",
  "sourceName": "contracts/referral/ReferralProject.sol",
  "abi": [
    {
      "inputs": [
        {
          "internalType": "address",
          "name": "_hdtToken",
          "type": "address"
        },
        {
          "internalType": "address",
          "name": "_developerSafe",
          "type": "address"
        },
        {
          "internalType": "address",
          "name": "_trustedSigner",
          "type": "address"
        }
      ],
      "stateMutability": "nonpayable",
      "type": "constructor"
    },
    {
      "inputs": [],
      "name": "ECDSAInvalidSignature",
      "type": "error"
    },
    {
      "inputs": [
        {
          "internalType": "uint256",
          "name": "length",
          "type": "uint256"
        }
      ],
      "name": "ECDSAInvalidSignatureLength",
      "type": "error"
    },
    {
      "inputs": [
        {
          "internalType": "bytes32",
          "name": "s",
          "type": "bytes32"
        }
      ],
      "name": "ECDSAInvalidSignatureS",
      "type": "error"
    },
    {
      "anonymous": false,
      "inputs": [
        {
          "indexed": true,
          "internalType": "string",
          "name": "referralCode",
          "type": "string"
        },
        {
          "indexed": true,
          "internalType": "string",
          "name": "enteredReferralCode",
          "type": "string"
        },
        {
          "indexed": true,
          "internalType": "address",
          "name": "owner",
          "type": "address"
        },
        {
          "indexed": false,
          "internalType": "uint256",
          "name": "rewardAmount",
          "type": "uint256"
        }
      ],
      "name": "RewardClaimed",
      "type": "event"
    },
    {
      "anonymous": false,
      "inputs": [
        {
          "indexed": true,
          "internalType": "bytes32",
          "name": "ethSignedMessageHash",
          "type": "bytes32"
        }
      ],
      "name": "Signature",
      "type": "event"
    },
    {
      "inputs": [],
      "name": "REWARD_AMOUNT",
      "outputs": [
        {
          "internalType": "uint256",
          "name": "",
          "type": "uint256"
        }
      ],
      "stateMutability": "view",
      "type": "function"
    },
    {
      "inputs": [
        {
          "internalType": "string",
          "name": "referralCode",
          "type": "string"
        },
        {
          "internalType": "string",
          "name": "enteredReferralCode",
          "type": "string"
        },
        {
          "internalType": "address",
          "name": "owner",
          "type": "address"
        },
        {
          "internalType": "bytes",
          "name": "signature",
          "type": "bytes"
        }
      ],
      "name": "claimReward",
      "outputs": [],
      "stateMutability": "nonpayable",
      "type": "function"
    },
    {
      "inputs": [],
      "name": "developerSafe",
      "outputs": [
        {
          "internalType": "address",
          "name": "",
          "type": "address"
        }
      ],
      "stateMutability": "view",
      "type": "function"
    },
    {
      "inputs": [],
      "name": "hdtToken",
      "outputs": [
        {
          "internalType": "contract IERC20",
          "name": "",
          "type": "address"
        }
      ],
      "stateMutability": "view",
      "type": "function"
    },
    {
      "inputs": [
        {
          "internalType": "string",
          "name": "enteredReferralCode",
          "type": "string"
        }
      ],
      "name": "isReferralProcessed",
      "outputs": [
        {
          "internalType": "bool",
          "name": "",
          "type": "bool"
        }
      ],
      "stateMutability": "view",
      "type": "function"
    },
    {
      "inputs": [
        {
          "internalType": "string",
          "name": "",
          "type": "string"
        }
      ],
      "name": "processedenteredReferralCodes",
      "outputs": [
        {
          "internalType": "bool",
          "name": "",
          "type": "bool"
        }
      ],
      "stateMutability": "view",
      "type": "function"
    },
    {
      "inputs": [],
      "name": "trustedSigner",
      "outputs": [
        {
          "internalType": "address",
          "name": "",
          "type": "address"
        }
      ],
      "stateMutability": "view",
      "type": "function"
    }
  ],
  "bytecode": "0x608060405234801561001057600080fd5b50604051610a0a380380610a0a83398101604081905261002f9161008d565b600080546001600160a01b039485166001600160a01b0319918216179091556001805493851693821693909317909255600280549190931691161790556100d0565b80516001600160a01b038116811461008857600080fd5b919050565b6000806000606084860312156100a257600080fd5b6100ab84610071565b92506100b960208501610071565b91506100c760408501610071565b90509250925092565b61092b806100df6000396000f3fe608060405234801561001057600080fd5b506004361061007d5760003560e01c8063745ac4741161005b578063745ac474146100e8578063cf84944214610116578063e6032a6e14610133578063f74d54801461014857600080fd5b80630bc5f7111461008257806339833fc5146100b25780633d8f65d2146100d5575b600080fd5b600054610095906001600160a01b031681565b6040516001600160a01b0390911681526020015b60405180910390f35b6100c56100c0366004610750565b61015b565b60405190151581526020016100a9565b600154610095906001600160a01b031681565b6100c56100f6366004610750565b805160208183018101805160038252928201919093012091525460ff1681565b610125678ac7230489e8000081565b6040519081526020016100a9565b61014661014136600461078d565b610186565b005b600254610095906001600160a01b031681565b600060038260405161016d919061087a565b9081526040519081900360200190205460ff1692915050565b600383604051610196919061087a565b9081526040519081900360200190205460ff16156102105760405162461bcd60e51b815260206004820152602c60248201527f52657761726420616c726561647920636c61696d656420666f7220746869732060448201526b1c9959995c9c99590815525160a21b60648201526084015b60405180910390fd5b600084848460405160200161022793929190610886565b6040516020818303038152906040528051906020012090506000610298826040517f19457468657265756d205369676e6564204d6573736167653a0a3332000000006020820152603c8101829052600090605c01604051602081830303815290604052805190602001209050919050565b60405190915081907f07d14805fef049ec3a20218b38308b64de809c294f4651d4302b8748af48dd5690600090a26002546001600160a01b03166102dc828561049a565b6001600160a01b0316146103265760405162461bcd60e51b8152602060048201526011602482015270496e76616c6964207369676e617475726560781b6044820152606401610207565b6001600386604051610338919061087a565b908152604051908190036020018120805492151560ff19909316929092179091556000546001546323b872dd60e01b83526001600160a01b0390811660048401528681166024840152678ac7230489e80000604484015216906323b872dd906064016020604051808303816000875af11580156103b9573d6000803e3d6000fd5b505050506040513d601f19601f820116820180604052508101906103dd91906108bd565b6104225760405162461bcd60e51b815260206004820152601660248201527514995dd85c99081d1c985b9cd9995c8819985a5b195960521b6044820152606401610207565b836001600160a01b03168560405161043a919061087a565b604051809103902087604051610450919061087a565b604051908190038120678ac7230489e800008252907f73dee5d3e91c9d7161d5c9b2761f7e6e3057a199cc85db6c8b21f7878d1cc3129060200160405180910390a4505050505050565b6000806000806104aa86866104c4565b9250925092506104ba8282610511565b5090949350505050565b600080600083516041036104fe5760208401516040850151606086015160001a6104f0888285856105ce565b95509550955050505061050a565b50508151600091506002905b9250925092565b6000826003811115610525576105256108df565b0361052e575050565b6001826003811115610542576105426108df565b036105605760405163f645eedf60e01b815260040160405180910390fd5b6002826003811115610574576105746108df565b036105955760405163fce698f760e01b815260048101829052602401610207565b60038260038111156105a9576105a96108df565b036105ca576040516335e2f38360e21b815260048101829052602401610207565b5050565b600080807f7fffffffffffffffffffffffffffffff5d576e7357a4501ddfe92f46681b20a08411156106095750600091506003905082610693565b604080516000808252602082018084528a905260ff891692820192909252606081018790526080810186905260019060a0016020604051602081039080840390855afa15801561065d573d6000803e3d6000fd5b5050604051601f1901519150506001600160a01b03811661068957506000925060019150829050610693565b9250600091508190505b9450945094915050565b634e487b7160e01b600052604160045260246000fd5b600067ffffffffffffffff808411156106ce576106ce61069d565b604051601f8501601f19908116603f011681019082821181831017156106f6576106f661069d565b8160405280935085815286868601111561070f57600080fd5b858560208301376000602087830101525050509392505050565b600082601f83011261073a57600080fd5b610749838335602085016106b3565b9392505050565b60006020828403121561076257600080fd5b813567ffffffffffffffff81111561077957600080fd5b61078584828501610729565b949350505050565b600080600080608085870312156107a357600080fd5b843567ffffffffffffffff808211156107bb57600080fd5b6107c788838901610729565b955060208701359150808211156107dd57600080fd5b6107e988838901610729565b9450604087013591506001600160a01b038216821461080757600080fd5b9092506060860135908082111561081d57600080fd5b508501601f8101871361082f57600080fd5b61083e878235602084016106b3565b91505092959194509250565b6000815160005b8181101561086b5760208185018101518683015201610851565b50600093019283525090919050565b6000610749828461084a565b600061089b610895838761084a565b8561084a565b60609390931b6bffffffffffffffffffffffff19168352505060140192915050565b6000602082840312156108cf57600080fd5b8151801515811461074957600080fd5b634e487b7160e01b600052602160045260246000fdfea264697066735822122044cda470cbe30e09e7d6a1f1334686a323bc8281b4c4a3c48297a66f3e190cc564736f6c63430008140033",
  "linkReferences": {},
  "deployedLinkReferences": {}
}