{
  "_format": "hh-sol-artifact-1",
  "contractName": "DynamicSwapExamplesOriginal",
  "sourceName": "contracts/uni/DynamicSwapExamplesOriginal.sol",
  "abi": [
    {
      "inputs": [],
      "name": "HDT",
      "outputs": [
        {
          "internalType": "address",
          "name": "",
          "type": "address"
        }
      ],
      "stateMutability": "view",
      "type": "function"
    },
    {
      "inputs": [
        {
          "internalType": "address",
          "name": "token",
          "type": "address"
        },
        {
          "internalType": "uint256",
          "name": "amount",
          "type": "uint256"
        }
      ],
      "name": "approveToken",
      "outputs": [],
      "stateMutability": "nonpayable",
      "type": "function"
    },
    {
      "inputs": [],
      "name": "poolFee",
      "outputs": [
        {
          "internalType": "uint24",
          "name": "",
          "type": "uint24"
        }
      ],
      "stateMutability": "view",
      "type": "function"
    },
    {
      "inputs": [
        {
          "internalType": "address",
          "name": "tokenIn",
          "type": "address"
        },
        {
          "internalType": "address",
          "name": "tokenOut",
          "type": "address"
        },
        {
          "internalType": "uint256",
          "name": "amountIn",
          "type": "uint256"
        }
      ],
      "name": "swapExactInputSingle",
      "outputs": [
        {
          "internalType": "uint256",
          "name": "amountOut",
          "type": "uint256"
        }
      ],
      "stateMutability": "nonpayable",
      "type": "function"
    },
    {
      "inputs": [
        {
          "internalType": "address",
          "name": "tokenIn",
          "type": "address"
        },
        {
          "internalType": "address",
          "name": "tokenOut",
          "type": "address"
        },
        {
          "internalType": "uint256",
          "name": "amountOut",
          "type": "uint256"
        },
        {
          "internalType": "uint256",
          "name": "amountInMaximum",
          "type": "uint256"
        }
      ],
      "name": "swapExactOutputSingle",
      "outputs": [
        {
          "internalType": "uint256",
          "name": "amountIn",
          "type": "uint256"
        }
      ],
      "stateMutability": "nonpayable",
      "type": "function"
    },
    {
      "inputs": [],
      "name": "swapRouter",
      "outputs": [
        {
          "internalType": "contract ISwapRouter",
          "name": "",
          "type": "address"
        }
      ],
      "stateMutability": "view",
      "type": "function"
    }
  ],
  "bytecode": "0x60a060405273e592427a0aece92de3edee1f18e0157c0586156460805234801561002857600080fd5b506080516108dd61006d6000396000818160f7015281816101320152818161016f015281816101ec01528181610274015281816102cb015261034801526108dd6000f3fe608060405234801561001057600080fd5b50600436106100625760003560e01c8063022fc88b14610067578063089fe6aa1461007c57806356b1ddbb1461009e578063bc96faa9146100d1578063c31c9c07146100f2578063ceb9201214610119575b600080fd5b61007a6100753660046106ed565b61012c565b005b610085610bb881565b60405162ffffff90911681526020015b60405180910390f35b6100b973301944751abb2f5000c71b050b139e31aeae472081565b6040516001600160a01b039091168152602001610095565b6100e46100df366004610717565b61015b565b604051908152602001610095565b6100b97f000000000000000000000000000000000000000000000000000000000000000081565b6100e4610127366004610759565b6102b7565b610157827f0000000000000000000000000000000000000000000000000000000000000000836103c9565b5050565b6000610169853330856104ce565b610194857f0000000000000000000000000000000000000000000000000000000000000000846103c9565b60408051610100810182526001600160a01b0380881682528681166020830152610bb88284015233606083015242608083015260a0820186905260c08201859052600060e08301529151631b67c43360e31b815290917f0000000000000000000000000000000000000000000000000000000000000000169063db3e219890610221908490600401610795565b6020604051808303816000875af1158015610240573d6000803e3d6000fd5b505050506040513d601f19601f820116820180604052508101906102649190610805565b9150828210156102ae5761029a867f000000000000000000000000000000000000000000000000000000000000000060006103c9565b6102ae86336102a9858761081e565b6105d8565b50949350505050565b60006102c5843330856104ce565b6102f0847f0000000000000000000000000000000000000000000000000000000000000000846103c9565b60408051610100810182526001600160a01b0380871682528581166020830152610bb88284015233606083015242608083015260a08201859052600060c0830181905260e0830152915163414bf38960e01b815290917f0000000000000000000000000000000000000000000000000000000000000000169063414bf3899061037d908490600401610795565b6020604051808303816000875af115801561039c573d6000803e3d6000fd5b505050506040513d601f19601f820116820180604052508101906103c09190610805565b95945050505050565b604080516001600160a01b038481166024830152604480830185905283518084039091018152606490920183526020820180516001600160e01b031663095ea7b360e01b17905291516000928392908716916104259190610843565b6000604051808303816000865af19150503d8060008114610462576040519150601f19603f3d011682016040523d82523d6000602084013e610467565b606091505b5091509150818015610491575080511580610491575080806020019051810190610491919061087e565b6104c75760405162461bcd60e51b8152602060048201526002602482015261534160f01b60448201526064015b60405180910390fd5b5050505050565b604080516001600160a01b0385811660248301528481166044830152606480830185905283518084039091018152608490920183526020820180516001600160e01b03166323b872dd60e01b17905291516000928392908816916105329190610843565b6000604051808303816000865af19150503d806000811461056f576040519150601f19603f3d011682016040523d82523d6000602084013e610574565b606091505b509150915081801561059e57508051158061059e57508080602001905181019061059e919061087e565b6105d05760405162461bcd60e51b815260206004820152600360248201526229aa2360e91b60448201526064016104be565b505050505050565b604080516001600160a01b038481166024830152604480830185905283518084039091018152606490920183526020820180516001600160e01b031663a9059cbb60e01b17905291516000928392908716916106349190610843565b6000604051808303816000865af19150503d8060008114610671576040519150601f19603f3d011682016040523d82523d6000602084013e610676565b606091505b50915091508180156106a05750805115806106a05750808060200190518101906106a0919061087e565b6104c75760405162461bcd60e51b815260206004820152600260248201526114d560f21b60448201526064016104be565b80356001600160a01b03811681146106e857600080fd5b919050565b6000806040838503121561070057600080fd5b610709836106d1565b946020939093013593505050565b6000806000806080858703121561072d57600080fd5b610736856106d1565b9350610744602086016106d1565b93969395505050506040820135916060013590565b60008060006060848603121561076e57600080fd5b610777846106d1565b9250610785602085016106d1565b9150604084013590509250925092565b61010081016107ff828480516001600160a01b03908116835260208083015182169084015260408083015162ffffff16908401526060808301518216908401526080808301519084015260a0828101519084015260c0808301519084015260e09182015116910152565b92915050565b60006020828403121561081757600080fd5b5051919050565b60008282101561083e57634e487b7160e01b600052601160045260246000fd5b500390565b6000825160005b81811015610864576020818601810151858301520161084a565b81811115610873576000828501525b509190910192915050565b60006020828403121561089057600080fd5b815180151581146108a057600080fd5b939250505056fea2646970667358221220791f0849f83195db49500aeb34366da69e1c211bc9f250a54c899f4fc35eac4664736f6c634300080d0033",
  "linkReferences": {},
  "deployedLinkReferences": {}
}