{
  "_format": "hh-sol-artifact-1",
  "contractName": "SimpleSwap",
  "sourceName": "contracts/uni/Swap.sol",
  "abi": [
    {
      "inputs": [
        {
          "internalType": "contract ISwapRouter",
          "name": "_swapRouter",
          "type": "address"
        }
      ],
      "stateMutability": "nonpayable",
      "type": "constructor"
    },
    {
      "inputs": [],
      "name": "DAI",
      "outputs": [
        {
          "internalType": "address",
          "name": "",
          "type": "address"
        }
      ],
      "stateMutability": "view",
      "type": "function"
    },
    {
      "inputs": [],
      "name": "WETH9",
      "outputs": [
        {
          "internalType": "address",
          "name": "",
          "type": "address"
        }
      ],
      "stateMutability": "view",
      "type": "function"
    },
    {
      "inputs": [],
      "name": "feeTier",
      "outputs": [
        {
          "internalType": "uint24",
          "name": "",
          "type": "uint24"
        }
      ],
      "stateMutability": "view",
      "type": "function"
    },
    {
      "inputs": [],
      "name": "swapRouter",
      "outputs": [
        {
          "internalType": "contract ISwapRouter",
          "name": "",
          "type": "address"
        }
      ],
      "stateMutability": "view",
      "type": "function"
    },
    {
      "inputs": [
        {
          "internalType": "uint256",
          "name": "amountIn",
          "type": "uint256"
        }
      ],
      "name": "swapWETHForDAI",
      "outputs": [
        {
          "internalType": "uint256",
          "name": "amountOut",
          "type": "uint256"
        }
      ],
      "stateMutability": "nonpayable",
      "type": "function"
    }
  ],
  "bytecode": "0x60a060405234801561001057600080fd5b5060405161062b38038061062b83398101604081905261002f91610040565b6001600160a01b0316608052610070565b60006020828403121561005257600080fd5b81516001600160a01b038116811461006957600080fd5b9392505050565b6080516105936100986000396000818160d701528181610150015261024101526105936000f3fe608060405234801561001057600080fd5b50600436106100575760003560e01c80632ed5016f1461005c5780634aa4a4fc1461008257806372f5d98a146100b5578063c31c9c07146100d2578063e0bab4c4146100f9575b600080fd5b61006f61006a3660046104c7565b610114565b6040519081526020015b60405180910390f35b61009d73c02aaa39b223fe8d0a0e5c4f27ead9083c756cc281565b6040516001600160a01b039091168152602001610079565b6100be610bb881565b60405162ffffff9091168152602001610079565b61009d7f000000000000000000000000000000000000000000000000000000000000000081565b61009d736b175474e89094c44da98b954eedeac495271d0f81565b600061013673c02aaa39b223fe8d0a0e5c4f27ead9083c756cc23330856102b8565b61017573c02aaa39b223fe8d0a0e5c4f27ead9083c756cc27f0000000000000000000000000000000000000000000000000000000000000000846103c7565b604080516101008101825273c02aaa39b223fe8d0a0e5c4f27ead9083c756cc28152736b175474e89094c44da98b954eedeac495271d0f60208201908152610bb88284019081523360608401908152426080850190815260a08501888152600060c0870181815260e08801828152985163414bf38960e01b815288516001600160a01b039081166004830152975188166024820152955162ffffff166044870152935186166064860152915160848501525160a4840152905160c48301529351821660e48201528392917f0000000000000000000000000000000000000000000000000000000000000000169063414bf38990610104016020604051808303816000875af115801561028b573d6000803e3d6000fd5b505050506040513d601f19601f820116820180604052508101906102af91906104e0565b95945050505050565b604080516001600160a01b0385811660248301528481166044830152606480830185905283518084039091018152608490920183526020820180516001600160e01b03166323b872dd60e01b179052915160009283929088169161031c91906104f9565b6000604051808303816000865af19150503d8060008114610359576040519150601f19603f3d011682016040523d82523d6000602084013e61035e565b606091505b50915091508180156103885750805115806103885750808060200190518101906103889190610534565b6103bf5760405162461bcd60e51b815260206004820152600360248201526229aa2360e91b60448201526064015b60405180910390fd5b505050505050565b604080516001600160a01b038481166024830152604480830185905283518084039091018152606490920183526020820180516001600160e01b031663095ea7b360e01b179052915160009283929087169161042391906104f9565b6000604051808303816000865af19150503d8060008114610460576040519150601f19603f3d011682016040523d82523d6000602084013e610465565b606091505b509150915081801561048f57508051158061048f57508080602001905181019061048f9190610534565b6104c05760405162461bcd60e51b8152602060048201526002602482015261534160f01b60448201526064016103b6565b5050505050565b6000602082840312156104d957600080fd5b5035919050565b6000602082840312156104f257600080fd5b5051919050565b6000825160005b8181101561051a5760208186018101518583015201610500565b81811115610529576000828501525b509190910192915050565b60006020828403121561054657600080fd5b8151801515811461055657600080fd5b939250505056fea264697066735822122033ab3cf8725fb74820d6459007ac51c6aca4a44eb0d96f2ce349519f6c61c1d464736f6c634300080d0033",
  "linkReferences": {},
  "deployedLinkReferences": {}
}