{
  "_format": "hh-sol-artifact-1",
  "contractName": "ReferralProjectBatch",
  "sourceName": "contracts/referral/ReferralProjectBatch.sol",
  "abi": [
    {
      "inputs": [
        {
          "internalType": "address",
          "name": "_hdtToken",
          "type": "address"
        },
        {
          "internalType": "address",
          "name": "_developerSafe",
          "type": "address"
        },
        {
          "internalType": "address",
          "name": "_trustedSigner",
          "type": "address"
        }
      ],
      "stateMutability": "nonpayable",
      "type": "constructor"
    },
    {
      "inputs": [],
      "name": "ECDSAInvalidSignature",
      "type": "error"
    },
    {
      "inputs": [
        {
          "internalType": "uint256",
          "name": "length",
          "type": "uint256"
        }
      ],
      "name": "ECDSAInvalidSignatureLength",
      "type": "error"
    },
    {
      "inputs": [
        {
          "internalType": "bytes32",
          "name": "s",
          "type": "bytes32"
        }
      ],
      "name": "ECDSAInvalidSignatureS",
      "type": "error"
    },
    {
      "anonymous": false,
      "inputs": [
        {
          "indexed": false,
          "internalType": "uint256",
          "name": "totalClaims",
          "type": "uint256"
        },
        {
          "indexed": false,
          "internalType": "string[]",
          "name": "referralCodes",
          "type": "string[]"
        },
        {
          "indexed": true,
          "internalType": "string",
          "name": "enteredReferralCode",
          "type": "string"
        },
        {
          "indexed": false,
          "internalType": "address[]",
          "name": "owners",
          "type": "address[]"
        },
        {
          "indexed": true,
          "internalType": "address",
          "name": "referralOwner",
          "type": "address"
        }
      ],
      "name": "BatchClaimProcessed",
      "type": "event"
    },
    {
      "anonymous": false,
      "inputs": [
        {
          "indexed": true,
          "internalType": "string",
          "name": "referralCode",
          "type": "string"
        },
        {
          "indexed": true,
          "internalType": "string",
          "name": "enteredReferralCode",
          "type": "string"
        },
        {
          "indexed": true,
          "internalType": "address",
          "name": "owner",
          "type": "address"
        },
        {
          "indexed": false,
          "internalType": "uint256",
          "name": "rewardAmount",
          "type": "uint256"
        }
      ],
      "name": "RewardClaimed",
      "type": "event"
    },
    {
      "anonymous": false,
      "inputs": [
        {
          "indexed": true,
          "internalType": "bytes32",
          "name": "ethSignedMessageHash",
          "type": "bytes32"
        }
      ],
      "name": "Signature",
      "type": "event"
    },
    {
      "stateMutability": "payable",
      "type": "fallback"
    },
    {
      "inputs": [],
      "name": "REWARD_AMOUNT",
      "outputs": [
        {
          "internalType": "uint256",
          "name": "",
          "type": "uint256"
        }
      ],
      "stateMutability": "view",
      "type": "function"
    },
    {
      "inputs": [
        {
          "internalType": "string[]",
          "name": "referralCodes",
          "type": "string[]"
        },
        {
          "internalType": "string",
          "name": "enteredReferralCode",
          "type": "string"
        },
        {
          "internalType": "address[]",
          "name": "owners",
          "type": "address[]"
        },
        {
          "internalType": "address",
          "name": "referralOwner",
          "type": "address"
        },
        {
          "internalType": "bytes[]",
          "name": "signatures",
          "type": "bytes[]"
        }
      ],
      "name": "batchClaimReward",
      "outputs": [],
      "stateMutability": "nonpayable",
      "type": "function"
    },
    {
      "inputs": [
        {
          "internalType": "string",
          "name": "referralCode",
          "type": "string"
        },
        {
          "internalType": "string",
          "name": "enteredReferralCode",
          "type": "string"
        },
        {
          "internalType": "address",
          "name": "owner",
          "type": "address"
        },
        {
          "internalType": "address",
          "name": "referralOwner",
          "type": "address"
        },
        {
          "internalType": "bytes",
          "name": "signature",
          "type": "bytes"
        }
      ],
      "name": "claimReward",
      "outputs": [],
      "stateMutability": "nonpayable",
      "type": "function"
    },
    {
      "inputs": [],
      "name": "developerSafe",
      "outputs": [
        {
          "internalType": "address",
          "name": "",
          "type": "address"
        }
      ],
      "stateMutability": "view",
      "type": "function"
    },
    {
      "inputs": [],
      "name": "hdtToken",
      "outputs": [
        {
          "internalType": "contract IERC20",
          "name": "",
          "type": "address"
        }
      ],
      "stateMutability": "view",
      "type": "function"
    },
    {
      "inputs": [
        {
          "internalType": "string",
          "name": "referralCode",
          "type": "string"
        }
      ],
      "name": "isReferralProcessed",
      "outputs": [
        {
          "internalType": "bool",
          "name": "",
          "type": "bool"
        }
      ],
      "stateMutability": "view",
      "type": "function"
    },
    {
      "inputs": [
        {
          "internalType": "string",
          "name": "",
          "type": "string"
        }
      ],
      "name": "processedReferralCodes",
      "outputs": [
        {
          "internalType": "bool",
          "name": "",
          "type": "bool"
        }
      ],
      "stateMutability": "view",
      "type": "function"
    },
    {
      "inputs": [],
      "name": "trustedSigner",
      "outputs": [
        {
          "internalType": "address",
          "name": "",
          "type": "address"
        }
      ],
      "stateMutability": "view",
      "type": "function"
    },
    {
      "stateMutability": "payable",
      "type": "receive"
    }
  ],
  "bytecode": "0x608060405234801561001057600080fd5b5060405162001426380380620014268339810160408190526100319161008f565b600080546001600160a01b039485166001600160a01b0319918216179091556001805493851693821693909317909255600280549190931691161790556100d2565b80516001600160a01b038116811461008a57600080fd5b919050565b6000806000606084860312156100a457600080fd5b6100ad84610073565b92506100bb60208501610073565b91506100c960408501610073565b90509250925092565b61134480620000e26000396000f3fe60806040526004361061007f5760003560e01c80633d8f65d21161004e5780633d8f65d2146101e35780635b79e02814610203578063cf84944214610223578063f74d54801461024d576100d1565b80630bc5f7111461011957806310fac7fc1461015657806317f864dd1461017857806339833fc5146101c3576100d1565b366100d15760405162461bcd60e51b815260206004820152601e60248201527f436f6e747261637420646f6573206e6f7420616363657074204574686572000060448201526064015b60405180910390fd5b60405162461bcd60e51b815260206004820152601e60248201527f436f6e747261637420646f6573206e6f7420616363657074204574686572000060448201526064016100c8565b34801561012557600080fd5b50600054610139906001600160a01b031681565b6040516001600160a01b0390911681526020015b60405180910390f35b34801561016257600080fd5b50610176610171366004610eae565b61026d565b005b34801561018457600080fd5b506101b3610193366004610fdc565b805160208183018101805160038252928201919093012091525460ff1681565b604051901515815260200161014d565b3480156101cf57600080fd5b506101b36101de366004610fdc565b610760565b3480156101ef57600080fd5b50600154610139906001600160a01b031681565b34801561020f57600080fd5b5061017661021e366004611019565b61078b565b34801561022f57600080fd5b5061023f678ac7230489e8000081565b60405190815260200161014d565b34801561025957600080fd5b50600254610139906001600160a01b031681565b336001600160a01b038316146102955760405162461bcd60e51b81526004016100c8906110b6565b8451806102e45760405162461bcd60e51b815260206004820152601a60248201527f4e6f20726566657272616c20636f6465732070726f766964656400000000000060448201526064016100c8565b60648111156103355760405162461bcd60e51b815260206004820152601a60248201527f45786365656473206d6178696d756d2062617463682073697a6500000000000060448201526064016100c8565b8151811480156103455750835181145b6103915760405162461bcd60e51b815260206004820152601e60248201527f496e707574206172726179206c656e67746873206d757374206d61746368000060448201526064016100c8565b6000805b828110156105675760008882815181106103b1576103b16110fa565b6020026020010151905060008783815181106103cf576103cf6110fa565b6020026020010151905060008684815181106103ed576103ed6110fa565b602002602001015190506000838b8460405160200161040e93929190611134565b60405160208183030381529060405280519060200120905060006104318261079f565b6002549091506001600160a01b031661044a82856107f2565b6001600160a01b0316146104a05760405162461bcd60e51b815260206004820152601b60248201527f496e76616c6964207369676e617475726520666f7220636c61696d000000000060448201526064016100c8565b6003856040516104b0919061117f565b9081526040519081900360200190205460ff16156105095760405162461bcd60e51b815260206004820152601660248201527514995dd85c9908185b1c9958591e4818db185a5b595960521b60448201526064016100c8565b600160038660405161051b919061117f565b908152604051908190036020019020805491151560ff1990921691909117905561054d678ac7230489e80000886111b1565b96505050505050808061055f906111c4565b915050610395565b506000546001546040516370a0823160e01b81526001600160a01b039182166004820152839291909116906370a0823190602401602060405180830381865afa1580156105b8573d6000803e3d6000fd5b505050506040513d601f19601f820116820180604052508101906105dc91906111dd565b10156106365760405162461bcd60e51b815260206004820152602360248201527f496e73756666696369656e742066756e647320696e20646576656c6f7065725360448201526261666560e81b60648201526084016100c8565b6000546001546040516323b872dd60e01b81526001600160a01b0391821660048201528682166024820152604481018490529116906323b872dd906064016020604051808303816000875af1158015610693573d6000803e3d6000fd5b505050506040513d601f19601f820116820180604052508101906106b791906111f6565b6106fc5760405162461bcd60e51b815260206004820152601660248201527514995dd85c99081d1c985b9cd9995c8819985a5b195960521b60448201526064016100c8565b836001600160a01b031686604051610714919061117f565b60405180910390207ff3dcaa8fd79b5d60677aafc0e6a85bc9a34ba3780653eb09c0dda2f87f0d4ad1848a8960405161074f93929190611263565b60405180910390a350505050505050565b6000600382604051610772919061117f565b9081526040519081900360200190205460ff1692915050565b610798858585858561081e565b5050505050565b6040517f19457468657265756d205369676e6564204d6573736167653a0a3332000000006020820152603c8101829052600090605c01604051602081830303815290604052805190602001209050919050565b6000806000806108028686610aec565b9250925092506108128282610b39565b50909150505b92915050565b336001600160a01b038316146108465760405162461bcd60e51b81526004016100c8906110b6565b600385604051610856919061117f565b9081526040519081900360200190205460ff16156108af5760405162461bcd60e51b815260206004820152601660248201527514995dd85c9908185b1c9958591e4818db185a5b595960521b60448201526064016100c8565b60008585856040516020016108c693929190611134565b60405160208183030381529060405280519060200120905060006108e98261079f565b60405190915081907f07d14805fef049ec3a20218b38308b64de809c294f4651d4302b8748af48dd5690600090a26002546001600160a01b031661092d82856107f2565b6001600160a01b0316146109775760405162461bcd60e51b8152602060048201526011602482015270496e76616c6964207369676e617475726560781b60448201526064016100c8565b6001600388604051610989919061117f565b908152604051908190036020018120805492151560ff19909316929092179091556000546001546323b872dd60e01b83526001600160a01b0390811660048401528781166024840152678ac7230489e80000604484015216906323b872dd906064016020604051808303816000875af1158015610a0a573d6000803e3d6000fd5b505050506040513d601f19601f82011682018060405250810190610a2e91906111f6565b610a735760405162461bcd60e51b815260206004820152601660248201527514995dd85c99081d1c985b9cd9995c8819985a5b195960521b60448201526064016100c8565b836001600160a01b031686604051610a8b919061117f565b604051809103902088604051610aa1919061117f565b604051908190038120678ac7230489e800008252907f73dee5d3e91c9d7161d5c9b2761f7e6e3057a199cc85db6c8b21f7878d1cc3129060200160405180910390a450505050505050565b60008060008351604103610b265760208401516040850151606086015160001a610b1888828585610bf6565b955095509550505050610b32565b50508151600091506002905b9250925092565b6000826003811115610b4d57610b4d6112f8565b03610b56575050565b6001826003811115610b6a57610b6a6112f8565b03610b885760405163f645eedf60e01b815260040160405180910390fd5b6002826003811115610b9c57610b9c6112f8565b03610bbd5760405163fce698f760e01b8152600481018290526024016100c8565b6003826003811115610bd157610bd16112f8565b03610bf2576040516335e2f38360e21b8152600481018290526024016100c8565b5050565b600080807f7fffffffffffffffffffffffffffffff5d576e7357a4501ddfe92f46681b20a0841115610c315750600091506003905082610cbb565b604080516000808252602082018084528a905260ff891692820192909252606081018790526080810186905260019060a0016020604051602081039080840390855afa158015610c85573d6000803e3d6000fd5b5050604051601f1901519150506001600160a01b038116610cb157506000925060019150829050610cbb565b9250600091508190505b9450945094915050565b634e487b7160e01b600052604160045260246000fd5b604051601f8201601f1916810167ffffffffffffffff81118282101715610d0457610d04610cc5565b604052919050565b600067ffffffffffffffff821115610d2657610d26610cc5565b5060051b60200190565b600082601f830112610d4157600080fd5b813567ffffffffffffffff811115610d5b57610d5b610cc5565b610d6e601f8201601f1916602001610cdb565b818152846020838601011115610d8357600080fd5b816020850160208301376000918101602001919091529392505050565b80356001600160a01b0381168114610db757600080fd5b919050565b600082601f830112610dcd57600080fd5b81356020610de2610ddd83610d0c565b610cdb565b82815260059290921b84018101918181019086841115610e0157600080fd5b8286015b84811015610e2357610e1681610da0565b8352918301918301610e05565b509695505050505050565b600082601f830112610e3f57600080fd5b81356020610e4f610ddd83610d0c565b82815260059290921b84018101918181019086841115610e6e57600080fd5b8286015b84811015610e2357803567ffffffffffffffff811115610e925760008081fd5b610ea08986838b0101610d30565b845250918301918301610e72565b600080600080600060a08688031215610ec657600080fd5b853567ffffffffffffffff80821115610ede57600080fd5b818801915088601f830112610ef257600080fd5b81356020610f02610ddd83610d0c565b82815260059290921b8401810191818101908c841115610f2157600080fd5b8286015b84811015610f5957803586811115610f3d5760008081fd5b610f4b8f86838b0101610d30565b845250918301918301610f25565b5099505089013592505080821115610f7057600080fd5b610f7c89838a01610d30565b95506040880135915080821115610f9257600080fd5b610f9e89838a01610dbc565b9450610fac60608901610da0565b93506080880135915080821115610fc257600080fd5b50610fcf88828901610e2e565b9150509295509295909350565b600060208284031215610fee57600080fd5b813567ffffffffffffffff81111561100557600080fd5b61101184828501610d30565b949350505050565b600080600080600060a0868803121561103157600080fd5b853567ffffffffffffffff8082111561104957600080fd5b61105589838a01610d30565b9650602088013591508082111561106b57600080fd5b61107789838a01610d30565b955061108560408901610da0565b945061109360608901610da0565b935060808801359150808211156110a957600080fd5b50610fcf88828901610d30565b60208082526024908201527f43616c6c6572206973206e6f74206f776e6572206f6620726566657272616c20604082015263636f646560e01b606082015260800190565b634e487b7160e01b600052603260045260246000fd5b60005b8381101561112b578181015183820152602001611113565b50506000910152565b60008451611146818460208901611110565b84519083019061115a818360208901611110565b60609490941b6bffffffffffffffffffffffff19169301928352505060140192915050565b60008251611191818460208701611110565b9190910192915050565b634e487b7160e01b600052601160045260246000fd5b808201808211156108185761081861119b565b6000600182016111d6576111d661119b565b5060010190565b6000602082840312156111ef57600080fd5b5051919050565b60006020828403121561120857600080fd5b8151801515811461121857600080fd5b9392505050565b600081518084526020808501945080840160005b838110156112585781516001600160a01b031687529582019590820190600101611233565b509495945050505050565b600060608201858352602060608185015281865180845260808601915060808160051b870101935082880160005b828110156112d757878603607f19018452815180518088526112b881888a01898501611110565b601f01601f191696909601850195509284019290840190600101611291565b505050505082810360408401526112ee818561121f565b9695505050505050565b634e487b7160e01b600052602160045260246000fdfea26469706673582212208f645a3362912ca4c056bc4b0be7414368685799718b133c86092e68aa772cef64736f6c63430008140033",
  "linkReferences": {},
  "deployedLinkReferences": {}
}